{"abi":[{"type":"constructor","inputs":[],"stateMutability":"nonpayable"},{"type":"fallback","stateMutability":"payable"},{"type":"receive","stateMutability":"payable"},{"type":"function","name":"DEFAULT_ADMIN_ROLE","inputs":[],"outputs":[{"name":"","type":"bytes32","internalType":"bytes32"}],"stateMutability":"view"},{"type":"function","name":"HOST_ROLE","inputs":[],"outputs":[{"name":"","type":"bytes32","internalType":"bytes32"}],"stateMutability":"view"},{"type":"function","name":"addTaskToCampaign","inputs":[{"name":"_campaignId","type":"uint256","internalType":"uint256"},{"name":"_taskType","type":"uint8","internalType":"enum CampaignStorage.TaskType"},{"name":"_description","type":"string","internalType":"string"},{"name":"_verificationData","type":"bytes","internalType":"bytes"},{"name":"_isOptional","type":"bool","internalType":"bool"}],"outputs":[],"stateMutability":"nonpayable"},{"type":"function","name":"claimReward","inputs":[{"name":"_campaignId","type":"uint256","internalType":"uint256"}],"outputs":[],"stateMutability":"nonpayable"},{"type":"function","name":"closeCampaign","inputs":[{"name":"_campaignId","type":"uint256","internalType":"uint256"}],"outputs":[],"stateMutability":"nonpayable"},{"type":"function","name":"completeTask","inputs":[{"name":"_campaignId","type":"uint256","internalType":"uint256"},{"name":"_taskIndex","type":"uint256","internalType":"uint256"}],"outputs":[],"stateMutability":"nonpayable"},{"type":"function","name":"createCampaign","inputs":[{"name":"_name","type":"string","internalType":"string"},{"name":"_startTime","type":"uint256","internalType":"uint256"},{"name":"_endTime","type":"uint256","internalType":"uint256"}],"outputs":[{"name":"","type":"uint256","internalType":"uint256"}],"stateMutability":"nonpayable"},{"type":"function","name":"endCampaign","inputs":[{"name":"_campaignId","type":"uint256","internalType":"uint256"}],"outputs":[],"stateMutability":"nonpayable"},{"type":"function","name":"getCampaign","inputs":[{"name":"_campaignId","type":"uint256","internalType":"uint256"}],"outputs":[{"name":"","type":"tuple","internalType":"struct CampaignStorage.Campaign","components":[{"name":"id","type":"uint256","internalType":"uint256"},{"name":"name","type":"string","internalType":"string"},{"name":"host","type":"address","internalType":"address"},{"name":"startTime","type":"uint256","internalType":"uint256"},{"name":"endTime","type":"uint256","internalType":"uint256"},{"name":"status","type":"uint8","internalType":"enum CampaignStorage.CampaignStatus"},{"name":"tasks","type":"tuple[]","internalType":"struct CampaignStorage.CampaignTask[]","components":[{"name":"taskType","type":"uint8","internalType":"enum CampaignStorage.TaskType"},{"name":"description","type":"string","internalType":"string"},{"name":"verificationData","type":"bytes","internalType":"bytes"},{"name":"isOptional","type":"bool","internalType":"bool"}]},{"name":"reward","type":"tuple","internalType":"struct CampaignStorage.CampaignReward","components":[{"name":"rewardType","type":"uint8","internalType":"enum CampaignStorage.RewardType"},{"name":"tokenAddress","type":"address","internalType":"address"},{"name":"amountOrTokenId","type":"uint256","internalType":"uint256"}]},{"name":"createdAt","type":"uint224","internalType":"uint224"},{"name":"totalParticipants","type":"uint256","internalType":"uint256"}]}],"stateMutability":"view"},{"type":"function","name":"getCampaignCount","inputs":[],"outputs":[{"name":"","type":"uint256","internalType":"uint256"}],"stateMutability":"view"},{"type":"function","name":"getCampaignTask","inputs":[{"name":"_campaignId","type":"uint256","internalType":"uint256"},{"name":"_taskIndex","type":"uint256","internalType":"uint256"}],"outputs":[{"name":"","type":"tuple","internalType":"struct CampaignStorage.CampaignTask","components":[{"name":"taskType","type":"uint8","internalType":"enum CampaignStorage.TaskType"},{"name":"description","type":"string","internalType":"string"},{"name":"verificationData","type":"bytes","internalType":"bytes"},{"name":"isOptional","type":"bool","internalType":"bool"}]}],"stateMutability":"view"},{"type":"function","name":"getCampaignsByHost","inputs":[{"name":"_host","type":"address","internalType":"address"}],"outputs":[{"name":"","type":"uint256[]","internalType":"uint256[]"}],"stateMutability":"view"},{"type":"function","name":"getRoleAdmin","inputs":[{"name":"role","type":"bytes32","internalType":"bytes32"}],"outputs":[{"name":"","type":"bytes32","internalType":"bytes32"}],"stateMutability":"view"},{"type":"function","name":"grantHostRole","inputs":[{"name":"_account","type":"address","internalType":"address"}],"outputs":[],"stateMutability":"nonpayable"},{"type":"function","name":"grantRole","inputs":[{"name":"role","type":"bytes32","internalType":"bytes32"},{"name":"account","type":"address","internalType":"address"}],"outputs":[],"stateMutability":"nonpayable"},{"type":"function","name":"hasClaimedReward","inputs":[{"name":"_campaignId","type":"uint256","internalType":"uint256"},{"name":"_participant","type":"address","internalType":"address"}],"outputs":[{"name":"","type":"bool","internalType":"bool"}],"stateMutability":"view"},{"type":"function","name":"hasCompletedTask","inputs":[{"name":"_campaignId","type":"uint256","internalType":"uint256"},{"name":"_participant","type":"address","internalType":"address"},{"name":"_taskIndex","type":"uint256","internalType":"uint256"}],"outputs":[{"name":"","type":"bool","internalType":"bool"}],"stateMutability":"view"},{"type":"function","name":"hasParticipated","inputs":[{"name":"_campaignId","type":"uint256","internalType":"uint256"},{"name":"_participant","type":"address","internalType":"address"}],"outputs":[{"name":"","type":"bool","internalType":"bool"}],"stateMutability":"view"},{"type":"function","name":"hasRole","inputs":[{"name":"role","type":"bytes32","internalType":"bytes32"},{"name":"account","type":"address","internalType":"address"}],"outputs":[{"name":"","type":"bool","internalType":"bool"}],"stateMutability":"view"},{"type":"function","name":"openCampaign","inputs":[{"name":"_campaignId","type":"uint256","internalType":"uint256"}],"outputs":[],"stateMutability":"nonpayable"},{"type":"function","name":"renounceRole","inputs":[{"name":"role","type":"bytes32","internalType":"bytes32"},{"name":"callerConfirmation","type":"address","internalType":"address"}],"outputs":[],"stateMutability":"nonpayable"},{"type":"function","name":"revokeHostRole","inputs":[{"name":"_account","type":"address","internalType":"address"}],"outputs":[],"stateMutability":"nonpayable"},{"type":"function","name":"revokeRole","inputs":[{"name":"role","type":"bytes32","internalType":"bytes32"},{"name":"account","type":"address","internalType":"address"}],"outputs":[],"stateMutability":"nonpayable"},{"type":"function","name":"setCampaignReward","inputs":[{"name":"_campaignId","type":"uint256","internalType":"uint256"},{"name":"_rewardType","type":"uint8","internalType":"enum CampaignStorage.RewardType"},{"name":"_tokenAddress","type":"address","internalType":"address"},{"name":"_amountOrTokenId","type":"uint256","internalType":"uint256"}],"outputs":[],"stateMutability":"nonpayable"},{"type":"function","name":"supportsInterface","inputs":[{"name":"interfaceId","type":"bytes4","internalType":"bytes4"}],"outputs":[{"name":"","type":"bool","internalType":"bool"}],"stateMutability":"view"},{"type":"function","name":"verifyTaskCompletion","inputs":[{"name":"_campaignId","type":"uint256","internalType":"uint256"},{"name":"_participant","type":"address","internalType":"address"},{"name":"_taskIndex","type":"uint256","internalType":"uint256"}],"outputs":[],"stateMutability":"nonpayable"},{"type":"event","name":"CampaignCreated","inputs":[{"name":"campaignId","type":"uint256","indexed":true,"internalType":"uint256"},{"name":"host","type":"address","indexed":true,"internalType":"address"},{"name":"name","type":"string","indexed":false,"internalType":"string"},{"name":"startTime","type":"uint256","indexed":false,"internalType":"uint256"},{"name":"endTime","type":"uint256","indexed":false,"internalType":"uint256"}],"anonymous":false},{"type":"event","name":"CampaignStatusUpdated","inputs":[{"name":"campaignId","type":"uint256","indexed":true,"internalType":"uint256"},{"name":"newStatus","type":"uint8","indexed":false,"internalType":"enum CampaignStorage.CampaignStatus"}],"anonymous":false},{"type":"event","name":"ParticipantTaskCompleted","inputs":[{"name":"campaignId","type":"uint256","indexed":true,"internalType":"uint256"},{"name":"participant","type":"address","indexed":true,"internalType":"address"},{"name":"taskId","type":"uint256","indexed":true,"internalType":"uint256"}],"anonymous":false},{"type":"event","name":"RewardClaimed","inputs":[{"name":"campaignId","type":"uint256","indexed":true,"internalType":"uint256"},{"name":"participant","type":"address","indexed":true,"internalType":"address"},{"name":"rewardType","type":"uint8","indexed":false,"internalType":"enum CampaignStorage.RewardType"},{"name":"tokenAddress","type":"address","indexed":false,"internalType":"address"},{"name":"amountOrTokenId","type":"uint256","indexed":false,"internalType":"uint256"}],"anonymous":false},{"type":"event","name":"RewardSet","inputs":[{"name":"campaignId","type":"uint256","indexed":true,"internalType":"uint256"},{"name":"rewardType","type":"uint8","indexed":false,"internalType":"enum CampaignStorage.RewardType"},{"name":"tokenAddress","type":"address","indexed":false,"internalType":"address"},{"name":"amountOrTokenId","type":"uint256","indexed":false,"internalType":"uint256"}],"anonymous":false},{"type":"event","name":"RoleAdminChanged","inputs":[{"name":"role","type":"bytes32","indexed":true,"internalType":"bytes32"},{"name":"previousAdminRole","type":"bytes32","indexed":true,"internalType":"bytes32"},{"name":"newAdminRole","type":"bytes32","indexed":true,"internalType":"bytes32"}],"anonymous":false},{"type":"event","name":"RoleGranted","inputs":[{"name":"role","type":"bytes32","indexed":true,"internalType":"bytes32"},{"name":"account","type":"address","indexed":true,"internalType":"address"},{"name":"sender","type":"address","indexed":true,"internalType":"address"}],"anonymous":false},{"type":"event","name":"RoleRevoked","inputs":[{"name":"role","type":"bytes32","indexed":true,"internalType":"bytes32"},{"name":"account","type":"address","indexed":true,"internalType":"address"},{"name":"sender","type":"address","indexed":true,"internalType":"address"}],"anonymous":false},{"type":"event","name":"TaskAddedToCampaign","inputs":[{"name":"campaignId","type":"uint256","indexed":true,"internalType":"uint256"},{"name":"taskId","type":"uint256","indexed":true,"internalType":"uint256"},{"name":"taskType","type":"uint8","indexed":false,"internalType":"enum CampaignStorage.TaskType"},{"name":"description","type":"string","indexed":false,"internalType":"string"}],"anonymous":false},{"type":"error","name":"AccessControlBadConfirmation","inputs":[]},{"type":"error","name":"AccessControlUnauthorizedAccount","inputs":[{"name":"account","type":"address","internalType":"address"},{"name":"neededRole","type":"bytes32","internalType":"bytes32"}]},{"type":"error","name":"Web3Campaigns__AllTasksNotCompleted","inputs":[]},{"type":"error","name":"Web3Campaigns__AlreadyClaimed","inputs":[]},{"type":"error","name":"Web3Campaigns__CallerIsNotHost","inputs":[]},{"type":"error","name":"Web3Campaigns__CampaignAlreadyEnded","inputs":[]},{"type":"error","name":"Web3Campaigns__CampaignAlreadyStarted","inputs":[]},{"type":"error","name":"Web3Campaigns__CampaignEnded","inputs":[]},{"type":"error","name":"Web3Campaigns__CampaignNotFound","inputs":[]},{"type":"error","name":"Web3Campaigns__CampaignNotOpen","inputs":[]},{"type":"error","name":"Web3Campaigns__CampaignNotYetEnded","inputs":[]},{"type":"error","name":"Web3Campaigns__CampaignStartTimeNotYetStrated","inputs":[]},{"type":"error","name":"Web3Campaigns__ERC20TransferFailed","inputs":[]},{"type":"error","name":"Web3Campaigns__ERC721TransferFailed","inputs":[]},{"type":"error","name":"Web3Campaigns__InsufficientERC20Allowance","inputs":[]},{"type":"error","name":"Web3Campaigns__InsufficientERC20Balance","inputs":[]},{"type":"error","name":"Web3Campaigns__InvalidCampaignDuration","inputs":[]},{"type":"error","name":"Web3Campaigns__InvalidRewardAmount","inputs":[]},{"type":"error","name":"Web3Campaigns__InvalidRewardType","inputs":[]},{"type":"error","name":"Web3Campaigns__InvalidTaskType","inputs":[]},{"type":"error","name":"Web3Campaigns__InvalidVerificationData","inputs":[]},{"type":"error","name":"Web3Campaigns__NoRewardSet","inputs":[]},{"type":"error","name":"Web3Campaigns__NotHoldingSpecificERC721","inputs":[]},{"type":"error","name":"Web3Campaigns__PosterCannotAcceptOwnTask","inputs":[]},{"type":"error","name":"Web3Campaigns__RewardAlreadySet","inputs":[]},{"type":"error","name":"Web3Campaigns__TaskAlreadyCompleted","inputs":[]},{"type":"error","name":"Web3Campaigns__TaskNotFound","inputs":[]},{"type":"error","name":"Web3Campaigns__TaskNotVerifiableByHost","inputs":[]},{"type":"error","name":"Web3Campaigns__TransferFailed","inputs":[]}],"bytecode":{"object":"0x60806040523461002757610011610036565b61001961002c565b6147cd6102b282396147cd90f35b610032565b60405190565b5f80fd5b61003e610040565b565b61004861004a565b565b6100526100ab565b565b90565b90565b5f1b90565b61007361006e61007892610054565b61005a565b610057565b90565b6100845f61005f565b90565b7fffea912cee438c2ace68bb665a205db5afc1aaf31713688b377348fe4bfc04f590565b6100bd6100b661007b565b33906101a0565b506100d06100c9610087565b33906101a0565b50565b5f90565b151590565b6100e590610057565b90565b906100f2906100dc565b5f5260205260405f2090565b60018060a01b031690565b90565b61012061011b610125926100fe565b610109565b6100fe565b90565b6101319061010c565b90565b61013d90610128565b90565b9061014a90610134565b5f5260205260405f2090565b9061016260ff9161005a565b9181191691161790565b610175906100d7565b90565b90565b9061019061018b6101979261016c565b610178565b8254610156565b9055565b5f0190565b6101a86100d3565b506101bd6101b7828490610277565b156100d7565b5f14610245576101e460016101df5f6101d78186906100e8565b018590610140565b61017b565b906101ed6102a4565b9061022a61022461021e7f2f8788117e7eff1d82e926ec794901d17c78024a50270940304540a733656f0d956100dc565b92610134565b92610134565b9261023361002c565b8061023d8161019b565b0390a4600190565b50505f90565b5f1c90565b60ff1690565b6102626102679161024b565b610250565b90565b6102749054610256565b90565b61029d915f6102926102989361028b6100d3565b50826100e8565b01610140565b61026a565b90565b5f90565b6102ac6102a0565b50339056fe60806040526004361015610010575b005b61001a5f356101b9565b806301ffc9a7146101b45780630ec9ea17146101af5780630f717b08146101aa578063108c8ae4146101a5578063248a9ca3146101a05780632f2ff15d1461019b5780633020580b1461019657806336568abe146101915780633c3566cd1461018c5780635598f8cc1461018757806368e978b1146101825780636caa92181461017d5780636d574491146101785780636efa024a1461017357806391d148541461016e578063a217fddf14610169578063a34398a214610164578063ae169a501461015f578063afbce5fd1461015a578063b0e1c1e114610155578063c8b727a114610150578063cafa436b1461014b578063cfebabe614610146578063d547741f14610141578063dd0408ae1461013c5763f20cb1a90361000e5761111c565b6110e9565b6110b5565b61107f565b61104b565b610fdb565b610fa8565b610f71565b610dfb565b610dc5565b610d63565b610cf2565b610cbc565b610c1d565b610be8565b610bb3565b610b40565b6107ab565b610714565b6106de565b61054b565b6104e9565b61044f565b6103ed565b6102c3565b610245565b60e01c90565b60405190565b5f80fd5b5f80fd5b5f80fd5b63ffffffff60e01b1690565b6101e6816101d1565b036101ed57565b5f80fd5b905035906101fe826101dd565b565b9060208282031261021957610216915f016101f1565b90565b6101c9565b151590565b61022c9061021e565b9052565b9190610243905f60208501940190610223565b565b346102755761027161026061025b366004610200565b611153565b6102686101bf565b91829182610230565b0390f35b6101c5565b90565b6102868161027a565b0361028d57565b5f80fd5b9050359061029e8261027d565b565b906020828203126102b9576102b6915f01610291565b90565b6101c9565b5f0190565b346102f1576102db6102d63660046102a0565b611375565b6102e36101bf565b806102ed816102be565b0390f35b6101c5565b60018060a01b031690565b61030a906102f6565b90565b61031681610301565b0361031d57565b5f80fd5b9050359061032e8261030d565b565b9060208282031261034957610346915f01610321565b90565b6101c9565b5190565b60209181520190565b60200190565b61036a9061027a565b9052565b9061037b81602093610361565b0190565b60200190565b906103a261039c6103958461034e565b8093610352565b9261035b565b905f5b8181106103b25750505090565b9091926103cb6103c5600192865161036e565b9461037f565b91019190916103a5565b6103ea9160208201915f818403910152610385565b90565b3461041d57610419610408610403366004610330565b61148a565b6104106101bf565b918291826103d5565b0390f35b6101c5565b919060408382031261044a578061043e610447925f8601610291565b93602001610291565b90565b6101c9565b3461047e57610468610462366004610422565b906118cf565b6104706101bf565b8061047a816102be565b0390f35b6101c5565b90565b61048f81610483565b0361049657565b5f80fd5b905035906104a782610486565b565b906020828203126104c2576104bf915f0161049a565b90565b6101c9565b6104d090610483565b9052565b91906104e7905f602085019401906104c7565b565b34610519576105156105046104ff3660046104a9565b611e5c565b61050c6101bf565b918291826104d4565b0390f35b6101c5565b9190604083820312610546578061053a610543925f860161049a565b93602001610321565b90565b6101c9565b3461057a5761056461055e36600461051e565b90611ea7565b61056c6101bf565b80610576816102be565b0390f35b6101c5565b5f80fd5b5f80fd5b601f801991011690565b634e487b7160e01b5f52604160045260245ffd5b906105af90610587565b810190811067ffffffffffffffff8211176105c957604052565b610591565b906105e16105da6101bf565b92836105a5565b565b67ffffffffffffffff8111610601576105fd602091610587565b0190565b610591565b90825f939282370152565b90929192610626610621826105e3565b6105ce565b938185526020850190828401116106425761064092610606565b565b610583565b9080601f830112156106655781602061066293359101610611565b90565b61057f565b90916060828403126106b7575f82013567ffffffffffffffff81116106b257610698846106af928501610647565b936106a68160208601610291565b93604001610291565b90565b6101cd565b6101c9565b6106c59061027a565b9052565b91906106dc905f602085019401906106bc565b565b3461070f5761070b6106fa6106f436600461066a565b91612edc565b6107026101bf565b918291826106c9565b0390f35b6101c5565b346107435761072d61072736600461051e565b90612ef2565b6107356101bf565b8061073f816102be565b0390f35b6101c5565b6004111561075257565b5f80fd5b9050359061076382610748565b565b6080818303126107a65761077b825f8301610291565b926107a361078c8460208501610756565b9361079a8160408601610321565b93606001610291565b90565b6101c9565b346107dd576107c76107be366004610765565b92919091613120565b6107cf6101bf565b806107d9816102be565b0390f35b6101c5565b5190565b60209181520190565b90825f9392825e0152565b61081961082260209361082793610810816107e2565b938480936107e6565b958691016107ef565b610587565b0190565b61083490610301565b9052565b634e487b7160e01b5f52602160045260245ffd5b6004111561085657565b610838565b906108658261084c565b565b6108709061085b565b90565b61087c90610867565b9052565b5190565b60209181520190565b60200190565b6009111561089d57565b610838565b906108ac82610893565b565b6108b7906108a2565b90565b6108c3906108ae565b9052565b5190565b60209181520190565b6108f36108fc602093610901936108ea816108c7565b938480936108cb565b958691016107ef565b610587565b0190565b61090e9061021e565b9052565b9061096390606080610958610946608085016109345f8901515f8801906108ba565b602088015186820360208801526107fa565b604087015185820360408701526108d4565b940151910190610905565b90565b9061097091610912565b90565b60200190565b9061098d61098683610880565b8092610884565b908161099e6020830284019461088d565b925f915b8383106109b157505050505090565b909192939460206109d36109cd83856001950387528951610966565b97610973565b93019301919392906109a2565b600411156109ea57565b610838565b906109f9826109e0565b565b610a04906109ef565b90565b610a10906109fb565b9052565b90604080610a4893610a2c5f8201515f860190610a07565b610a3e6020820151602086019061082b565b0151910190610361565b565b60018060e01b031690565b610a5e90610a4a565b9052565b90610b2590610160610120610af4610a9a6101808501610a885f8901515f880190610361565b602088015186820360208801526107fa565b610aac6040880151604087019061082b565b610abe60608801516060870190610361565b610ad060808801516080870190610361565b610ae260a088015160a0870190610873565b60c087015185820360c0870152610979565b94610b0760e082015160e0860190610a14565b610b1b610100820151610140860190610a55565b0151910190610361565b90565b610b3d9160208201915f818403910152610a62565b90565b34610b7057610b6c610b5b610b563660046102a0565b6135a4565b610b636101bf565b91829182610b28565b0390f35b6101c5565b5f910312610b7f57565b6101c9565b7fffea912cee438c2ace68bb665a205db5afc1aaf31713688b377348fe4bfc04f590565b610bb0610b84565b90565b34610be357610bc3366004610b75565b610bdf610bce610ba8565b610bd66101bf565b918291826104d4565b0390f35b6101c5565b34610c1857610bf8366004610b75565b610c14610c0361360c565b610c0b6101bf565b918291826106c9565b0390f35b6101c5565b34610c4b57610c35610c30366004610330565b613651565b610c3d6101bf565b80610c47816102be565b0390f35b6101c5565b90610ca190606080610c96610c8460808501610c725f8901515f8801906108ba565b602088015186820360208801526107fa565b604087015185820360408701526108d4565b940151910190610905565b90565b610cb99160208201915f818403910152610c50565b90565b34610ced57610ce9610cd8610cd2366004610422565b90613667565b610ce06101bf565b91829182610ca4565b0390f35b6101c5565b34610d2357610d1f610d0e610d0836600461051e565b9061373d565b610d166101bf565b91829182610230565b0390f35b6101c5565b90565b5f1b90565b610d44610d3f610d4992610d28565b610d2b565b610483565b90565b610d555f610d30565b90565b610d60610d4c565b90565b34610d9357610d73366004610b75565b610d8f610d7e610d58565b610d866101bf565b918291826104d4565b0390f35b6101c5565b9190604083820312610dc05780610db4610dbd925f8601610291565b93602001610321565b90565b6101c9565b34610df657610df2610de1610ddb366004610d98565b90613766565b610de96101bf565b91829182610230565b0390f35b6101c5565b34610e2957610e13610e0e3660046102a0565b61383a565b610e1b6101bf565b80610e25816102be565b0390f35b6101c5565b60091115610e3857565b5f80fd5b90503590610e4982610e2e565b565b67ffffffffffffffff8111610e6957610e65602091610587565b0190565b610591565b90929192610e83610e7e82610e4b565b6105ce565b93818552602085019082840111610e9f57610e9d92610606565b565b610583565b9080601f83011215610ec257816020610ebf93359101610e6e565b90565b61057f565b610ed08161021e565b03610ed757565b5f80fd5b90503590610ee882610ec7565b565b919060a083820312610f6c57610f02815f8501610291565b92610f108260208301610e3c565b92604082013567ffffffffffffffff8111610f675783610f31918401610647565b9260608301359067ffffffffffffffff8211610f6257610f5681610f5f938601610ea4565b93608001610edb565b90565b6101cd565b6101cd565b6101c9565b34610fa357610f8d610f84366004610eea565b93929092614059565b610f956101bf565b80610f9f816102be565b0390f35b6101c5565b34610fd657610fc0610fbb3660046102a0565b61411d565b610fc86101bf565b80610fd2816102be565b0390f35b6101c5565b3461100c57611008610ff7610ff1366004610d98565b90614128565b610fff6101bf565b91829182610230565b0390f35b6101c5565b90916060828403126110465761104361102c845f8501610291565b9361103a8160208601610321565b93604001610291565b90565b6101c9565b3461107a5761106461105e366004611011565b9161441b565b61106c6101bf565b80611076816102be565b0390f35b6101c5565b346110b0576110ac61109b611095366004611011565b91614428565b6110a36101bf565b91829182610230565b0390f35b6101c5565b346110e4576110ce6110c836600461051e565b90614483565b6110d66101bf565b806110e0816102be565b0390f35b6101c5565b34611117576111016110fc3660046102a0565b614583565b6111096101bf565b80611113816102be565b0390f35b6101c5565b3461114a5761113461112f366004610330565b61458e565b61113c6101bf565b80611146816102be565b0390f35b6101c5565b5f90565b61115b61114f565b5080611176611170637965db0b60e01b6101d1565b916101d1565b14908115611183575b5090565b61118d91506145a2565b5f61117f565b61119c9061128d565b565b90565b6111b56111b06111ba9261027a565b61119e565b61027a565b90565b906111c7906111a1565b5f5260205260405f2090565b90565b5f1c90565b60ff1690565b6111ed6111f2916111d6565b6111db565b90565b6111ff90546111e1565b90565b90565b611211611216916111d6565b611202565b90565b6112239054611205565b90565b9061123260ff91610d2b565b9181191691161790565b6112459061085b565b90565b90565b9061126061125b6112679261123c565b611248565b8254611226565b9055565b61127490610867565b9052565b919061128b905f6020850194019061126b565b565b6112a161129c600283906111bd565b6111d3565b6112ad600582016111f5565b6112bf6112b95f61085b565b9161085b565b0361135957426112e26112dc6112d760038501611219565b61027a565b9161027a565b1061133d576112f69060056001910161124b565b6001906113386113267f1289cf89aaaed53d6590c1b7996ba434edb31dcbd322d0b88ff0c02f64bbdeef926111a1565b9261132f6101bf565b91829182611278565b0390a2565b5f63a1c02e1f60e01b815280611355600482016102be565b0390fd5b5f6306dd745b60e41b815280611371600482016102be565b0390fd5b61137e90611193565b565b606090565b61139961139461139e926102f6565b61119e565b6102f6565b90565b6113aa90611385565b90565b6113b6906113a1565b90565b906113c3906113ad565b5f5260205260405f2090565b5490565b60209181520190565b5f5260205f2090565b6113ef9054611205565b90565b60010190565b9061141561140f611408846113cf565b80936113d3565b926113dc565b905f5b8181106114255750505090565b90919261144561143f60019261143a876113e5565b61036e565b946113f2565b9101919091611418565b90611459916113f8565b90565b9061147c6114759261146c6101bf565b9384809261144f565b03836105a5565b565b6114879061145c565b90565b6114a16114a691611499611380565b5060056113b9565b61147e565b90565b6114bd6114b86114c292610d28565b61119e565b61027a565b90565b5490565b906114d3906113ad565b5f5260205260405f2090565b906114e9906111a1565b5f5260205260405f2090565b906114ff906111a1565b5f5260205260405f2090565b60ff1690565b61151d611522916111d6565b61150b565b90565b61152f9054611511565b90565b634e487b7160e01b5f52603260045260245ffd5b5f5260205f2090565b611558816114c5565b8210156115725761156a600491611546565b910201905f90565b611532565b90565b60ff1690565b61158c611591916111d6565b61157a565b90565b61159e9054611580565b90565b634e487b7160e01b5f52602260045260245ffd5b90600160028304921680156115d5575b60208310146115d057565b6115a1565b91607f16916115c5565b6115e990546115b5565b90565b90565b6116036115fe611608926115ec565b61119e565b61027a565b90565b5f5260205f2090565b905f929180549061162e611627836115b5565b80946108cb565b916001811690815f146116855750600114611649575b505050565b611656919293945061160b565b915f925b81841061166d57505001905f8080611644565b6001816020929593955484860152019101929061165a565b92949550505060ff19168252151560200201905f8080611644565b906116aa91611614565b90565b906116cd6116c6926116bd6101bf565b938480926116a0565b03836105a5565b565b6116d8906116ad565b90565b6116e4906102f6565b90565b6116f0816116db565b036116f757565b5f80fd5b90505190611708826116e7565b565b905051906117178261027d565b565b9190604083820312611741578061173561173e925f86016116fb565b9360200161170a565b90565b6101c9565b61174f906113a1565b90565b61175b90611385565b90565b61176790611752565b90565b611773906113a1565b90565b5f80fd5b60e01b90565b9050519061178d8261030d565b565b906020828203126117a8576117a5915f01611780565b90565b6101c9565b6117b56101bf565b3d5f823e3d90fd5b6117c690611385565b90565b6117d2906117bd565b90565b6117de906113a1565b90565b906020828203126117fa576117f7915f0161170a565b90565b6101c9565b61180890610301565b9052565b919061181f905f602085019401906117ff565b565b61182a9061021e565b90565b90565b9061184561184061184c92611821565b61182d565b8254611226565b9055565b9061185a906113ad565b5f5260205260405f2090565b634e487b7160e01b5f52601160045260245ffd5b6118839061027a565b5f1981146118915760010190565b611866565b906118a25f1991610d2b565b9181191691161790565b90565b906118c46118bf6118cb926111a1565b6118ac565b8254611896565b9055565b6118e36118de600283906111bd565b6111d3565b6118ee5f8201611219565b6119006118fa5f6114a9565b9161027a565b14611df657611911600582016111f5565b61192461191e600161085b565b9161085b565b03611dda574261194761194161193c60048501611219565b61027a565b9161027a565b11611dbf578261196a61196461195f600685016114c5565b61027a565b9161027a565b1015611da35761199861199361198c611985600333906114c9565b85906114df565b85906114f5565b611525565b611d87576119b36119ad60068301859061154f565b50611577565b6119be5f8201611594565b6119d16119cb60076108a2565b916108a2565b145f14611bfa576119e4600282016115df565b6119f76119f160346115ef565b9161027a565b03611bde57611a356020611a3f611a3a611a2e611a196002611a6997016116cf565b84611a23826108c7565b818301019101611719565b9490611746565b6117c9565b6117d5565b6370a0823190611a5e3392611a526101bf565b9687948593849361177a565b83526004830161180c565b03915afa918215611bd9575f92611ba1575b50611a88611a8e9161027a565b9161027a565b10611b85575b611abe6001611ab9611ab2611aab600333906114c9565b86906114df565b86906114f5565b611830565b611ae5611adf611ada611ad360063390611850565b85906114f5565b611525565b1561021e565b611b41575b509033611b29611b23611b1d7f67cf8439b7b4e38eb8bbfb33a19e4f9b9b8b3fae5c79a1c4780c12e649e64b28956111a1565b926113ad565b926111a1565b92611b326101bf565b80611b3c816102be565b0390a4565b600a611b7f91611b676001611b62611b5b60063390611850565b87906114f5565b611830565b01611b79611b7482611219565b61187a565b906118af565b5f611aea565b5f638b1e418760e01b815280611b9d600482016102be565b0390fd5b611a8e919250611bca611a889160203d8111611bd2575b611bc281836105a5565b8101906117e1565b929150611a7b565b503d611bb8565b6117ad565b5f6373074c4b60e11b815280611bf6600482016102be565b0390fd5b611c055f8201611594565b611c18611c1260086108a2565b916108a2565b145f14611d4857611c2b600282016115df565b611c3e611c3860346115ef565b9161027a565b03611d2c576020611c7c611c86611c81611c75611c606002611cad97016116cf565b85611c6a826108c7565b818301019101611719565b9390611746565b61175e565b61176a565b611ca2636352211e611c966101bf565b9586948593849361177a565b8352600483016106c9565b03915afa908115611d27575f91611cf9575b50611cd2611ccc33610301565b91610301565b03611cdd575b611a94565b5f633d28cf7360e01b815280611cf5600482016102be565b0390fd5b611d1a915060203d8111611d20575b611d1281836105a5565b81019061178f565b5f611cbf565b503d611d08565b6117ad565b5f6373074c4b60e11b815280611d44600482016102be565b0390fd5b5f611d539101611594565b611d66611d6060066108a2565b916108a2565b03611cd8575f631e3072cd60e31b815280611d83600482016102be565b0390fd5b5f6353d366db60e11b815280611d9f600482016102be565b0390fd5b5f631d1ac06360e01b815280611dbb600482016102be565b0390fd5b5f62ae1e5560e31b815280611dd6600482016102be565b0390fd5b5f6363b4791760e01b815280611df2600482016102be565b0390fd5b5f630f5611a960e01b815280611e0e600482016102be565b0390fd5b5f90565b611e1f90610483565b90565b90611e2c90611e16565b5f5260205260405f2090565b90565b611e47611e4c916111d6565b611e38565b90565b611e599054611e3b565b90565b6001611e74611e7a92611e6d611e12565b505f611e22565b01611e4f565b90565b90611e9891611e93611e8e82611e5c565b6145c8565b611e9a565b565b90611ea4916145dc565b50565b90611eb191611e7d565b565b5f90565b90611ed3939291611ece611ec9610b84565b6145c8565b612cae565b90565b67ffffffffffffffff8111611eee5760208091020190565b610591565b90611f05611f0083611ed6565b6105ce565b918252565b611f1460806105ce565b90565b5f90565b606090565b606090565b5f90565b611f31611f0a565b90602080808085611f40611f17565b815201611f4b611f1b565b815201611f56611f20565b815201611f61611f25565b81525050565b611f6f611f29565b90565b5f5b828110611f8057505050565b602090611f8b611f67565b8184015201611f74565b90611fba611fa283611ef3565b92602080611fb08693611ed6565b9201910390611f72565b565b611fd0611fcb611fd592610d28565b61119e565b6102f6565b90565b611fe190611fbc565b90565b611fee60606105ce565b90565b90611ffb906109ef565b9052565b9061200990610301565b9052565b906120179061027a565b9052565b61202f61202a6120349261027a565b61119e565b610a4a565b90565b6120426101406105ce565b90565b52565b906120529061085b565b9052565b52565b52565b9061206690610a4a565b9052565b634e487b7160e01b5f525f60045260245ffd5b612087905161027a565b90565b5190565b5f5260205f2090565b601f602091010490565b1b90565b919060086120c09102916120ba5f19846120a1565b926120a1565b9181191691161790565b91906120e06120db6120e8936111a1565b6118ac565b9083546120a5565b9055565b6120fe916120f8611eb3565b916120ca565b565b5b81811061210c575050565b806121195f6001936120ec565b01612101565b9190601f811161212f575b505050565b61213b6121609361208e565b90602061214784612097565b83019310612168575b61215990612097565b0190612100565b5f808061212a565b915061215981929050612150565b1c90565b9061218a905f1990600802612176565b191690565b816121999161217a565b906002021790565b906121ab816107e2565b9067ffffffffffffffff821161226b576121cf826121c985546115b5565b8561211f565b602090601f8311600114612203579180916121f2935f926121f7575b505061218f565b90555b565b90915001515f806121eb565b601f198316916122128561208e565b925f5b81811061225357509160029391856001969410612239575b505050020190556121f5565b612249910151601f84169061217a565b90555f808061222d565b91936020600181928787015181550195019201612215565b610591565b9061227a916121a1565b565b6122869051610301565b90565b9061229a60018060a01b0391610d2b565b9181191691161790565b90565b906122bc6122b76122c3926113ad565b6122a4565b8254612289565b9055565b6122d1905161085b565b90565b5190565b6122e76122ed9193929361027a565b9261027a565b916122f983820261027a565b92818404149015171561230857565b611866565b6123189060046122d8565b90565b9061232e905f1990602003600802612176565b8154169055565b905f9161234c6123448261208e565b92835461218f565b905555565b919290602082105f146123aa57601f841160011461237a5761237492935061218f565b90555b5b565b50906123a06123a59360016123976123918561208e565b92612097565b82019101612100565b612335565b612377565b506123e182936123bb60019461208e565b6123da6123c785612097565b820192601f8616806123ec575b50612097565b0190612100565b600202179055612378565b6123f89088860361231b565b5f6123d4565b92909168010000000000000000821161245e576020115f1461244f57602081105f146124335761242d9161218f565b90555b5b565b60019160ff19166124438461208e565b55600202019055612430565b60019150600202019055612431565b610591565b90815461246f816115b5565b90818311612498575b818310612486575b50505050565b61248f93612351565b5f808080612480565b6124a4838383876123fe565b612478565b5f6124b391612463565b565b905f036124c7576124c5906124a9565b565b61206a565b905f916124e36124db8261160b565b92835461218f565b905555565b919290602082105f1461254157601f84116001146125115761250b92935061218f565b90555b5b565b509061253761253c93600161252e6125288561160b565b92612097565b82019101612100565b6124cc565b61250e565b50612578829361255260019461160b565b61257161255e85612097565b820192601f861680612583575b50612097565b0190612100565b60020217905561250f565b61258f9088860361231b565b5f61256b565b9290916801000000000000000082116125f5576020115f146125e657602081105f146125ca576125c49161218f565b90555b5b565b60019160ff19166125da8461160b565b556002020190556125c7565b600191506002020190556125c8565b610591565b908154612606816115b5565b9081831161262f575b81831061261d575b50505050565b612626936124e8565b5f808080612617565b61263b83838387612595565b61260f565b5f61264a916125fa565b565b905f0361265e5761265c90612640565b565b61206a565b60035f91828082015561267983600183016124b5565b612686836002830161264c565b0155565b905f0361269c5761269a90612663565b565b61206a565b5b8181106126ad575050565b806126ba5f60049361268a565b016126a2565b90918281106126cf575b505050565b6126ed6126e76126e16126f89561230d565b9261230d565b92611546565b9182019101906126a1565b5f80806126ca565b90680100000000000000008111612729578161271e612727936114c5565b908281556126c0565b565b610591565b5190565b61273c90516108a2565b90565b612748906108a2565b90565b90565b9061276361275e61276a9261273f565b61274b565b8254611226565b9055565b5190565b9190601f8111612782575b505050565b61278e6127b39361160b565b90602061279a84612097565b830193106127bb575b6127ac90612097565b0190612100565b5f808061277d565b91506127ac819290506127a3565b906127d3816108c7565b9067ffffffffffffffff8211612893576127f7826127f185546115b5565b85612772565b602090601f831160011461282b5791809161281a935f9261281f575b505061218f565b90555b565b90915001515f80612813565b601f1983169161283a8561160b565b925f5b81811061287b57509160029391856001969410612861575b5050500201905561281d565b612871910151601f84169061217a565b90555f8080612855565b9193602060018192878701518155019501920161283d565b610591565b906128a2916127c9565b565b6128ae905161021e565b90565b9061290e60606003612914946128d45f82016128ce5f8801612732565b9061274e565b6128ed600182016128e76020880161208a565b90612270565b612906600282016129006040880161276e565b90612898565b0192016128a4565b90611830565b565b90612920916128b1565b565b61294761294161293184610880565b9361293c8585612700565b61088d565b91611546565b5f915b8383106129575750505050565b600460208261297061296a60019561272e565b86612916565b0192019201919061294a565b9061298691612922565b565b5190565b61299690516109ef565b90565b6129a2906109ef565b90565b90565b906129bd6129b86129c492612999565b6129a5565b8254611226565b9055565b60081b90565b906129e1610100600160a81b03916129c8565b9181191691161790565b90612a006129fb612a07926113ad565b6122a4565b82546129ce565b9055565b90612a4e60406001612a5494612a2e5f8201612a285f880161298c565b906129a8565b612a465f8201612a406020880161227c565b906129eb565b01920161207d565b906118af565b565b90612a6091612a0b565b565b612a6c9051610a4a565b90565b90612a8060018060e01b0391610d2b565b9181191691161790565b612a9e612a99612aa392610a4a565b61119e565b610a4a565b90565b90565b90612abe612ab9612ac592612a8a565b612aa6565b8254612a6f565b9055565b90612bbe610120600a612bc494612aed5f8201612ae75f880161207d565b906118af565b612b0660018201612b006020880161208a565b90612270565b612b1f60028201612b196040880161227c565b906122a7565b612b3860038201612b326060880161207d565b906118af565b612b5160048201612b4b6080880161207d565b906118af565b612b6a60058201612b6460a088016122c7565b9061124b565b612b8360068201612b7d60c088016122d4565b9061297c565b612b9c60078201612b9660e08801612988565b90612a56565b612bb660098201612bb06101008801612a62565b90612aa9565b01920161207d565b906118af565b565b90612bd091612ac9565b565b90565b5f5260205f2090565b5490565b612beb81612bde565b821015612c0557612bfd600191612bd5565b910201905f90565b611532565b9081549168010000000000000000831015612c3a5782612c32916001612c3895018155612be2565b906120ca565b565b610591565b60209181520190565b612c67612c70602093612c7593612c5e816107e2565b93848093612c3f565b958691016107ef565b610587565b0190565b604090612ca5612c9a612cac9597969460608401908482035f860152612c48565b9660208301906106bc565b01906106bc565b565b5081612cc2612cbc4261027a565b9161027a565b1115612ec05782612cdb612cd58461027a565b9161027a565b1115612ea457612ceb6001611219565b612cf49061187a565b612cff9060016118af565b612d096001611219565b9283823385845f5f612d1a906114a9565b612d2390611f95565b915f935f612d3090611fd8565b5f90612d3a611fe4565b965f880190612d4891611ff1565b6020870190612d5691611fff565b612d5f906114a9565b6040860190612d6d9161200d565b42612d779061201b565b955f97612d82612037565b995f8b0190612d909161200d565b60208a0190612d9e91612045565b6040890190612dac91611fff565b6060880190612dba9161200d565b6080870190612dc89161200d565b60a0860190612dd691612048565b60c0850190612de491612056565b60e0840190612df291612059565b610100830190612e019161205c565b612e0a906114a9565b610120820190612e199161200d565b600285612e25916111bd565b90612e2f91612bc6565b600533612e3b916113b9565b612e4490612bd2565b84612e4e91612c0a565b83903392937fdc26653af5b99b2da33e2ad69ee6600d9aeccc82b034501db4338309615ca23892612e7e906111a1565b93612e88906113ad565b94612e916101bf565b928392612e9e9284612c79565b0390a390565b5f6323223fc360e01b815280612ebc600482016102be565b0390fd5b5f63a1c02e1f60e01b815280612ed8600482016102be565b0390fd5b90612eef9291612eea611eb3565b611eb7565b90565b9080612f0d612f07612f0261468b565b610301565b91610301565b03612f1e57612f1b91614698565b50565b5f63334bd91960e11b815280612f36600482016102be565b0390fd5b90612f46939291612fae565b565b60ff1690565b612f5a612f5f916111d6565b612f48565b90565b612f6c9054612f4e565b90565b612f78906109fb565b9052565b604090612fa5612fac9496959396612f9b60608401985f850190612f6f565b60208301906117ff565b01906106bc565b565b92909192612fc6612fc1600283906111bd565b6111d3565b612fd2600582016111f5565b612fe4612fde5f61085b565b9161085b565b0361310457612ff75f6007830101612f62565b6130096130035f6109ef565b916109ef565b036130e8578361302161301b5f6109ef565b916109ef565b14806130cd575b6130b15761306990600785916130638861305a8891613051613048611fe4565b975f8901611ff1565b60208701611fff565b6040850161200d565b01612a56565b919290926130ac61309a7fc07a9b3aaa057840b17ed5326fe739d11c2a7ffc46914aee58495f51fc76371a946111a1565b946130a36101bf565b93849384612f7c565b0390a2565b5f63203cde7560e01b8152806130c9600482016102be565b0390fd5b50826130e16130db5f6114a9565b9161027a565b1415613028565b5f63790f062760e01b815280613100600482016102be565b0390fd5b5f6306dd745b60e41b81528061311c600482016102be565b0390fd5b9061312c939291612f3a565b565b6131396101406105ce565b90565b5f90565b5f90565b5f90565b606090565b61315760606105ce565b90565b5f90565b61316661314d565b90602080808461317461315a565b81520161317f613140565b81520161318a61313c565b81525050565b61319861315e565b90565b5f90565b6131a761312e565b9060208080808080808080808b6131bc61313c565b8152016131c7611f1b565b8152016131d2613140565b8152016131dd61313c565b8152016131e861313c565b8152016131f3613144565b8152016131fe613148565b815201613209613190565b81520161321461319b565b81520161321f61313c565b81525050565b61322d61319f565b90565b905f929180549061324a613243836115b5565b80946107e6565b916001811690815f146132a15750600114613265575b505050565b613272919293945061208e565b915f925b81841061328957505001905f8080613260565b60018160209295939554848601520191019290613276565b92949550505060ff19168252151560200201905f8080613260565b906132c691613230565b90565b906132e96132e2926132d96101bf565b938480926132bc565b03836105a5565b565b60018060a01b031690565b613302613307916111d6565b6132eb565b90565b61331490546132f6565b90565b90613321906108a2565b9052565b52565b906133329061021e565b9052565b9061339d6133946003613347611f0a565b9461335e6133565f8301611594565b5f8801613317565b61337661336d600183016132c9565b60208801612045565b61338e613385600283016116ad565b60408801613325565b01611525565b60608401613328565b565b6133a890613336565b90565b906133b5826114c5565b6133be81611ef3565b926133cc6020850191611546565b5f915b8383106133dc5750505050565b600460206001926133ec8561339f565b8152019201920191906133cf565b60081c90565b61340c613411916133fa565b6132eb565b90565b61341e9054613400565b90565b9061346f613466600161343261314d565b946134496134415f8301612f62565b5f8801611ff1565b6134606134575f8301613414565b60208801611fff565b01611219565b6040840161200d565b565b60018060e01b031690565b61348861348d916111d6565b613471565b90565b61349a905461347c565b90565b9061359661358c600a6134ae61312e565b946134c56134bd5f8301611219565b5f880161200d565b6134dd6134d4600183016132c9565b60208801612045565b6134f56134ec6002830161330a565b60408801611fff565b61350d61350460038301611219565b6060880161200d565b61352561351c60048301611219565b6080880161200d565b61353d613534600583016111f5565b60a08801612048565b61355561354c600683016133ab565b60c08801612056565b61356d61356460078301613421565b60e08801612059565b61358661357c60098301613490565b610100880161205c565b01611219565b610120840161200d565b565b6135a19061349d565b90565b6135ac613225565b506135c35f6135bd600284906111bd565b01611219565b6135d56135cf5f6114a9565b9161027a565b146135f0576135e86135ed9160026111bd565b613598565b90565b5f630f5611a960e01b815280613608600482016102be565b0390fd5b613614611eb3565b5061361f6001611219565b90565b61363b90613636613631610d4c565b6145c8565b61363d565b565b61364e90613649610b84565b614698565b50565b61365a90613622565b565b613664611f29565b90565b61366f61365c565b506136865f613680600284906111bd565b01611219565b6136986136925f6114a9565b9161027a565b1461370b57816136c66136c06136bb60066136b5600287906111bd565b016114c5565b61027a565b9161027a565b10156136ef576136ec9160066136e06136e69360026111bd565b0161154f565b5061339f565b90565b5f631d1ac06360e01b815280613707600482016102be565b0390fd5b5f630f5611a960e01b815280613723600482016102be565b0390fd5b90613731906113ad565b5f5260205260405f2090565b613763915f61375861375e9361375161114f565b5082611e22565b01613727565b611525565b90565b6137869061378161378b9361377961114f565b506006611850565b6114f5565b611525565b90565b600161379a910161027a565b90565b6137a6906113a1565b90565b5f9103126137b357565b6101c9565b6040906137e16137e894969593966137d760608401985f8501906117ff565b60208301906117ff565b01906106bc565b565b91602061380b92949361380460408201965f8301906117ff565b01906117ff565b565b9050519061381a82610ec7565b565b9060208282031261383557613832915f0161380d565b90565b6101c9565b61384e613849600283906111bd565b6111d3565b6138595f8201611219565b61386b6138655f6114a9565b9161027a565b14613e0c5761387c600582016111f5565b61388f613889600261085b565b9161085b565b03613df0576138b26138ad6138a660043390611850565b84906114f5565b611525565b613dd4576138c45f6007830101612f62565b6138d66138d05f6109ef565b916109ef565b14613db8576138e45f6114a9565b5b806139036138fd6138f8600686016114c5565b61027a565b9161027a565b10156139975761392c613926600361391f60068601859061154f565b5001611525565b1561021e565b80613960575b6139445761393f9061378e565b6138e5565b5f634ca90fc760e11b81528061395c600482016102be565b0390fd5b5061399261398c613987613980613979600333906114c9565b87906114df565b84906114f5565b611525565b1561021e565b613932565b50906139b960016139b46139ad60043390611850565b84906114f5565b611830565b6139c75f6007840101612f62565b6139da6139d460016109ef565b916109ef565b145f14613c0b576139f76139f25f6007850101613414565b6117c9565b613a00816117d5565b602063dd62ed3e91613a146002870161330a565b90613a39613a213061379d565b94613a44613a2d6101bf565b9687958694859461177a565b8452600484016137ea565b03915afa908115613c06575f91613bd8575b50613a77613a71613a6c60016007880101611219565b61027a565b9161027a565b10613bbc57613a85906117d5565b60206323b872dd91613a996002860161330a565b90613ac65f3395613ad1613ab2600160078c0101611219565b613aba6101bf565b9889978896879561177a565b8552600485016137b8565b03925af18015613bb757613aed915f91613b89575b501561021e565b613b6d575b3390613b025f6007850101612f62565b92613b1f60016007613b175f82860101613414565b930101611219565b93613b68613b56613b507f189a1a0a528ab8a05000b87f489363b7178a4575aeccf52c3c0f7f6339a4585f956111a1565b956113ad565b95613b5f6101bf565b93849384612f7c565b0390a3565b5f6356cab7ef60e01b815280613b85600482016102be565b0390fd5b613baa915060203d8111613bb0575b613ba281836105a5565b81019061381c565b5f613ae6565b503d613b98565b6117ad565b5f63bade60ed60e01b815280613bd4600482016102be565b0390fd5b613bf9915060203d8111613bff575b613bf181836105a5565b8101906117e1565b5f613a56565b503d613be7565b6117ad565b613c195f6007840101612f62565b613c2c613c2660026109ef565b916109ef565b14613c37575b613af2565b613c4d613c485f6007850101613414565b61175e565b613c936020613c5b8361176a565b636352211e90613c88613c73600160078a0101611219565b92613c7c6101bf565b9586948593849361177a565b8352600483016106c9565b03915afa908115613db3575f91613d85575b50613cc0613cba613cb53061379d565b610301565b91610301565b03613d6957613cce9061176a565b6323b872dd613cdc3061379d565b3392613ced60016007880101611219565b92813b15613d64575f613d1391613d1e8296613d076101bf565b9889978896879561177a565b8552600485016137b8565b03925af18015613d5f57613d33575b50613c32565b613d52905f3d8111613d58575b613d4a81836105a5565b8101906137a9565b5f613d2d565b503d613d40565b6117ad565b611776565b5f634b35787760e11b815280613d81600482016102be565b0390fd5b613da6915060203d8111613dac575b613d9e81836105a5565b81019061178f565b5f613ca5565b503d613d94565b6117ad565b5f63290d665760e01b815280613dd0600482016102be565b0390fd5b5f631ddf0bf160e31b815280613dec600482016102be565b0390fd5b5f632c9bee3160e21b815280613e08600482016102be565b0390fd5b5f630f5611a960e01b815280613e24600482016102be565b0390fd5b90613e3594939291613f3e565b565b90565b613e4460806105ce565b90565b5f5260205f2090565b5490565b613e5d81613e50565b821015613e7757613e6f600491613e47565b910201905f90565b611532565b9190613e8d57613e8b916128b1565b565b61206a565b9081549168010000000000000000831015613ec25782613eba916001613ec095018155613e54565b90613e7c565b565b610591565b90565b613ede613ed9613ee392613ec7565b61119e565b61027a565b90565b613ef5613efb9193929361027a565b9261027a565b8203918211613f0657565b611866565b613f14906108ae565b9052565b91613f3b92613f2e60408201935f830190613f0b565b6020818403910152612c48565b90565b90929193613f56613f51600284906111bd565b6111d3565b92613f63600585016111f5565b613f75613f6f5f61085b565b9161085b565b0361403d57613fee92613fd787613fde94613fd2600695613fc9613f9a888c01613e37565b93613fc08d96939193613fb7613fae613e3a565b985f8a01613317565b60208801612045565b60408601613325565b60608401613328565b613e92565b93016114c5565b613fe86001613eca565b90613ee6565b919261402361401d7fd0664854493294a8d5634b201e2a478d08fe951d2b27278a66f49026bf2ba3b4936111a1565b936111a1565b9361403861402f6101bf565b92839283613f18565b0390a3565b5f6306dd745b60e41b815280614055600482016102be565b0390fd5b9061406694939291613e28565b565b61407190614073565b565b614087614082600283906111bd565b6111d3565b614093600582016111f5565b6140a66140a0600261085b565b9161085b565b03614101576140ba9060056003910161124b565b6003906140fc6140ea7f1289cf89aaaed53d6590c1b7996ba434edb31dcbd322d0b88ff0c02f64bbdeef926111a1565b926140f36101bf565b91829182611278565b0390a2565b5f632c9bee3160e21b815280614119600482016102be565b0390fd5b61412690614068565b565b6141489061414361414d9361413b61114f565b506004611850565b6114f5565b611525565b90565b9061415b929161415d565b565b91909161417461416f600283906111bd565b6111d3565b614180600582016111f5565b61419361418d600161085b565b9161085b565b1415806143f4575b6143d857826141bd6141b76141b2600685016114c5565b61027a565b9161027a565b10156143bc576141dc5f6141d560068401869061154f565b5001611594565b6141ef6141e960066108a2565b916108a2565b148015614389575b8015614356575b61433a5761422a61422561421e614217600388906114c9565b85906114df565b85906114f5565b611525565b61431e57614258600161425361424c614245600389906114c9565b86906114df565b86906114f5565b611830565b61427f61427961427461426d60068890611850565b85906114f5565b611525565b1561021e565b6142da575b50916142c26142bc6142b67f67cf8439b7b4e38eb8bbfb33a19e4f9b9b8b3fae5c79a1c4780c12e649e64b28956111a1565b926113ad565b926111a1565b926142cb6101bf565b806142d5816102be565b0390a4565b600a6143189161430060016142fb6142f460068a90611850565b87906114f5565b611830565b0161431261430d82611219565b61187a565b906118af565b5f614284565b5f6353d366db60e11b815280614336600482016102be565b0390fd5b5f63fdf4f64f60e01b815280614352600482016102be565b0390fd5b506143705f61436960068401869061154f565b5001611594565b61438361437d60086108a2565b916108a2565b146141fe565b506143a35f61439c60068401869061154f565b5001611594565b6143b66143b060076108a2565b916108a2565b146141f7565b5f631d1ac06360e01b8152806143d4600482016102be565b0390fd5b5f6363b4791760e01b8152806143f0600482016102be565b0390fd5b50614401600582016111f5565b61441461440e600261085b565b9161085b565b141561419b565b906144269291614150565b565b9161444c614456936144476144519461443f61114f565b5060036114c9565b6114df565b6114f5565b611525565b90565b906144749161446f61446a82611e5c565b6145c8565b614476565b565b9061448091614698565b50565b9061448d91614459565b565b6144989061449a565b565b6144ae6144a9600283906111bd565b6111d3565b6144ba600582016111f5565b6144cd6144c7600161085b565b9161085b565b0361456757426144f06144ea6144e560048501611219565b61027a565b9161027a565b1061454b576145049060056002910161124b565b6002906145466145347f1289cf89aaaed53d6590c1b7996ba434edb31dcbd322d0b88ff0c02f64bbdeef926111a1565b9261453d6101bf565b91829182611278565b0390a2565b5f632c9bee3160e21b815280614563600482016102be565b0390fd5b5f6363b4791760e01b81528061457f600482016102be565b0390fd5b61458c9061448f565b565b61459f9061459a610b84565b6145dc565b50565b6145aa61114f565b506145c46145be6301ffc9a760e01b6101d1565b916101d1565b1490565b6145da906145d461468b565b9061475c565b565b6145e461114f565b506145f96145f382849061373d565b1561021e565b5f1461468157614620600161461b5f614613818690611e22565b018590613727565b611830565b9061462961468b565b9061466661466061465a7f2f8788117e7eff1d82e926ec794901d17c78024a50270940304540a733656f0d95611e16565b926113ad565b926113ad565b9261466f6101bf565b80614679816102be565b0390a4600190565b50505f90565b5f90565b614693614687565b503390565b6146a061114f565b506146ac81839061373d565b5f14614733576146d25f6146cd5f6146c5818690611e22565b018590613727565b611830565b906146db61468b565b9061471861471261470c7ff6391f5c32d9c69d2a47ea670b442974b53935d1edc7fd64eb21e047a839171b95611e16565b926113ad565b926113ad565b926147216101bf565b8061472b816102be565b0390a4600190565b50505f90565b91602061475a92949361475360408201965f8301906117ff565b01906104c7565b565b9061477161476b83839061373d565b1561021e565b614779575050565b6147935f92839263e2517d3f60e01b845260048401614739565b0390fdfea2646970667358221220460dc7bb878a9237c0204e2a7c795d31e51dde4ca550044439379e9c200a7bff64736f6c634300081d0033","linkReferences":{}},"methodIdentifiers":{"DEFAULT_ADMIN_ROLE()":"a217fddf","HOST_ROLE()":"68e978b1","addTaskToCampaign(uint256,uint8,string,bytes,bool)":"afbce5fd","claimReward(uint256)":"ae169a50","closeCampaign(uint256)":"b0e1c1e1","completeTask(uint256,uint256)":"108c8ae4","createCampaign(string,uint256,uint256)":"3020580b","endCampaign(uint256)":"dd0408ae","getCampaign(uint256)":"5598f8cc","getCampaignCount()":"6caa9218","getCampaignTask(uint256,uint256)":"6efa024a","getCampaignsByHost(address)":"0f717b08","getRoleAdmin(bytes32)":"248a9ca3","grantHostRole(address)":"f20cb1a9","grantRole(bytes32,address)":"2f2ff15d","hasClaimedReward(uint256,address)":"c8b727a1","hasCompletedTask(uint256,address,uint256)":"cfebabe6","hasParticipated(uint256,address)":"a34398a2","hasRole(bytes32,address)":"91d14854","openCampaign(uint256)":"0ec9ea17","renounceRole(bytes32,address)":"36568abe","revokeHostRole(address)":"6d574491","revokeRole(bytes32,address)":"d547741f","setCampaignReward(uint256,uint8,address,uint256)":"3c3566cd","supportsInterface(bytes4)":"01ffc9a7","verifyTaskCompletion(uint256,address,uint256)":"cafa436b"},"id":63}