{"abi":[{"type":"constructor","inputs":[],"stateMutability":"nonpayable"},{"type":"fallback","stateMutability":"payable"},{"type":"receive","stateMutability":"payable"},{"type":"function","name":"DEFAULT_ADMIN_ROLE","inputs":[],"outputs":[{"name":"","type":"bytes32","internalType":"bytes32"}],"stateMutability":"view"},{"type":"function","name":"EMERGENCY_ADMIN","inputs":[],"outputs":[{"name":"","type":"bytes32","internalType":"bytes32"}],"stateMutability":"view"},{"type":"function","name":"HOST_ROLE","inputs":[],"outputs":[{"name":"","type":"bytes32","internalType":"bytes32"}],"stateMutability":"view"},{"type":"function","name":"JOIN_COOLDOWN","inputs":[],"outputs":[{"name":"","type":"uint256","internalType":"uint256"}],"stateMutability":"view"},{"type":"function","name":"MAX_CAMPAIGN_DURATION","inputs":[],"outputs":[{"name":"","type":"uint256","internalType":"uint256"}],"stateMutability":"view"},{"type":"function","name":"MAX_PARTICIPANTS_LIMIT","inputs":[],"outputs":[{"name":"","type":"uint256","internalType":"uint256"}],"stateMutability":"view"},{"type":"function","name":"MAX_SUSPICIOUS_SCORE","inputs":[],"outputs":[{"name":"","type":"uint256","internalType":"uint256"}],"stateMutability":"view"},{"type":"function","name":"MIN_CAMPAIGN_DURATION","inputs":[],"outputs":[{"name":"","type":"uint256","internalType":"uint256"}],"stateMutability":"view"},{"type":"function","name":"RATE_LIMIT_COOLDOWN","inputs":[],"outputs":[{"name":"","type":"uint256","internalType":"uint256"}],"stateMutability":"view"},{"type":"function","name":"VERSION","inputs":[],"outputs":[{"name":"","type":"string","internalType":"string"}],"stateMutability":"view"},{"type":"function","name":"addTaskToCampaign","inputs":[{"name":"_campaignId","type":"uint256","internalType":"uint256"},{"name":"_taskType","type":"uint8","internalType":"enum CampaignStorage.TaskType"},{"name":"_description","type":"string","internalType":"string"},{"name":"_verificationData","type":"bytes","internalType":"bytes"},{"name":"_isOptional","type":"bool","internalType":"bool"}],"outputs":[],"stateMutability":"nonpayable"},{"type":"function","name":"claimReward","inputs":[{"name":"_campaignId","type":"uint256","internalType":"uint256"}],"outputs":[],"stateMutability":"nonpayable"},{"type":"function","name":"closeCampaign","inputs":[{"name":"_campaignId","type":"uint256","internalType":"uint256"}],"outputs":[],"stateMutability":"nonpayable"},{"type":"function","name":"completeTask","inputs":[{"name":"_campaignId","type":"uint256","internalType":"uint256"},{"name":"_taskIndex","type":"uint256","internalType":"uint256"}],"outputs":[],"stateMutability":"nonpayable"},{"type":"function","name":"createCampaign","inputs":[{"name":"_name","type":"string","internalType":"string"},{"name":"_startTime","type":"uint256","internalType":"uint256"},{"name":"_endTime","type":"uint256","internalType":"uint256"}],"outputs":[{"name":"","type":"uint256","internalType":"uint256"}],"stateMutability":"nonpayable"},{"type":"function","name":"emergencyPause","inputs":[],"outputs":[],"stateMutability":"nonpayable"},{"type":"function","name":"emergencyUnpause","inputs":[],"outputs":[],"stateMutability":"nonpayable"},{"type":"function","name":"endCampaign","inputs":[{"name":"_campaignId","type":"uint256","internalType":"uint256"}],"outputs":[],"stateMutability":"nonpayable"},{"type":"function","name":"getCampaign","inputs":[{"name":"_campaignId","type":"uint256","internalType":"uint256"}],"outputs":[{"name":"","type":"tuple","internalType":"struct CampaignStorage.Campaign","components":[{"name":"id","type":"uint256","internalType":"uint256"},{"name":"name","type":"string","internalType":"string"},{"name":"host","type":"address","internalType":"address"},{"name":"startTime","type":"uint256","internalType":"uint256"},{"name":"endTime","type":"uint256","internalType":"uint256"},{"name":"status","type":"uint8","internalType":"enum CampaignStorage.CampaignStatus"},{"name":"tasks","type":"tuple[]","internalType":"struct CampaignStorage.CampaignTask[]","components":[{"name":"taskType","type":"uint8","internalType":"enum CampaignStorage.TaskType"},{"name":"description","type":"string","internalType":"string"},{"name":"verificationData","type":"bytes","internalType":"bytes"},{"name":"isOptional","type":"bool","internalType":"bool"}]},{"name":"reward","type":"tuple","internalType":"struct CampaignStorage.CampaignReward","components":[{"name":"rewardType","type":"uint8","internalType":"enum CampaignStorage.RewardType"},{"name":"tokenAddress","type":"address","internalType":"address"},{"name":"amountOrTokenId","type":"uint256","internalType":"uint256"}]},{"name":"createdAt","type":"uint224","internalType":"uint224"},{"name":"totalParticipants","type":"uint256","internalType":"uint256"}]}],"stateMutability":"view"},{"type":"function","name":"getCampaignCount","inputs":[],"outputs":[{"name":"","type":"uint256","internalType":"uint256"}],"stateMutability":"view"},{"type":"function","name":"getCampaignTask","inputs":[{"name":"_campaignId","type":"uint256","internalType":"uint256"},{"name":"_taskIndex","type":"uint256","internalType":"uint256"}],"outputs":[{"name":"","type":"tuple","internalType":"struct CampaignStorage.CampaignTask","components":[{"name":"taskType","type":"uint8","internalType":"enum CampaignStorage.TaskType"},{"name":"description","type":"string","internalType":"string"},{"name":"verificationData","type":"bytes","internalType":"bytes"},{"name":"isOptional","type":"bool","internalType":"bool"}]}],"stateMutability":"view"},{"type":"function","name":"getCampaignsByHost","inputs":[{"name":"_host","type":"address","internalType":"address"}],"outputs":[{"name":"","type":"uint256[]","internalType":"uint256[]"}],"stateMutability":"view"},{"type":"function","name":"getRoleAdmin","inputs":[{"name":"role","type":"bytes32","internalType":"bytes32"}],"outputs":[{"name":"","type":"bytes32","internalType":"bytes32"}],"stateMutability":"view"},{"type":"function","name":"grantHostRole","inputs":[{"name":"_account","type":"address","internalType":"address"}],"outputs":[],"stateMutability":"nonpayable"},{"type":"function","name":"grantRole","inputs":[{"name":"role","type":"bytes32","internalType":"bytes32"},{"name":"account","type":"address","internalType":"address"}],"outputs":[],"stateMutability":"nonpayable"},{"type":"function","name":"hasClaimedReward","inputs":[{"name":"_campaignId","type":"uint256","internalType":"uint256"},{"name":"_participant","type":"address","internalType":"address"}],"outputs":[{"name":"","type":"bool","internalType":"bool"}],"stateMutability":"view"},{"type":"function","name":"hasCompletedTask","inputs":[{"name":"_campaignId","type":"uint256","internalType":"uint256"},{"name":"_participant","type":"address","internalType":"address"},{"name":"_taskIndex","type":"uint256","internalType":"uint256"}],"outputs":[{"name":"","type":"bool","internalType":"bool"}],"stateMutability":"view"},{"type":"function","name":"hasParticipated","inputs":[{"name":"_campaignId","type":"uint256","internalType":"uint256"},{"name":"_participant","type":"address","internalType":"address"}],"outputs":[{"name":"","type":"bool","internalType":"bool"}],"stateMutability":"view"},{"type":"function","name":"hasRole","inputs":[{"name":"role","type":"bytes32","internalType":"bytes32"},{"name":"account","type":"address","internalType":"address"}],"outputs":[{"name":"","type":"bool","internalType":"bool"}],"stateMutability":"view"},{"type":"function","name":"openCampaign","inputs":[{"name":"_campaignId","type":"uint256","internalType":"uint256"}],"outputs":[],"stateMutability":"nonpayable"},{"type":"function","name":"paused","inputs":[],"outputs":[{"name":"","type":"bool","internalType":"bool"}],"stateMutability":"view"},{"type":"function","name":"renounceRole","inputs":[{"name":"role","type":"bytes32","internalType":"bytes32"},{"name":"callerConfirmation","type":"address","internalType":"address"}],"outputs":[],"stateMutability":"nonpayable"},{"type":"function","name":"revokeHostRole","inputs":[{"name":"_account","type":"address","internalType":"address"}],"outputs":[],"stateMutability":"nonpayable"},{"type":"function","name":"revokeRole","inputs":[{"name":"role","type":"bytes32","internalType":"bytes32"},{"name":"account","type":"address","internalType":"address"}],"outputs":[],"stateMutability":"nonpayable"},{"type":"function","name":"setCampaignReward","inputs":[{"name":"_campaignId","type":"uint256","internalType":"uint256"},{"name":"_rewardType","type":"uint8","internalType":"enum CampaignStorage.RewardType"},{"name":"_tokenAddress","type":"address","internalType":"address"},{"name":"_amountOrTokenId","type":"uint256","internalType":"uint256"}],"outputs":[],"stateMutability":"nonpayable"},{"type":"function","name":"supportsInterface","inputs":[{"name":"interfaceId","type":"bytes4","internalType":"bytes4"}],"outputs":[{"name":"","type":"bool","internalType":"bool"}],"stateMutability":"view"},{"type":"function","name":"verifyTaskCompletion","inputs":[{"name":"_campaignId","type":"uint256","internalType":"uint256"},{"name":"_participant","type":"address","internalType":"address"},{"name":"_taskIndex","type":"uint256","internalType":"uint256"}],"outputs":[],"stateMutability":"nonpayable"},{"type":"event","name":"CampaignCreated","inputs":[{"name":"campaignId","type":"uint256","indexed":true,"internalType":"uint256"},{"name":"host","type":"address","indexed":true,"internalType":"address"},{"name":"name","type":"string","indexed":false,"internalType":"string"},{"name":"startTime","type":"uint256","indexed":false,"internalType":"uint256"},{"name":"endTime","type":"uint256","indexed":false,"internalType":"uint256"}],"anonymous":false},{"type":"event","name":"CampaignStatusUpdated","inputs":[{"name":"campaignId","type":"uint256","indexed":true,"internalType":"uint256"},{"name":"newStatus","type":"uint8","indexed":false,"internalType":"enum CampaignStorage.CampaignStatus"}],"anonymous":false},{"type":"event","name":"EmergencyPause","inputs":[{"name":"admin","type":"address","indexed":true,"internalType":"address"},{"name":"timestamp","type":"uint256","indexed":false,"internalType":"uint256"}],"anonymous":false},{"type":"event","name":"EmergencyUnpause","inputs":[{"name":"admin","type":"address","indexed":true,"internalType":"address"},{"name":"timestamp","type":"uint256","indexed":false,"internalType":"uint256"}],"anonymous":false},{"type":"event","name":"FundsReceived","inputs":[{"name":"sender","type":"address","indexed":true,"internalType":"address"},{"name":"amount","type":"uint256","indexed":false,"internalType":"uint256"}],"anonymous":false},{"type":"event","name":"ParticipantTaskCompleted","inputs":[{"name":"campaignId","type":"uint256","indexed":true,"internalType":"uint256"},{"name":"participant","type":"address","indexed":true,"internalType":"address"},{"name":"taskId","type":"uint256","indexed":true,"internalType":"uint256"}],"anonymous":false},{"type":"event","name":"Paused","inputs":[{"name":"account","type":"address","indexed":false,"internalType":"address"}],"anonymous":false},{"type":"event","name":"RewardClaimed","inputs":[{"name":"campaignId","type":"uint256","indexed":true,"internalType":"uint256"},{"name":"participant","type":"address","indexed":true,"internalType":"address"},{"name":"rewardType","type":"uint8","indexed":false,"internalType":"enum CampaignStorage.RewardType"},{"name":"tokenAddress","type":"address","indexed":false,"internalType":"address"},{"name":"amountOrTokenId","type":"uint256","indexed":false,"internalType":"uint256"}],"anonymous":false},{"type":"event","name":"RewardSet","inputs":[{"name":"campaignId","type":"uint256","indexed":true,"internalType":"uint256"},{"name":"rewardType","type":"uint8","indexed":false,"internalType":"enum CampaignStorage.RewardType"},{"name":"tokenAddress","type":"address","indexed":false,"internalType":"address"},{"name":"amountOrTokenId","type":"uint256","indexed":false,"internalType":"uint256"}],"anonymous":false},{"type":"event","name":"RoleAdminChanged","inputs":[{"name":"role","type":"bytes32","indexed":true,"internalType":"bytes32"},{"name":"previousAdminRole","type":"bytes32","indexed":true,"internalType":"bytes32"},{"name":"newAdminRole","type":"bytes32","indexed":true,"internalType":"bytes32"}],"anonymous":false},{"type":"event","name":"RoleGranted","inputs":[{"name":"role","type":"bytes32","indexed":true,"internalType":"bytes32"},{"name":"account","type":"address","indexed":true,"internalType":"address"},{"name":"sender","type":"address","indexed":true,"internalType":"address"}],"anonymous":false},{"type":"event","name":"RoleRevoked","inputs":[{"name":"role","type":"bytes32","indexed":true,"internalType":"bytes32"},{"name":"account","type":"address","indexed":true,"internalType":"address"},{"name":"sender","type":"address","indexed":true,"internalType":"address"}],"anonymous":false},{"type":"event","name":"SecurityViolationDetected","inputs":[{"name":"user","type":"address","indexed":true,"internalType":"address"},{"name":"reason","type":"string","indexed":false,"internalType":"string"}],"anonymous":false},{"type":"event","name":"SuspiciousActivity","inputs":[{"name":"user","type":"address","indexed":true,"internalType":"address"},{"name":"activity","type":"string","indexed":false,"internalType":"string"}],"anonymous":false},{"type":"event","name":"TaskAddedToCampaign","inputs":[{"name":"campaignId","type":"uint256","indexed":true,"internalType":"uint256"},{"name":"taskId","type":"uint256","indexed":true,"internalType":"uint256"},{"name":"taskType","type":"uint8","indexed":false,"internalType":"enum CampaignStorage.TaskType"},{"name":"description","type":"string","indexed":false,"internalType":"string"}],"anonymous":false},{"type":"event","name":"Unpaused","inputs":[{"name":"account","type":"address","indexed":false,"internalType":"address"}],"anonymous":false},{"type":"error","name":"AccessControlBadConfirmation","inputs":[]},{"type":"error","name":"AccessControlUnauthorizedAccount","inputs":[{"name":"account","type":"address","internalType":"address"},{"name":"neededRole","type":"bytes32","internalType":"bytes32"}]},{"type":"error","name":"EnforcedPause","inputs":[]},{"type":"error","name":"ExpectedPause","inputs":[]},{"type":"error","name":"ReentrancyGuardReentrantCall","inputs":[]},{"type":"error","name":"Web3Campaigns__AllTasksNotCompleted","inputs":[]},{"type":"error","name":"Web3Campaigns__AlreadyClaimed","inputs":[]},{"type":"error","name":"Web3Campaigns__CallerIsNotHost","inputs":[]},{"type":"error","name":"Web3Campaigns__CampaignAlreadyEnded","inputs":[]},{"type":"error","name":"Web3Campaigns__CampaignAlreadyStarted","inputs":[]},{"type":"error","name":"Web3Campaigns__CampaignEnded","inputs":[]},{"type":"error","name":"Web3Campaigns__CampaignNotFound","inputs":[]},{"type":"error","name":"Web3Campaigns__CampaignNotOpen","inputs":[]},{"type":"error","name":"Web3Campaigns__CampaignNotYetEnded","inputs":[]},{"type":"error","name":"Web3Campaigns__CampaignStartTimeNotYetStrated","inputs":[]},{"type":"error","name":"Web3Campaigns__ERC20TransferFailed","inputs":[]},{"type":"error","name":"Web3Campaigns__ERC721TransferFailed","inputs":[]},{"type":"error","name":"Web3Campaigns__InsufficientERC20Allowance","inputs":[]},{"type":"error","name":"Web3Campaigns__InsufficientERC20Balance","inputs":[]},{"type":"error","name":"Web3Campaigns__InvalidCampaignDuration","inputs":[]},{"type":"error","name":"Web3Campaigns__InvalidRewardAmount","inputs":[]},{"type":"error","name":"Web3Campaigns__InvalidRewardType","inputs":[]},{"type":"error","name":"Web3Campaigns__InvalidTaskType","inputs":[]},{"type":"error","name":"Web3Campaigns__InvalidVerificationData","inputs":[]},{"type":"error","name":"Web3Campaigns__NoRewardSet","inputs":[]},{"type":"error","name":"Web3Campaigns__NotHoldingSpecificERC721","inputs":[]},{"type":"error","name":"Web3Campaigns__PosterCannotAcceptOwnTask","inputs":[]},{"type":"error","name":"Web3Campaigns__RewardAlreadySet","inputs":[]},{"type":"error","name":"Web3Campaigns__TaskAlreadyCompleted","inputs":[]},{"type":"error","name":"Web3Campaigns__TaskNotFound","inputs":[]},{"type":"error","name":"Web3Campaigns__TaskNotVerifiableByHost","inputs":[]},{"type":"error","name":"Web3Campaigns__TransferFailed","inputs":[]}],"bytecode":{"object":"0x6080604052346100275761001161005a565b61001961002c565b615f996103938239615f9990f35b610032565b60405190565b5f80fd5b7f5c91514091af31f62f596a314af7d5be40146b2f2355969392f055e12e0982fb90565b610062610077565b61007461006d610036565b3390610281565b50565b61007f61010d565b565b90565b90565b90565b61009e6100996100a392610081565b610087565b610084565b90565b6100b0600161008a565b90565b5f1b90565b906100c45f19916100b3565b9181191691161790565b6100e26100dd6100e792610084565b610087565b610084565b90565b90565b906101026100fd610109926100ce565b6100ea565b82546100b8565b9055565b610115610129565b6101276101206100a6565b600b6100ed565b565b610131610133565b565b61013b61018f565b565b90565b90565b61015761015261015c9261013d565b6100b3565b610140565b90565b6101685f610143565b90565b7fffea912cee438c2ace68bb665a205db5afc1aaf31713688b377348fe4bfc04f590565b6101a161019a61015f565b3390610281565b506101b46101ad61016b565b3390610281565b50565b5f90565b151590565b6101c990610140565b90565b906101d6906101c0565b5f5260205260405f2090565b60018060a01b031690565b6102016101fc610206926101e2565b610087565b6101e2565b90565b610212906101ed565b90565b61021e90610209565b90565b9061022b90610215565b5f5260205260405f2090565b9061024360ff916100b3565b9181191691161790565b610256906101bb565b90565b90565b9061027161026c6102789261024d565b610259565b8254610237565b9055565b5f0190565b6102896101b7565b5061029e610298828490610358565b156101bb565b5f14610326576102c560016102c05f6102b88186906101cc565b018590610221565b61025c565b906102ce610385565b9061030b6103056102ff7f2f8788117e7eff1d82e926ec794901d17c78024a50270940304540a733656f0d956101c0565b92610215565b92610215565b9261031461002c565b8061031e8161027c565b0390a4600190565b50505f90565b5f1c90565b60ff1690565b6103436103489161032c565b610331565b90565b6103559054610337565b90565b61037e915f6103736103799361036c6101b7565b50826101cc565b01610221565b61034b565b90565b5f90565b61038d610381565b50339056fe6080604052600436101561001d575b3661457f5761001b6144ed565b005b6100275f35610276565b806301ffc9a7146102715780630a839b4c1461026c5780630ec9ea17146102675780630f717b0814610262578063108c8ae41461025d578063248a9ca3146102585780632f2ff15d146102535780633020580b1461024e57806336568abe14610249578063375a23c7146102445780633c3566cd1461023f5780634a4e3bd51461023a57806351858e27146102355780635598f8cc146102305780635c975abb1461022b57806368e978b1146102265780636caa9218146102215780636d5744911461021c5780636efa024a146102175780638aea3dc9146102125780638c7bc8381461020d57806391d1485414610208578063a217fddf14610203578063a34398a2146101fe578063a3a0ef1c146101f9578063ae169a50146101f4578063afbce5fd146101ef578063b0e1c1e1146101ea578063c8b727a1146101e5578063cafa436b146101e0578063cf3f8d6c146101db578063cfebabe6146101d6578063d547741f146101d1578063d6585ecf146101cc578063dd0408ae146101c7578063f20cb1a9146101c25763ffa1ad740361000e57611667565b61156a565b611537565b611502565b61149f565b611469565b611434565b6113c7565b611357565b611324565b6112ed565b611177565b611142565b6110d5565b611073565b611002565b610fcd565b610f5e565b610ef0565b610e51565b610e1c565b610de7565b610d83565b610d4e565b6109bd565b61098a565b610953565b6108bb565b61084f565b610819565b6106a8565b610646565b6105ac565b61054a565b610420565b6103a5565b610302565b60e01c90565b60405190565b5f80fd5b5f80fd5b5f80fd5b63ffffffff60e01b1690565b6102a38161028e565b036102aa57565b5f80fd5b905035906102bb8261029a565b565b906020828203126102d6576102d3915f016102ae565b90565b610286565b151590565b6102e9906102db565b9052565b9190610300905f602085019401906102e0565b565b346103325761032e61031d6103183660046102bd565b6116a0565b61032561027c565b918291826102ed565b0390f35b610282565b5f91031261034157565b610286565b90565b90565b90565b61036361035e61036892610346565b61034c565b610349565b90565b610375603c61034f565b90565b61038061036b565b90565b61038c90610349565b9052565b91906103a3905f60208501940190610383565b565b346103d5576103b5366004610337565b6103d16103c0610378565b6103c861027c565b91829182610390565b0390f35b610282565b6103e381610349565b036103ea57565b5f80fd5b905035906103fb826103da565b565b9060208282031261041657610413915f016103ee565b90565b610286565b5f0190565b3461044e576104386104333660046103fd565b6116fe565b61044061027c565b8061044a8161041b565b0390f35b610282565b60018060a01b031690565b61046790610453565b90565b6104738161045e565b0361047a57565b5f80fd5b9050359061048b8261046a565b565b906020828203126104a6576104a3915f0161047e565b90565b610286565b5190565b60209181520190565b60200190565b6104c790610349565b9052565b906104d8816020936104be565b0190565b60200190565b906104ff6104f96104f2846104ab565b80936104af565b926104b8565b905f5b81811061050f5750505090565b90919261052861052260019286516104cb565b946104dc565b9101919091610502565b6105479160208201915f8184039101526104e2565b90565b3461057a5761057661056561056036600461048d565b61182f565b61056d61027c565b91829182610532565b0390f35b610282565b91906040838203126105a7578061059b6105a4925f86016103ee565b936020016103ee565b90565b610286565b346105db576105c56105bf36600461057f565b9061188a565b6105cd61027c565b806105d78161041b565b0390f35b610282565b90565b6105ec816105e0565b036105f357565b5f80fd5b90503590610604826105e3565b565b9060208282031261061f5761061c915f016105f7565b90565b610286565b61062d906105e0565b9052565b9190610644905f60208501940190610624565b565b346106765761067261066161065c366004610606565b6118e0565b61066961027c565b91829182610631565b0390f35b610282565b91906040838203126106a357806106976106a0925f86016105f7565b9360200161047e565b90565b610286565b346106d7576106c16106bb36600461067b565b9061192b565b6106c961027c565b806106d38161041b565b0390f35b610282565b5f80fd5b5f80fd5b601f801991011690565b634e487b7160e01b5f52604160045260245ffd5b9061070c906106e4565b810190811067ffffffffffffffff82111761072657604052565b6106ee565b9061073e61073761027c565b9283610702565b565b67ffffffffffffffff811161075e5761075a6020916106e4565b0190565b6106ee565b90825f939282370152565b9092919261078361077e82610740565b61072b565b9381855260208501908284011161079f5761079d92610763565b565b6106e0565b9080601f830112156107c2578160206107bf9335910161076e565b90565b6106dc565b9091606082840312610814575f82013567ffffffffffffffff811161080f576107f58461080c9285016107a4565b9361080381602086016103ee565b936040016103ee565b90565b61028a565b610286565b3461084a5761084661083561082f3660046107c7565b91612c57565b61083d61027c565b91829182610390565b0390f35b610282565b3461087e5761086861086236600461067b565b90612c6d565b61087061027c565b8061087a8161041b565b0390f35b610282565b90565b61089a61089561089f92610883565b61034c565b610349565b90565b6108ad61012c610886565b90565b6108b86108a2565b90565b346108eb576108cb366004610337565b6108e76108d66108b0565b6108de61027c565b91829182610390565b0390f35b610282565b600411156108fa57565b5f80fd5b9050359061090b826108f0565b565b60808183031261094e57610923825f83016103ee565b9261094b61093484602085016108fe565b93610942816040860161047e565b936060016103ee565b90565b610286565b346109855761096f61096636600461090d565b92919091613126565b61097761027c565b806109818161041b565b0390f35b610282565b346109b85761099a366004610337565b6109a261319d565b6109aa61027c565b806109b48161041b565b0390f35b610282565b346109eb576109cd366004610337565b6109d5613210565b6109dd61027c565b806109e78161041b565b0390f35b610282565b5190565b60209181520190565b90825f9392825e0152565b610a27610a30602093610a3593610a1e816109f0565b938480936109f4565b958691016109fd565b6106e4565b0190565b610a429061045e565b9052565b634e487b7160e01b5f52602160045260245ffd5b60041115610a6457565b610a46565b90610a7382610a5a565b565b610a7e90610a69565b90565b610a8a90610a75565b9052565b5190565b60209181520190565b60200190565b60091115610aab57565b610a46565b90610aba82610aa1565b565b610ac590610ab0565b90565b610ad190610abc565b9052565b5190565b60209181520190565b610b01610b0a602093610b0f93610af881610ad5565b93848093610ad9565b958691016109fd565b6106e4565b0190565b610b1c906102db565b9052565b90610b7190606080610b66610b5460808501610b425f8901515f880190610ac8565b60208801518682036020880152610a08565b60408701518582036040870152610ae2565b940151910190610b13565b90565b90610b7e91610b20565b90565b60200190565b90610b9b610b9483610a8e565b8092610a92565b9081610bac60208302840194610a9b565b925f915b838310610bbf57505050505090565b90919293946020610be1610bdb83856001950387528951610b74565b97610b81565b9301930191939290610bb0565b60041115610bf857565b610a46565b90610c0782610bee565b565b610c1290610bfd565b90565b610c1e90610c09565b9052565b90604080610c5693610c3a5f8201515f860190610c15565b610c4c60208201516020860190610a39565b01519101906104be565b565b60018060e01b031690565b610c6c90610c58565b9052565b90610d3390610160610120610d02610ca86101808501610c965f8901515f8801906104be565b60208801518682036020880152610a08565b610cba60408801516040870190610a39565b610ccc606088015160608701906104be565b610cde608088015160808701906104be565b610cf060a088015160a0870190610a81565b60c087015185820360c0870152610b87565b94610d1560e082015160e0860190610c22565b610d29610100820151610140860190610c63565b01519101906104be565b90565b610d4b9160208201915f818403910152610c70565b90565b34610d7e57610d7a610d69610d643660046103fd565b61376d565b610d7161027c565b91829182610d36565b0390f35b610282565b34610db357610d93366004610337565b610daf610d9e6137d5565b610da661027c565b918291826102ed565b0390f35b610282565b7fffea912cee438c2ace68bb665a205db5afc1aaf31713688b377348fe4bfc04f590565b610de4610db8565b90565b34610e1757610df7366004610337565b610e13610e02610ddc565b610e0a61027c565b91829182610631565b0390f35b610282565b34610e4c57610e2c366004610337565b610e48610e376137eb565b610e3f61027c565b91829182610390565b0390f35b610282565b34610e7f57610e69610e6436600461048d565b613830565b610e7161027c565b80610e7b8161041b565b0390f35b610282565b90610ed590606080610eca610eb860808501610ea65f8901515f880190610ac8565b60208801518682036020880152610a08565b60408701518582036040870152610ae2565b940151910190610b13565b90565b610eed9160208201915f818403910152610e84565b90565b34610f2157610f1d610f0c610f0636600461057f565b9061386e565b610f1461027c565b91829182610ed8565b0390f35b610282565b90565b610f3d610f38610f4292610f26565b61034c565b610349565b90565b610f50610e10610f29565b90565b610f5b610f45565b90565b34610f8e57610f6e366004610337565b610f8a610f79610f53565b610f8161027c565b91829182610390565b0390f35b610282565b90565b610faa610fa5610faf92610f93565b61034c565b610349565b90565b610fbf6301e13380610f96565b90565b610fca610fb2565b90565b34610ffd57610fdd366004610337565b610ff9610fe8610fc2565b610ff061027c565b91829182610390565b0390f35b610282565b346110335761102f61101e61101836600461067b565b90613944565b61102661027c565b918291826102ed565b0390f35b610282565b90565b5f1b90565b61105461104f61105992611038565b61103b565b6105e0565b90565b6110655f611040565b90565b61107061105c565b90565b346110a357611083366004610337565b61109f61108e611068565b61109661027c565b91829182610631565b0390f35b610282565b91906040838203126110d057806110c46110cd925f86016103ee565b9360200161047e565b90565b610286565b34611106576111026110f16110eb3660046110a8565b90613999565b6110f961027c565b918291826102ed565b0390f35b610282565b90565b61112261111d6111279261110b565b61034c565b610349565b90565b611134606461110e565b90565b61113f61112a565b90565b3461117257611152366004610337565b61116e61115d611137565b61116561027c565b91829182610390565b0390f35b610282565b346111a55761118f61118a3660046103fd565b6139fa565b61119761027c565b806111a18161041b565b0390f35b610282565b600911156111b457565b5f80fd5b905035906111c5826111aa565b565b67ffffffffffffffff81116111e5576111e16020916106e4565b0190565b6106ee565b909291926111ff6111fa826111c7565b61072b565b9381855260208501908284011161121b5761121992610763565b565b6106e0565b9080601f8301121561123e5781602061123b933591016111ea565b90565b6106dc565b61124c816102db565b0361125357565b5f80fd5b9050359061126482611243565b565b919060a0838203126112e85761127e815f85016103ee565b9261128c82602083016111b8565b92604082013567ffffffffffffffff81116112e357836112ad9184016107a4565b9260608301359067ffffffffffffffff82116112de576112d2816112db938601611220565b93608001611257565b90565b61028a565b61028a565b610286565b3461131f57611309611300366004611266565b93929092613f29565b61131161027c565b8061131b8161041b565b0390f35b610282565b346113525761133c6113373660046103fd565b613f56565b61134461027c565b8061134e8161041b565b0390f35b610282565b346113885761138461137361136d3660046110a8565b90613f61565b61137b61027c565b918291826102ed565b0390f35b610282565b90916060828403126113c2576113bf6113a8845f85016103ee565b936113b6816020860161047e565b936040016103ee565b90565b610286565b346113f6576113e06113da36600461138d565b9161432b565b6113e861027c565b806113f28161041b565b0390f35b610282565b90565b61141261140d611417926113fb565b61034c565b610349565b90565b611426620186a06113fe565b90565b61143161141a565b90565b3461146457611444366004610337565b61146061144f611429565b61145761027c565b91829182610390565b0390f35b610282565b3461149a5761149661148561147f36600461138d565b91614338565b61148d61027c565b918291826102ed565b0390f35b610282565b346114ce576114b86114b236600461067b565b90614393565b6114c061027c565b806114ca8161041b565b0390f35b610282565b7f5c91514091af31f62f596a314af7d5be40146b2f2355969392f055e12e0982fb90565b6114ff6114d3565b90565b3461153257611512366004610337565b61152e61151d6114f7565b61152561027c565b91829182610631565b0390f35b610282565b346115655761154f61154a3660046103fd565b6143bd565b61155761027c565b806115618161041b565b0390f35b610282565b346115985761158261157d36600461048d565b6143c8565b61158a61027c565b806115948161041b565b0390f35b610282565b906115af6115aa83610740565b61072b565b918252565b5f7f302e302e33000000000000000000000000000000000000000000000000000000910152565b6115e5600561159d565b906115f2602083016115b4565b565b6115fc6115db565b90565b6116076115f4565b90565b6116126115ff565b90565b60209181520190565b61163d61164660209361164b93611634816109f0565b93848093611615565b958691016109fd565b6106e4565b0190565b6116649160208201915f81840391015261161e565b90565b3461169757611677366004610337565b61169361168261160a565b61168a61027c565b9182918261164f565b0390f35b610282565b5f90565b6116a861169c565b50806116c36116bd637965db0b60e01b61028e565b9161028e565b149081156116d0575b5090565b6116da9150614584565b5f6116cc565b6116f1906116ec6145aa565b6116f3565b565b6116fc90614794565b565b611707906116e0565b565b606090565b61172261171d61172792610453565b61034c565b610453565b90565b6117339061170e565b90565b61173f9061172a565b90565b9061174c90611736565b5f5260205260405f2090565b5490565b60209181520190565b5f5260205f2090565b5f1c90565b90565b6117826117879161176e565b611773565b90565b6117949054611776565b90565b60010190565b906117ba6117b46117ad84611758565b809361175c565b92611765565b905f5b8181106117ca5750505090565b9091926117ea6117e46001926117df8761178a565b6104cb565b94611797565b91019190916117bd565b906117fe9161179d565b90565b9061182161181a9261181161027c565b938480926117f4565b0383610702565b565b61182c90611801565b90565b61184661184b9161183e611709565b506005611742565b611823565b90565b906118609161185b6145aa565b611862565b565b906118749161186f6147cb565b61187e565b61187c614830565b565b9061188891615103565b565b906118949161184e565b565b5f90565b6118a3906105e0565b90565b906118b09061189a565b5f5260205260405f2090565b90565b6118cb6118d09161176e565b6118bc565b90565b6118dd90546118bf565b90565b60016118f86118fe926118f1611896565b505f6118a6565b016118d3565b90565b9061191c91611917611912826118e0565b61510f565b61191e565b565b9061192891615123565b50565b9061193591611901565b565b5f90565b9061195793929161195261194d610db8565b61510f565b612952565b90565b90565b61197161196c61197692611038565b61034c565b610349565b90565b90565b61199061198b61199592611979565b61034c565b610349565b90565b5f7f496e76616c6964206e616d65206c656e67746800000000000000000000000000910152565b6119cc6013602092611615565b6119d581611998565b0190565b6119ee9060208101905f8183039101526119bf565b90565b156119f857565b611a0061027c565b62461bcd60e51b815280611a16600482016119d9565b0390fd5b611a249054611776565b90565b634e487b7160e01b5f52601160045260245ffd5b611a4490610349565b5f198114611a525760010190565b611a27565b90611a635f199161103b565b9181191691161790565b611a81611a7c611a8692610349565b61034c565b610349565b90565b90565b90611aa1611a9c611aa892611a6d565b611a89565b8254611a57565b9055565b67ffffffffffffffff8111611ac45760208091020190565b6106ee565b90611adb611ad683611aac565b61072b565b918252565b611aea608061072b565b90565b5f90565b606090565b606090565b5f90565b611b07611ae0565b90602080808085611b16611aed565b815201611b21611af1565b815201611b2c611af6565b815201611b37611afb565b81525050565b611b45611aff565b90565b5f5b828110611b5657505050565b602090611b61611b3d565b8184015201611b4a565b90611b90611b7883611ac9565b92602080611b868693611aac565b9201910390611b48565b565b611ba6611ba1611bab92611038565b61034c565b610453565b90565b611bb790611b92565b90565b611bc4606061072b565b90565b90611bd190610bfd565b9052565b90611bdf9061045e565b9052565b90611bed90610349565b9052565b611c05611c00611c0a92610349565b61034c565b610c58565b90565b611c1861014061072b565b90565b52565b90611c2890610a69565b9052565b52565b52565b90611c3c90610c58565b9052565b90611c4a90611a6d565b5f5260205260405f2090565b634e487b7160e01b5f525f60045260245ffd5b611c739051610349565b90565b5190565b634e487b7160e01b5f52602260045260245ffd5b9060016002830492168015611cae575b6020831014611ca957565b611c7a565b91607f1691611c9e565b5f5260205f2090565b601f602091010490565b1b90565b91906008611cea910291611ce45f1984611ccb565b92611ccb565b9181191691161790565b9190611d0a611d05611d1293611a6d565b611a89565b908354611ccf565b9055565b611d2891611d22611937565b91611cf4565b565b5b818110611d36575050565b80611d435f600193611d16565b01611d2b565b9190601f8111611d59575b505050565b611d65611d8a93611cb8565b906020611d7184611cc1565b83019310611d92575b611d8390611cc1565b0190611d2a565b5f8080611d54565b9150611d8381929050611d7a565b1c90565b90611db4905f1990600802611da0565b191690565b81611dc391611da4565b906002021790565b90611dd5816109f0565b9067ffffffffffffffff8211611e9557611df982611df38554611c8e565b85611d49565b602090601f8311600114611e2d57918091611e1c935f92611e21575b5050611db9565b90555b565b90915001515f80611e15565b601f19831691611e3c85611cb8565b925f5b818110611e7d57509160029391856001969410611e63575b50505002019055611e1f565b611e73910151601f841690611da4565b90555f8080611e57565b91936020600181928787015181550195019201611e3f565b6106ee565b90611ea491611dcb565b565b611eb0905161045e565b90565b90611ec460018060a01b039161103b565b9181191691161790565b90565b90611ee6611ee1611eed92611736565b611ece565b8254611eb3565b9055565b611efb9051610a69565b90565b90611f0a60ff9161103b565b9181191691161790565b611f1d90610a69565b90565b90565b90611f38611f33611f3f92611f14565b611f20565b8254611efe565b9055565b5190565b5490565b611f5a611f6091939293610349565b92610349565b91611f6c838202610349565b928184041490151715611f7b57565b611a27565b611f8b906004611f4b565b90565b5f5260205f2090565b90611faa905f1990602003600802611da0565b8154169055565b905f91611fc8611fc082611cb8565b928354611db9565b905555565b919290602082105f1461202657601f8411600114611ff657611ff0929350611db9565b90555b5b565b509061201c61202193600161201361200d85611cb8565b92611cc1565b82019101611d2a565b611fb1565b611ff3565b5061205d8293612037600194611cb8565b61205661204385611cc1565b820192601f861680612068575b50611cc1565b0190611d2a565b600202179055611ff4565b61207490888603611f97565b5f612050565b9290916801000000000000000082116120da576020115f146120cb57602081105f146120af576120a991611db9565b90555b5b565b60019160ff19166120bf84611cb8565b556002020190556120ac565b600191506002020190556120ad565b6106ee565b9081546120eb81611c8e565b90818311612114575b818310612102575b50505050565b61210b93611fcd565b5f8080806120fc565b6121208383838761207a565b6120f4565b5f61212f916120df565b565b905f036121435761214190612125565b565b611c56565b5f5260205f2090565b905f9161216861216082612148565b928354611db9565b905555565b919290602082105f146121c657601f841160011461219657612190929350611db9565b90555b5b565b50906121bc6121c19360016121b36121ad85612148565b92611cc1565b82019101611d2a565b612151565b612193565b506121fd82936121d7600194612148565b6121f66121e385611cc1565b820192601f861680612208575b50611cc1565b0190611d2a565b600202179055612194565b61221490888603611f97565b5f6121f0565b92909168010000000000000000821161227a576020115f1461226b57602081105f1461224f5761224991611db9565b90555b5b565b60019160ff191661225f84612148565b5560020201905561224c565b6001915060020201905561224d565b6106ee565b90815461228b81611c8e565b908183116122b4575b8183106122a2575b50505050565b6122ab9361216d565b5f80808061229c565b6122c08383838761221a565b612294565b5f6122cf9161227f565b565b905f036122e3576122e1906122c5565b565b611c56565b60035f9182808201556122fe8360018301612131565b61230b83600283016122d1565b0155565b905f036123215761231f906122e8565b565b611c56565b5b818110612332575050565b8061233f5f60049361230f565b01612327565b9091828110612354575b505050565b61237261236c61236661237d95611f80565b92611f80565b92611f8e565b918201910190612326565b5f808061234f565b906801000000000000000081116123ae57816123a36123ac93611f47565b90828155612345565b565b6106ee565b5190565b6123c19051610ab0565b90565b6123cd90610ab0565b90565b90565b906123e86123e36123ef926123c4565b6123d0565b8254611efe565b9055565b5190565b9190601f8111612407575b505050565b61241361243893612148565b90602061241f84611cc1565b83019310612440575b61243190611cc1565b0190611d2a565b5f8080612402565b915061243181929050612428565b9061245881610ad5565b9067ffffffffffffffff82116125185761247c826124768554611c8e565b856123f7565b602090601f83116001146124b05791809161249f935f926124a4575b5050611db9565b90555b565b90915001515f80612498565b601f198316916124bf85612148565b925f5b818110612500575091600293918560019694106124e6575b505050020190556124a2565b6124f6910151601f841690611da4565b90555f80806124da565b919360206001819287870151815501950192016124c2565b6106ee565b906125279161244e565b565b61253390516102db565b90565b61253f906102db565b90565b90565b9061255a61255561256192612536565b612542565b8254611efe565b9055565b906125c2606060036125c8946125885f82016125825f88016123b7565b906123d3565b6125a16001820161259b60208801611c76565b90611e9a565b6125ba600282016125b4604088016123f3565b9061251d565b019201612529565b90612545565b565b906125d491612565565b565b6125fb6125f56125e584610a8e565b936125f08585612385565b610a9b565b91611f8e565b5f915b83831061260b5750505050565b600460208261262461261e6001956123b3565b866125ca565b019201920191906125fe565b9061263a916125d6565b565b5190565b61264a9051610bfd565b90565b61265690610bfd565b90565b90565b9061267161266c6126789261264d565b612659565b8254611efe565b9055565b60081b90565b90612695610100600160a81b039161267c565b9181191691161790565b906126b46126af6126bb92611736565b611ece565b8254612682565b9055565b9061270260406001612708946126e25f82016126dc5f8801612640565b9061265c565b6126fa5f82016126f460208801611ea6565b9061269f565b019201611c69565b90611a8c565b565b90612714916126bf565b565b6127209051610c58565b90565b9061273460018060e01b039161103b565b9181191691161790565b61275261274d61275792610c58565b61034c565b610c58565b90565b90565b9061277261276d6127799261273e565b61275a565b8254612723565b9055565b90612872610120600a612878946127a15f820161279b5f8801611c69565b90611a8c565b6127ba600182016127b460208801611c76565b90611e9a565b6127d3600282016127cd60408801611ea6565b90611ed1565b6127ec600382016127e660608801611c69565b90611a8c565b612805600482016127ff60808801611c69565b90611a8c565b61281e6005820161281860a08801611ef1565b90611f23565b6128376006820161283160c08801611f43565b90612630565b6128506007820161284a60e0880161263c565b9061270a565b61286a600982016128646101008801612716565b9061275d565b019201611c69565b90611a8c565b565b906128849161277d565b565b90565b5f5260205f2090565b634e487b7160e01b5f52603260045260245ffd5b5490565b6128b3816128a6565b8210156128cd576128c5600191612889565b910201905f90565b612892565b908154916801000000000000000083101561290257826128fa916001612900950181556128aa565b90611cf4565b565b6106ee565b9061291190611736565b5f5260205260405f2090565b60409061294961293e6129509597969460608401908482035f86015261161e565b966020830190610383565b0190610383565b565b5061296461295f8261195a565b610ad5565b6129766129705f61195d565b91610349565b1180612c26575b612986906119f1565b61298f33615250565b61299a8284906152a8565b6129b56129af6129a8610db8565b3390613944565b156102db565b612c0e575b816129cd6129c742610349565b91610349565b1115612bf257826129e66129e084610349565b91610349565b1115612bd6576129f66001611a1a565b6129ff90611a3b565b612a0a906001611a8c565b612a146001611a1a565b9283823385845f5f612a259061195d565b612a2e90611b6b565b915f935f612a3b90611bae565b5f90612a45611bba565b965f880190612a5391611bc7565b6020870190612a6191611bd5565b612a6a9061195d565b6040860190612a7891611be3565b42612a8290611bf1565b955f97612a8d611c0d565b995f8b0190612a9b91611be3565b60208a0190612aa991611c1b565b6040890190612ab791611bd5565b6060880190612ac591611be3565b6080870190612ad391611be3565b60a0860190612ae191611c1e565b60c0850190612aef91611c2c565b60e0840190612afd91611c2f565b610100830190612b0c91611c32565b612b159061195d565b610120820190612b2491611be3565b600285612b3091611c40565b90612b3a9161287a565b600533612b4691611742565b612b4f90612886565b84612b59916128d2565b600833612b6591612907565b612b6e81611a1a565b612b7790611a3b565b612b8091611a8c565b83903392937fdc26653af5b99b2da33e2ad69ee6600d9aeccc82b034501db4338309615ca23892612bb090611a6d565b93612bba90611736565b94612bc361027c565b928392612bd0928461291d565b0390a390565b5f6323223fc360e01b815280612bee6004820161041b565b0390fd5b5f63a1c02e1f60e01b815280612c0a6004820161041b565b0390fd5b612c20612c19610db8565b3390615123565b506129ba565b50612986612c3b612c368361195a565b610ad5565b612c4e612c4860c861197c565b91610349565b1115905061297d565b90612c6a9291612c65611937565b61193b565b90565b9080612c88612c82612c7d6153a0565b61045e565b9161045e565b03612c9957612c96916153ad565b50565b5f63334bd91960e11b815280612cb16004820161041b565b0390fd5b5f7f436f6e7472616374206973207061757365640000000000000000000000000000910152565b612ce96012602092611615565b612cf281612cb5565b0190565b612d0b9060208101905f818303910152612cdc565b90565b15612d1557565b612d1d61027c565b62461bcd60e51b815280612d3360048201612cf6565b0390fd5b60018060a01b031690565b612d4e612d539161176e565b612d37565b90565b612d609054612d42565b90565b92919083612d80612d7b612d756137d5565b156102db565b612d0e565b612d965f612d9060028490611c40565b01611a1a565b612da8612da25f61195d565b91610349565b14612e00576002612dbc612dc29282611c40565b01612d56565b612dd4612dce3361045e565b9161045e565b03612de457612de293612ea1565b565b5f63275260e560e11b815280612dfc6004820161041b565b0390fd5b5f630f5611a960e01b815280612e186004820161041b565b0390fd5b90565b5f7f43616d706169676e206e6f7420696e2061637469766520706572696f64000000910152565b612e53601d602092611615565b612e5c81612e1f565b0190565b612e759060208101905f818303910152612e46565b90565b15612e7f57565b612e8761027c565b62461bcd60e51b815280612e9d60048201612e60565b0390fd5b90612ef0939291612eeb612ebe612eb9836002611c40565b612e1c565b42612edc612ed6612ed160038501611a1a565b610349565b91610349565b10159081612ef2575b50612e78565b612fb4565b565b9050612f12612f0c612f076004429401611a1a565b610349565b91610349565b11155f612ee5565b60ff1690565b612f2c612f319161176e565b612f1a565b90565b612f3e9054612f20565b90565b60ff1690565b612f53612f589161176e565b612f41565b90565b612f659054612f47565b90565b612f7190610c09565b9052565b612f7e9061045e565b9052565b604090612fab612fb29496959396612fa160608401985f850190612f68565b6020830190612f75565b0190610383565b565b92909192612fcc612fc760028390611c40565b612e1c565b612fd860058201612f34565b612fea612fe45f610a69565b91610a69565b0361310a57612ffd5f6007830101612f5b565b61300f6130095f610bfd565b91610bfd565b036130ee57836130276130215f610bfd565b91610bfd565b14806130d3575b6130b75761306f906007859161306988613060889161305761304e611bba565b975f8901611bc7565b60208701611bd5565b60408501611be3565b0161270a565b919290926130b26130a07fc07a9b3aaa057840b17ed5326fe739d11c2a7ffc46914aee58495f51fc76371a94611a6d565b946130a961027c565b93849384612f82565b0390a2565b5f63203cde7560e01b8152806130cf6004820161041b565b0390fd5b50826130e76130e15f61195d565b91610349565b141561302e565b5f63790f062760e01b8152806131066004820161041b565b0390fd5b5f6306dd745b60e41b8152806131226004820161041b565b0390fd5b90613132939291612d63565b565b61314461313f6114d3565b61510f565b61314c61314e565b565b6131566154ae565b3342906131986131867f3fc6beefa3f4115babe1a3d46940222e37b39b9ef03dc7b79f832dbcc3da6abf92611736565b9261318f61027c565b91829182610390565b0390a2565b6131a5613134565b565b6131b76131b26114d3565b61510f565b6131bf6131c1565b565b6131c9615519565b33429061320b6131f97f6eae7d8f48015fddc9502717696ac737bec3d20c703c3958a689f8f48574718392611736565b9261320261027c565b91829182610390565b0390a2565b6132186131a7565b565b61322561014061072b565b90565b5f90565b5f90565b5f90565b606090565b613243606061072b565b90565b5f90565b613252613239565b906020808084613260613246565b81520161326b61322c565b815201613276613228565b81525050565b61328461324a565b90565b5f90565b61329361321a565b9060208080808080808080808b6132a8613228565b8152016132b3611af1565b8152016132be61322c565b8152016132c9613228565b8152016132d4613228565b8152016132df613230565b8152016132ea613234565b8152016132f561327c565b815201613300613287565b81520161330b613228565b81525050565b61331961328b565b90565b905f929180549061333661332f83611c8e565b80946109f4565b916001811690815f1461338d5750600114613351575b505050565b61335e9192939450611cb8565b915f925b81841061337557505001905f808061334c565b60018160209295939554848601520191019290613362565b92949550505060ff19168252151560200201905f808061334c565b906133b29161331c565b90565b906133d56133ce926133c561027c565b938480926133a8565b0383610702565b565b60ff1690565b6133e96133ee9161176e565b6133d7565b90565b6133fb90546133dd565b90565b9061340890610ab0565b9052565b905f929180549061342661341f83611c8e565b8094610ad9565b916001811690815f1461347d5750600114613441575b505050565b61344e9192939450612148565b915f925b81841061346557505001905f808061343c565b60018160209295939554848601520191019290613452565b92949550505060ff19168252151560200201905f808061343c565b906134a29161340c565b90565b906134c56134be926134b561027c565b93848092613498565b0383610702565b565b52565b60ff1690565b6134dc6134e19161176e565b6134ca565b90565b6134ee90546134d0565b90565b906134fb906102db565b9052565b9061356661355d6003613510611ae0565b9461352761351f5f83016133f1565b5f88016133fe565b61353f613536600183016133b5565b60208801611c1b565b61355761354e600283016134a5565b604088016134c7565b016134e4565b606084016134f1565b565b613571906134ff565b90565b9061357e82611f47565b61358781611ac9565b926135956020850191611f8e565b5f915b8383106135a55750505050565b600460206001926135b585613568565b815201920192019190613598565b60081c90565b6135d56135da916135c3565b612d37565b90565b6135e790546135c9565b90565b9061363861362f60016135fb613239565b9461361261360a5f8301612f5b565b5f8801611bc7565b6136296136205f83016135dd565b60208801611bd5565b01611a1a565b60408401611be3565b565b60018060e01b031690565b6136516136569161176e565b61363a565b90565b6136639054613645565b90565b9061375f613755600a61367761321a565b9461368e6136865f8301611a1a565b5f8801611be3565b6136a661369d600183016133b5565b60208801611c1b565b6136be6136b560028301612d56565b60408801611bd5565b6136d66136cd60038301611a1a565b60608801611be3565b6136ee6136e560048301611a1a565b60808801611be3565b6137066136fd60058301612f34565b60a08801611c1e565b61371e61371560068301613574565b60c08801611c2c565b61373661372d600783016135ea565b60e08801611c2f565b61374f61374560098301613659565b6101008801611c32565b01611a1a565b6101208401611be3565b565b61376a90613666565b90565b613775613311565b5061378c5f61378660028490611c40565b01611a1a565b61379e6137985f61195d565b91610349565b146137b9576137b16137b6916002611c40565b613761565b90565b5f630f5611a960e01b8152806137d16004820161041b565b0390fd5b6137dd61169c565b506137e8600c6134e4565b90565b6137f3611937565b506137fe6001611a1a565b90565b61381a9061381561381061105c565b61510f565b61381c565b565b61382d90613828610db8565b6153ad565b50565b61383990613801565b565b613843611aff565b90565b61384f81611f47565b82101561386957613861600491611f8e565b910201905f90565b612892565b61387661383b565b5061388d5f61388760028490611c40565b01611a1a565b61389f6138995f61195d565b91610349565b1461391257816138cd6138c76138c260066138bc60028790611c40565b01611f47565b610349565b91610349565b10156138f6576138f39160066138e76138ed936002611c40565b01613846565b50613568565b90565b5f631d1ac06360e01b81528061390e6004820161041b565b0390fd5b5f630f5611a960e01b81528061392a6004820161041b565b0390fd5b9061393890611736565b5f5260205260405f2090565b61396a915f61395f6139659361395861169c565b50826118a6565b0161392e565b6134e4565b90565b9061397790611736565b5f5260205260405f2090565b9061398d90611a6d565b5f5260205260405f2090565b6139b9906139b46139be936139ac61169c565b50600661396d565b613983565b6134e4565b90565b6139d2906139cd6145aa565b6139d4565b565b6139e5906139e06147cb565b6139ef565b6139ed614830565b565b6139f8906155cf565b565b613a03906139c1565b565b9392919084613a23613a1e613a186137d5565b156102db565b612d0e565b613a395f613a3360028490611c40565b01611a1a565b613a4b613a455f61195d565b91610349565b14613aa3576002613a5f613a659282611c40565b01612d56565b613a77613a713361045e565b9161045e565b03613a8757613a8594613abf565b565b5f63275260e560e11b815280613a9f6004820161041b565b0390fd5b5f630f5611a960e01b815280613abb6004820161041b565b0390fd5b90613b0f94939291613b0a613add613ad8836002611c40565b612e1c565b42613afb613af5613af060038501611a1a565b610349565b91610349565b10159081613b11575b50612e78565b613d82565b565b9050613b31613b2b613b266004429401611a1a565b610349565b91610349565b11155f613b04565b90565b613b50613b4b613b5592613b39565b61034c565b610349565b90565b5f7f496e76616c6964206465736372697074696f6e206c656e677468000000000000910152565b613b8c601a602092611615565b613b9581613b58565b0190565b613bae9060208101905f818303910152613b7f565b90565b15613bb857565b613bc061027c565b62461bcd60e51b815280613bd660048201613b99565b0390fd5b90565b613bf1613bec613bf692613bda565b61034c565b610349565b90565b5f7f546f6f206d616e79207461736b73207065722063616d706169676e0000000000910152565b613c2d601b602092611615565b613c3681613bf9565b0190565b613c4f9060208101905f818303910152613c20565b90565b15613c5957565b613c6161027c565b62461bcd60e51b815280613c7760048201613c3a565b0390fd5b90565b613c88608061072b565b90565b5f5260205f2090565b5490565b613ca181613c94565b821015613cbb57613cb3600491613c8b565b910201905f90565b612892565b9190613cd157613ccf91612565565b565b611c56565b9081549168010000000000000000831015613d065782613cfe916001613d0495018155613c98565b90613cc0565b565b6106ee565b90565b613d22613d1d613d2792613d0b565b61034c565b610349565b90565b613d39613d3f91939293610349565b92610349565b8203918211613d4a57565b611a27565b613d5890610abc565b9052565b91613d7f92613d7260408201935f830190613d4f565b602081840391015261161e565b90565b90929193613d97613d928661195a565b610ad5565b613da9613da35f61195d565b91610349565b1180613ef7575b613db990613bb1565b613dcd613dc860028490611c40565b612e1c565b92613dda60058501612f34565b613dec613de65f610a69565b91610a69565b03613edb57613e8c92613e7587613e7c94613e70600695613e2a613e11888c01611f47565b613e24613e1e6014613bdd565b91610349565b10613c52565b613e67613e38888c01613c7b565b93613e5e8d96939193613e55613e4c613c7e565b985f8a016133fe565b60208801611c1b565b604086016134c7565b606084016134f1565b613cd6565b9301611f47565b613e866001613d0e565b90613d2a565b9192613ec1613ebb7fd0664854493294a8d5634b201e2a478d08fe951d2b27278a66f49026bf2ba3b493611a6d565b93611a6d565b93613ed6613ecd61027c565b92839283613d5c565b0390a3565b5f6306dd745b60e41b815280613ef36004820161041b565b0390fd5b50613db9613f0c613f078761195a565b610ad5565b613f20613f1a6103e8613b3c565b91610349565b11159050613db0565b90613f3694939291613a05565b565b613f4990613f446145aa565b613f4b565b565b613f5490615d1d565b565b613f5f90613f38565b565b613f8190613f7c613f8693613f7461169c565b50600461396d565b613983565b6134e4565b90565b919082613fa5613fa0613f9a6137d5565b156102db565b612d0e565b613fbb5f613fb560028490611c40565b01611a1a565b613fcd613fc75f61195d565b91610349565b14614025576002613fe1613fe79282611c40565b01612d56565b613ff9613ff33361045e565b9161045e565b03614009576140079261406d565b565b5f63275260e560e11b8152806140216004820161041b565b0390fd5b5f630f5611a960e01b81528061403d6004820161041b565b0390fd5b9061404b90611736565b5f5260205260405f2090565b9061406190611a6d565b5f5260205260405f2090565b91909161408461407f60028390611c40565b612e1c565b61409060058201612f34565b6140a361409d6001610a69565b91610a69565b141580614304575b6142e857826140cd6140c76140c260068501611f47565b610349565b91610349565b10156142cc576140ec5f6140e5600684018690613846565b50016133f1565b6140ff6140f96006610ab0565b91610ab0565b148015614299575b8015614266575b61424a5761413a61413561412e61412760038890614041565b8590614057565b8590613983565b6134e4565b61422e57614168600161416361415c61415560038990614041565b8690614057565b8690613983565b612545565b61418f61418961418461417d6006889061396d565b8590613983565b6134e4565b156102db565b6141ea575b50916141d26141cc6141c67f67cf8439b7b4e38eb8bbfb33a19e4f9b9b8b3fae5c79a1c4780c12e649e64b2895611a6d565b92611736565b92611a6d565b926141db61027c565b806141e58161041b565b0390a4565b600a61422891614210600161420b61420460068a9061396d565b8790613983565b612545565b0161422261421d82611a1a565b611a3b565b90611a8c565b5f614194565b5f6353d366db60e11b8152806142466004820161041b565b0390fd5b5f63fdf4f64f60e01b8152806142626004820161041b565b0390fd5b506142805f614279600684018690613846565b50016133f1565b61429361428d6008610ab0565b91610ab0565b1461410e565b506142b35f6142ac600684018690613846565b50016133f1565b6142c66142c06007610ab0565b91610ab0565b14614107565b5f631d1ac06360e01b8152806142e46004820161041b565b0390fd5b5f6363b4791760e01b8152806143006004820161041b565b0390fd5b5061431160058201612f34565b61432461431e6002610a69565b91610a69565b14156140ab565b906143369291613f89565b565b9161435c614366936143576143619461434f61169c565b506003614041565b614057565b613983565b6134e4565b90565b906143849161437f61437a826118e0565b61510f565b614386565b565b90614390916153ad565b50565b9061439d91614369565b565b6143b0906143ab6145aa565b6143b2565b565b6143bb90615ec7565b565b6143c69061439f565b565b6143d9906143d4610db8565b615123565b50565b6143e46145aa565b6143ec6143ee565b565b6143f66147cb565b6143fe61448a565b614406614830565b565b5f7f496e76616c69642045544820616d6f756e740000000000000000000000000000910152565b61443c6012602092611615565b61444581614408565b0190565b61445e9060208101905f81830391015261442f565b90565b1561446857565b61447061027c565b62461bcd60e51b81528061448660048201614449565b0390fd5b6144a6346144a061449a5f61195d565b91610349565b11614461565b3334906144e86144d67f8e47b87b0ef542cdfa1659c551d88bad38aa7f452d2bbb349ab7530dfec8be8f92611736565b926144df61027c565b91829182610390565b0390a2565b6144f56143dc565b565b6144ff6145aa565b61455d565b5f7f46756e6374696f6e20646f6573206e6f74206578697374000000000000000000910152565b6145386017602092611615565b61454181614504565b0190565b61455a9060208101905f81830391015261452b565b90565b61456561027c565b62461bcd60e51b81528061457b60048201614545565b0390fd5b6144f7565b61458c61169c565b506145a66145a06301ffc9a760e01b61028e565b9161028e565b1490565b6145b26137d5565b6145b857565b5f63d93c066560e01b8152806145d06004820161041b565b0390fd5b806145ee6145e96145e36137d5565b156102db565b612d0e565b6146045f6145fe60028490611c40565b01611a1a565b6146166146105f61195d565b91610349565b1461466e57600261462a6146309282611c40565b01612d56565b61464261463c3361045e565b9161045e565b0361465257614650906146ac565b565b5f63275260e560e11b81528061466a6004820161041b565b0390fd5b5f630f5611a960e01b8152806146866004820161041b565b0390fd5b61469390610a75565b9052565b91906146aa905f6020850194019061468a565b565b6146c06146bb60028390611c40565b612e1c565b6146cc60058201612f34565b6146de6146d85f610a69565b91610a69565b0361477857426147016146fb6146f660038501611a1a565b610349565b91610349565b1061475c5761471590600560019101611f23565b6001906147576147457f1289cf89aaaed53d6590c1b7996ba434edb31dcbd322d0b88ff0c02f64bbdeef92611a6d565b9261474e61027c565b91829182614697565b0390a2565b5f63a1c02e1f60e01b8152806147746004820161041b565b0390fd5b5f6306dd745b60e41b8152806147906004820161041b565b0390fd5b61479d906145d4565b565b90565b6147b66147b16147bb9261479f565b61034c565b610349565b90565b6147c860026147a2565b90565b6147d5600b611a1a565b6147ee6147e86147e36147be565b610349565b91610349565b14614807576148056147fe6147be565b600b611a8c565b565b5f633ee5aeb560e01b81528061481f6004820161041b565b0390fd5b61482d6001613d0e565b90565b61484261483b614823565b600b611a8c565b565b906148919161488c61485f61485a836002611c40565b612e1c565b4261487d61487761487260038501611a1a565b610349565b91610349565b10159081614893575b50612e78565b614b78565b565b90506148b36148ad6148a86004429401611a1a565b610349565b91610349565b11155f614886565b60207f6374697669747900000000000000000000000000000000000000000000000000917f4163636f756e7420666c616767656420666f7220737573706963696f757320615f8201520152565b6149156027604092611615565b61491e816148bb565b0190565b6149379060208101905f818303910152614908565b90565b1561494157565b61494961027c565b62461bcd60e51b81528061495f60048201614922565b0390fd5b90565b61497a61497561497f92614963565b61034c565b610349565b90565b5f7f546f6f206d616e7920726170696420616374696f6e7300000000000000000000910152565b6149b66016602092611615565b6149bf81614982565b0190565b6149d89060208101905f8183039101526149a9565b90565b156149e257565b6149ea61027c565b62461bcd60e51b815280614a00600482016149c3565b0390fd5b90565b614a119054611c8e565b90565b90565b614a2b614a26614a3092614a14565b61034c565b610349565b90565b614a3c906134a5565b90565b614a4890610453565b90565b614a5481614a3f565b03614a5b57565b5f80fd5b90505190614a6c82614a4b565b565b90505190614a7b826103da565b565b9190604083820312614aa55780614a99614aa2925f8601614a5f565b93602001614a6e565b90565b610286565b614ab39061172a565b90565b614abf9061170e565b90565b614acb90614ab6565b90565b614ad79061172a565b90565b5f80fd5b60e01b90565b90505190614af18261046a565b565b90602082820312614b0c57614b09915f01614ae4565b90565b610286565b614b1961027c565b3d5f823e3d90fd5b614b2a9061170e565b90565b614b3690614b21565b90565b614b429061172a565b90565b90602082820312614b5e57614b5b915f01614a6e565b90565b610286565b9190614b76905f60208501940190612f75565b565b614b8c614b8760028390611c40565b612e1c565b614b975f8201611a1a565b614ba9614ba35f61195d565b91610349565b146150e757614bba60058201612f34565b614bcd614bc76001610a69565b91610a69565b036150cb5782614bf0614bea614be560068501611f47565b610349565b91610349565b10156150af57614c1e614c19614c12614c0b60033390614041565b8590614057565b8590613983565b6134e4565b61509357614c58614c39614c3460093390612907565b611a1a565b614c52614c4c614c4761112a565b610349565b91610349565b1061493a565b614c93614c7942614c73614c6e60073390612907565b611a1a565b90613d2a565b614c8c614c86601e614966565b91610349565b10156149db565b614caa614ca4600683018590613846565b50614a04565b614cb55f82016133f1565b614cc8614cc26007610ab0565b91610ab0565b145f14614f0657614cdb60028201614a07565b614cee614ce86034614a17565b91610349565b03614eea57614d2c6020614d36614d31614d25614d106002614d609701614a33565b84614d1a82610ad5565b818301019101614a7d565b9490614aaa565b614b2d565b614b39565b6370a0823190614d553392614d4961027c565b96879485938493614ade565b835260048301614b63565b03915afa918215614ee5575f92614ead575b50614d7f614d8591610349565b91610349565b10614e91575b614db56001614db0614da9614da260033390614041565b8690614057565b8690613983565b612545565b614ddc614dd6614dd1614dca6006339061396d565b8590613983565b6134e4565b156102db565b614e4d575b509033614e20614e1a614e147f67cf8439b7b4e38eb8bbfb33a19e4f9b9b8b3fae5c79a1c4780c12e649e64b2895611a6d565b92611736565b92611a6d565b92614e2961027c565b80614e338161041b565b0390a4614e4b42614e4660073390612907565b611a8c565b565b600a614e8b91614e736001614e6e614e676006339061396d565b8790613983565b612545565b01614e85614e8082611a1a565b611a3b565b90611a8c565b5f614de1565b5f638b1e418760e01b815280614ea96004820161041b565b0390fd5b614d85919250614ed6614d7f9160203d8111614ede575b614ece8183610702565b810190614b45565b929150614d72565b503d614ec4565b614b11565b5f6373074c4b60e11b815280614f026004820161041b565b0390fd5b614f115f82016133f1565b614f24614f1e6008610ab0565b91610ab0565b145f1461505457614f3760028201614a07565b614f4a614f446034614a17565b91610349565b03615038576020614f88614f92614f8d614f81614f6c6002614fb99701614a33565b85614f7682610ad5565b818301019101614a7d565b9390614aaa565b614ac2565b614ace565b614fae636352211e614fa261027c565b95869485938493614ade565b835260048301610390565b03915afa908115615033575f91615005575b50614fde614fd83361045e565b9161045e565b03614fe9575b614d8b565b5f633d28cf7360e01b8152806150016004820161041b565b0390fd5b615026915060203d811161502c575b61501e8183610702565b810190614af3565b5f614fcb565b503d615014565b614b11565b5f6373074c4b60e11b8152806150506004820161041b565b0390fd5b5f61505f91016133f1565b61507261506c6006610ab0565b91610ab0565b03614fe4575f631e3072cd60e31b81528061508f6004820161041b565b0390fd5b5f6353d366db60e11b8152806150ab6004820161041b565b0390fd5b5f631d1ac06360e01b8152806150c76004820161041b565b0390fd5b5f6363b4791760e01b8152806150e36004820161041b565b0390fd5b5f630f5611a960e01b8152806150ff6004820161041b565b0390fd5b9061510d91614844565b565b6151219061511b6153a0565b90615ef5565b565b61512b61169c565b5061514061513a828490613944565b156102db565b5f146151c85761516760016151625f61515a8186906118a6565b01859061392e565b612545565b906151706153a0565b906151ad6151a76151a17f2f8788117e7eff1d82e926ec794901d17c78024a50270940304540a733656f0d9561189a565b92611736565b92611736565b926151b661027c565b806151c08161041b565b0390a4600190565b50505f90565b5f7f52617465206c696d69743a20746f6f206d616e7920616374696f6e7300000000910152565b615202601c602092611615565b61520b816151ce565b0190565b6152249060208101905f8183039101526151f5565b90565b1561522e57565b61523661027c565b62461bcd60e51b81528061524c6004820161520f565b0390fd5b6152a6906152956152754261526f61526a60078690612907565b611a1a565b90613d2a565b61528e6152886152836108a2565b610349565b91610349565b1015615227565b6152a142916007612907565b611a8c565b565b806152bb6152b542610349565b91610349565b111561538057816152d46152ce83610349565b91610349565b1115615364576152e5828290613d2a565b6152fe6152f86152f3610f45565b610349565b91610349565b106153485761530c91613d2a565b61532561531f61531a610fb2565b610349565b91610349565b1161532c57565b5f6323223fc360e01b8152806153446004820161041b565b0390fd5b5f6323223fc360e01b8152806153606004820161041b565b0390fd5b5f6323223fc360e01b81528061537c6004820161041b565b0390fd5b5f63a1c02e1f60e01b8152806153986004820161041b565b0390fd5b5f90565b6153a861539c565b503390565b6153b561169c565b506153c1818390613944565b5f14615448576153e75f6153e25f6153da8186906118a6565b01859061392e565b612545565b906153f06153a0565b9061542d6154276154217ff6391f5c32d9c69d2a47ea670b442974b53935d1edc7fd64eb21e047a839171b9561189a565b92611736565b92611736565b9261543661027c565b806154408161041b565b0390a4600190565b50505f90565b615456615f30565b61545e615460565b565b61546b5f600c612545565b6154736153a0565b6154a97f5db9ee0a495bf2e6ff9c91a7834c1ba4fdd244a5e8aa4e537bd38aeae4b073aa916154a061027c565b91829182614b63565b0390a1565b6154b661544e565b565b6154c06145aa565b6154c86154ca565b565b6154d66001600c612545565b6154de6153a0565b6155147f62e78cea01bee320cd4e420270b5ea74000d11b0c9f74754ebdbfc544b05a2589161550b61027c565b91829182614b63565b0390a1565b6155216154b8565b565b600161552f9101610349565b90565b61553b9061172a565b90565b5f91031261554857565b610286565b60409061557661557d949695939661556c60608401985f850190612f75565b6020830190612f75565b0190610383565b565b9160206155a092949361559960408201965f830190612f75565b0190612f75565b565b905051906155af82611243565b565b906020828203126155ca576155c7915f016155a2565b90565b610286565b6155e36155de60028390611c40565b612e1c565b6155ee5f8201611a1a565b6156006155fa5f61195d565b91610349565b14615ba15761561160058201612f34565b61562461561e6002610a69565b91610a69565b03615b855761564761564261563b6004339061396d565b8490613983565b6134e4565b615b69576156595f6007830101612f5b565b61566b6156655f610bfd565b91610bfd565b14615b4d576156795f61195d565b5b8061569861569261568d60068601611f47565b610349565b91610349565b101561572c576156c16156bb60036156b4600686018590613846565b50016134e4565b156102db565b806156f5575b6156d9576156d490615523565b61567a565b5f634ca90fc760e11b8152806156f16004820161041b565b0390fd5b5061572761572161571c61571561570e60033390614041565b8790614057565b8490613983565b6134e4565b156102db565b6156c7565b509061574e60016157496157426004339061396d565b8490613983565b612545565b61575c5f6007840101612f5b565b61576f6157696001610bfd565b91610bfd565b145f146159a05761578c6157875f60078501016135dd565b614b2d565b61579581614b39565b602063dd62ed3e916157a960028701612d56565b906157ce6157b630615532565b946157d96157c261027c565b96879586948594614ade565b84526004840161557f565b03915afa90811561599b575f9161596d575b5061580c61580661580160016007880101611a1a565b610349565b91610349565b106159515761581a90614b39565b60206323b872dd9161582e60028601612d56565b9061585b5f3395615866615847600160078c0101611a1a565b61584f61027c565b98899788968795614ade565b85526004850161554d565b03925af1801561594c57615882915f9161591e575b50156102db565b615902575b33906158975f6007850101612f5b565b926158b4600160076158ac5f828601016135dd565b930101611a1a565b936158fd6158eb6158e57f189a1a0a528ab8a05000b87f489363b7178a4575aeccf52c3c0f7f6339a4585f95611a6d565b95611736565b956158f461027c565b93849384612f82565b0390a3565b5f6356cab7ef60e01b81528061591a6004820161041b565b0390fd5b61593f915060203d8111615945575b6159378183610702565b8101906155b1565b5f61587b565b503d61592d565b614b11565b5f63bade60ed60e01b8152806159696004820161041b565b0390fd5b61598e915060203d8111615994575b6159868183610702565b810190614b45565b5f6157eb565b503d61597c565b614b11565b6159ae5f6007840101612f5b565b6159c16159bb6002610bfd565b91610bfd565b146159cc575b615887565b6159e26159dd5f60078501016135dd565b614ac2565b615a2860206159f083614ace565b636352211e90615a1d615a08600160078a0101611a1a565b92615a1161027c565b95869485938493614ade565b835260048301610390565b03915afa908115615b48575f91615b1a575b50615a55615a4f615a4a30615532565b61045e565b9161045e565b03615afe57615a6390614ace565b6323b872dd615a7130615532565b3392615a8260016007880101611a1a565b92813b15615af9575f615aa891615ab38296615a9c61027c565b98899788968795614ade565b85526004850161554d565b03925af18015615af457615ac8575b506159c7565b615ae7905f3d8111615aed575b615adf8183610702565b81019061553e565b5f615ac2565b503d615ad5565b614b11565b614ada565b5f634b35787760e11b815280615b166004820161041b565b0390fd5b615b3b915060203d8111615b41575b615b338183610702565b810190614af3565b5f615a3a565b503d615b29565b614b11565b5f63290d665760e01b815280615b656004820161041b565b0390fd5b5f631ddf0bf160e31b815280615b816004820161041b565b0390fd5b5f632c9bee3160e21b815280615b9d6004820161041b565b0390fd5b5f630f5611a960e01b815280615bb96004820161041b565b0390fd5b80615bd7615bd2615bcc6137d5565b156102db565b612d0e565b615bed5f615be760028490611c40565b01611a1a565b615bff615bf95f61195d565b91610349565b14615c57576002615c13615c199282611c40565b01612d56565b615c2b615c253361045e565b9161045e565b03615c3b57615c3990615c73565b565b5f63275260e560e11b815280615c536004820161041b565b0390fd5b5f630f5611a960e01b815280615c6f6004820161041b565b0390fd5b615c87615c8260028390611c40565b612e1c565b615c9360058201612f34565b615ca6615ca06002610a69565b91610a69565b03615d0157615cba90600560039101611f23565b600390615cfc615cea7f1289cf89aaaed53d6590c1b7996ba434edb31dcbd322d0b88ff0c02f64bbdeef92611a6d565b92615cf361027c565b91829182614697565b0390a2565b5f632c9bee3160e21b815280615d196004820161041b565b0390fd5b615d2690615bbd565b565b80615d42615d3d615d376137d5565b156102db565b612d0e565b615d585f615d5260028490611c40565b01611a1a565b615d6a615d645f61195d565b91610349565b14615dc2576002615d7e615d849282611c40565b01612d56565b615d96615d903361045e565b9161045e565b03615da657615da490615dde565b565b5f63275260e560e11b815280615dbe6004820161041b565b0390fd5b5f630f5611a960e01b815280615dda6004820161041b565b0390fd5b615df2615ded60028390611c40565b612e1c565b615dfe60058201612f34565b615e11615e0b6001610a69565b91610a69565b03615eab5742615e34615e2e615e2960048501611a1a565b610349565b91610349565b10615e8f57615e4890600560029101611f23565b600290615e8a615e787f1289cf89aaaed53d6590c1b7996ba434edb31dcbd322d0b88ff0c02f64bbdeef92611a6d565b92615e8161027c565b91829182614697565b0390a2565b5f632c9bee3160e21b815280615ea76004820161041b565b0390fd5b5f6363b4791760e01b815280615ec36004820161041b565b0390fd5b615ed090615d28565b565b916020615ef3929493615eec60408201965f830190612f75565b0190610624565b565b90615f0a615f04838390613944565b156102db565b615f12575050565b615f2c5f92839263e2517d3f60e01b845260048401615ed2565b0390fd5b615f41615f3b6137d5565b156102db565b615f4757565b5f638dfc202b60e01b815280615f5f6004820161041b565b0390fdfea26469706673582212209387a87779a22fe48869f842acc5c1cbbc33201239c7085773e18798e046d70264736f6c634300081d0033","linkReferences":{}},"methodIdentifiers":{"DEFAULT_ADMIN_ROLE()":"a217fddf","EMERGENCY_ADMIN()":"d6585ecf","HOST_ROLE()":"68e978b1","JOIN_COOLDOWN()":"0a839b4c","MAX_CAMPAIGN_DURATION()":"8c7bc838","MAX_PARTICIPANTS_LIMIT()":"cf3f8d6c","MAX_SUSPICIOUS_SCORE()":"a3a0ef1c","MIN_CAMPAIGN_DURATION()":"8aea3dc9","RATE_LIMIT_COOLDOWN()":"375a23c7","VERSION()":"ffa1ad74","addTaskToCampaign(uint256,uint8,string,bytes,bool)":"afbce5fd","claimReward(uint256)":"ae169a50","closeCampaign(uint256)":"b0e1c1e1","completeTask(uint256,uint256)":"108c8ae4","createCampaign(string,uint256,uint256)":"3020580b","emergencyPause()":"51858e27","emergencyUnpause()":"4a4e3bd5","endCampaign(uint256)":"dd0408ae","getCampaign(uint256)":"5598f8cc","getCampaignCount()":"6caa9218","getCampaignTask(uint256,uint256)":"6efa024a","getCampaignsByHost(address)":"0f717b08","getRoleAdmin(bytes32)":"248a9ca3","grantHostRole(address)":"f20cb1a9","grantRole(bytes32,address)":"2f2ff15d","hasClaimedReward(uint256,address)":"c8b727a1","hasCompletedTask(uint256,address,uint256)":"cfebabe6","hasParticipated(uint256,address)":"a34398a2","hasRole(bytes32,address)":"91d14854","openCampaign(uint256)":"0ec9ea17","paused()":"5c975abb","renounceRole(bytes32,address)":"36568abe","revokeHostRole(address)":"6d574491","revokeRole(bytes32,address)":"d547741f","setCampaignReward(uint256,uint8,address,uint256)":"3c3566cd","supportsInterface(bytes4)":"01ffc9a7","verifyTaskCompletion(uint256,address,uint256)":"cafa436b"},"id":66}