{
  "abi": [
    {
      "type": "constructor",
      "inputs": [],
      "stateMutability": "nonpayable"
    },
    {
      "type": "fallback",
      "stateMutability": "payable"
    },
    {
      "type": "receive",
      "stateMutability": "payable"
    },
    {
      "type": "function",
      "name": "DEFAULT_ADMIN_ROLE",
      "inputs": [],
      "outputs": [
        {
          "name": "",
          "type": "bytes32",
          "internalType": "bytes32"
        }
      ],
      "stateMutability": "view"
    },
    {
      "type": "function",
      "name": "EMERGENCY_ADMIN",
      "inputs": [],
      "outputs": [
        {
          "name": "",
          "type": "bytes32",
          "internalType": "bytes32"
        }
      ],
      "stateMutability": "view"
    },
    {
      "type": "function",
      "name": "HOST_ROLE",
      "inputs": [],
      "outputs": [
        {
          "name": "",
          "type": "bytes32",
          "internalType": "bytes32"
        }
      ],
      "stateMutability": "view"
    },
    {
      "type": "function",
      "name": "JOIN_COOLDOWN",
      "inputs": [],
      "outputs": [
        {
          "name": "",
          "type": "uint256",
          "internalType": "uint256"
        }
      ],
      "stateMutability": "view"
    },
    {
      "type": "function",
      "name": "MAX_CAMPAIGN_DURATION",
      "inputs": [],
      "outputs": [
        {
          "name": "",
          "type": "uint256",
          "internalType": "uint256"
        }
      ],
      "stateMutability": "view"
    },
    {
      "type": "function",
      "name": "MAX_PARTICIPANTS",
      "inputs": [],
      "outputs": [
        {
          "name": "",
          "type": "uint256",
          "internalType": "uint256"
        }
      ],
      "stateMutability": "view"
    },
    {
      "type": "function",
      "name": "MAX_SUSPICIOUS_SCORE",
      "inputs": [],
      "outputs": [
        {
          "name": "",
          "type": "uint256",
          "internalType": "uint256"
        }
      ],
      "stateMutability": "view"
    },
    {
      "type": "function",
      "name": "MIN_CAMPAIGN_DURATION",
      "inputs": [],
      "outputs": [
        {
          "name": "",
          "type": "uint256",
          "internalType": "uint256"
        }
      ],
      "stateMutability": "view"
    },
    {
      "type": "function",
      "name": "RATE_LIMIT_COOLDOWN",
      "inputs": [],
      "outputs": [
        {
          "name": "",
          "type": "uint256",
          "internalType": "uint256"
        }
      ],
      "stateMutability": "view"
    },
    {
      "type": "function",
      "name": "VERSION",
      "inputs": [],
      "outputs": [
        {
          "name": "",
          "type": "string",
          "internalType": "string"
        }
      ],
      "stateMutability": "view"
    },
    {
      "type": "function",
      "name": "addTaskToCampaign",
      "inputs": [
        {
          "name": "_campaignId",
          "type": "uint256",
          "internalType": "uint256"
        },
        {
          "name": "_taskType",
          "type": "uint8",
          "internalType": "enum CampaignStorage.TaskType"
        },
        {
          "name": "_description",
          "type": "string",
          "internalType": "string"
        },
        {
          "name": "_verificationData",
          "type": "bytes",
          "internalType": "bytes"
        },
        {
          "name": "_isOptional",
          "type": "bool",
          "internalType": "bool"
        }
      ],
      "outputs": [],
      "stateMutability": "nonpayable"
    },
    {
      "type": "function",
      "name": "claimReward",
      "inputs": [
        {
          "name": "_campaignId",
          "type": "uint256",
          "internalType": "uint256"
        }
      ],
      "outputs": [],
      "stateMutability": "nonpayable"
    },
    {
      "type": "function",
      "name": "closeCampaign",
      "inputs": [
        {
          "name": "_campaignId",
          "type": "uint256",
          "internalType": "uint256"
        }
      ],
      "outputs": [],
      "stateMutability": "nonpayable"
    },
    {
      "type": "function",
      "name": "completeTask",
      "inputs": [
        {
          "name": "_campaignId",
          "type": "uint256",
          "internalType": "uint256"
        },
        {
          "name": "_taskIndex",
          "type": "uint256",
          "internalType": "uint256"
        }
      ],
      "outputs": [],
      "stateMutability": "nonpayable"
    },
    {
      "type": "function",
      "name": "createCampaign",
      "inputs": [
        {
          "name": "_name",
          "type": "string",
          "internalType": "string"
        },
        {
          "name": "_startTime",
          "type": "uint256",
          "internalType": "uint256"
        },
        {
          "name": "_endTime",
          "type": "uint256",
          "internalType": "uint256"
        }
      ],
      "outputs": [
        {
          "name": "",
          "type": "uint256",
          "internalType": "uint256"
        }
      ],
      "stateMutability": "nonpayable"
    },
    {
      "type": "function",
      "name": "createCampaignWithTasksAndReward",
      "inputs": [
        {
          "name": "_name",
          "type": "string",
          "internalType": "string"
        },
        {
          "name": "_startTime",
          "type": "uint256",
          "internalType": "uint256"
        },
        {
          "name": "_endTime",
          "type": "uint256",
          "internalType": "uint256"
        },
        {
          "name": "_taskTypes",
          "type": "uint8[]",
          "internalType": "enum CampaignStorage.TaskType[]"
        },
        {
          "name": "_descriptions",
          "type": "string[]",
          "internalType": "string[]"
        },
        {
          "name": "_verificationData",
          "type": "bytes[]",
          "internalType": "bytes[]"
        },
        {
          "name": "_isOptional",
          "type": "bool[]",
          "internalType": "bool[]"
        },
        {
          "name": "_rewardType",
          "type": "uint8",
          "internalType": "enum CampaignStorage.RewardType"
        },
        {
          "name": "_tokenAddress",
          "type": "address",
          "internalType": "address"
        },
        {
          "name": "_amountOrTokenId",
          "type": "uint256",
          "internalType": "uint256"
        }
      ],
      "outputs": [
        {
          "name": "",
          "type": "uint256",
          "internalType": "uint256"
        }
      ],
      "stateMutability": "nonpayable"
    },
    {
      "type": "function",
      "name": "emergencyPause",
      "inputs": [],
      "outputs": [],
      "stateMutability": "nonpayable"
    },
    {
      "type": "function",
      "name": "emergencyUnpause",
      "inputs": [],
      "outputs": [],
      "stateMutability": "nonpayable"
    },
    {
      "type": "function",
      "name": "endCampaign",
      "inputs": [
        {
          "name": "_campaignId",
          "type": "uint256",
          "internalType": "uint256"
        }
      ],
      "outputs": [],
      "stateMutability": "nonpayable"
    },
    {
      "type": "function",
      "name": "getCampaign",
      "inputs": [
        {
          "name": "_campaignId",
          "type": "uint256",
          "internalType": "uint256"
        }
      ],
      "outputs": [
        {
          "name": "",
          "type": "tuple",
          "internalType": "struct CampaignStorage.Campaign",
          "components": [
            {
              "name": "id",
              "type": "uint256",
              "internalType": "uint256"
            },
            {
              "name": "name",
              "type": "string",
              "internalType": "string"
            },
            {
              "name": "host",
              "type": "address",
              "internalType": "address"
            },
            {
              "name": "startTime",
              "type": "uint256",
              "internalType": "uint256"
            },
            {
              "name": "endTime",
              "type": "uint256",
              "internalType": "uint256"
            },
            {
              "name": "status",
              "type": "uint8",
              "internalType": "enum CampaignStorage.CampaignStatus"
            },
            {
              "name": "tasks",
              "type": "tuple[]",
              "internalType": "struct CampaignStorage.CampaignTask[]",
              "components": [
                {
                  "name": "taskType",
                  "type": "uint8",
                  "internalType": "enum CampaignStorage.TaskType"
                },
                {
                  "name": "description",
                  "type": "string",
                  "internalType": "string"
                },
                {
                  "name": "verificationData",
                  "type": "bytes",
                  "internalType": "bytes"
                },
                {
                  "name": "isOptional",
                  "type": "bool",
                  "internalType": "bool"
                }
              ]
            },
            {
              "name": "reward",
              "type": "tuple",
              "internalType": "struct CampaignStorage.CampaignReward",
              "components": [
                {
                  "name": "rewardType",
                  "type": "uint8",
                  "internalType": "enum CampaignStorage.RewardType"
                },
                {
                  "name": "tokenAddress",
                  "type": "address",
                  "internalType": "address"
                },
                {
                  "name": "amountOrTokenId",
                  "type": "uint256",
                  "internalType": "uint256"
                }
              ]
            },
            {
              "name": "createdAt",
              "type": "uint224",
              "internalType": "uint224"
            },
            {
              "name": "totalParticipants",
              "type": "uint256",
              "internalType": "uint256"
            }
          ]
        }
      ],
      "stateMutability": "view"
    },
    {
      "type": "function",
      "name": "getCampaignCount",
      "inputs": [],
      "outputs": [
        {
          "name": "",
          "type": "uint256",
          "internalType": "uint256"
        }
      ],
      "stateMutability": "view"
    },
    {
      "type": "function",
      "name": "getCampaignTask",
      "inputs": [
        {
          "name": "_campaignId",
          "type": "uint256",
          "internalType": "uint256"
        },
        {
          "name": "_taskIndex",
          "type": "uint256",
          "internalType": "uint256"
        }
      ],
      "outputs": [
        {
          "name": "",
          "type": "tuple",
          "internalType": "struct CampaignStorage.CampaignTask",
          "components": [
            {
              "name": "taskType",
              "type": "uint8",
              "internalType": "enum CampaignStorage.TaskType"
            },
            {
              "name": "description",
              "type": "string",
              "internalType": "string"
            },
            {
              "name": "verificationData",
              "type": "bytes",
              "internalType": "bytes"
            },
            {
              "name": "isOptional",
              "type": "bool",
              "internalType": "bool"
            }
          ]
        }
      ],
      "stateMutability": "view"
    },
    {
      "type": "function",
      "name": "getCampaignsByHost",
      "inputs": [
        {
          "name": "_host",
          "type": "address",
          "internalType": "address"
        }
      ],
      "outputs": [
        {
          "name": "",
          "type": "uint256[]",
          "internalType": "uint256[]"
        }
      ],
      "stateMutability": "view"
    },
    {
      "type": "function",
      "name": "getRoleAdmin",
      "inputs": [
        {
          "name": "role",
          "type": "bytes32",
          "internalType": "bytes32"
        }
      ],
      "outputs": [
        {
          "name": "",
          "type": "bytes32",
          "internalType": "bytes32"
        }
      ],
      "stateMutability": "view"
    },
    {
      "type": "function",
      "name": "grantHostRole",
      "inputs": [
        {
          "name": "_account",
          "type": "address",
          "internalType": "address"
        }
      ],
      "outputs": [],
      "stateMutability": "nonpayable"
    },
    {
      "type": "function",
      "name": "grantRole",
      "inputs": [
        {
          "name": "role",
          "type": "bytes32",
          "internalType": "bytes32"
        },
        {
          "name": "account",
          "type": "address",
          "internalType": "address"
        }
      ],
      "outputs": [],
      "stateMutability": "nonpayable"
    },
    {
      "type": "function",
      "name": "hasClaimedReward",
      "inputs": [
        {
          "name": "_campaignId",
          "type": "uint256",
          "internalType": "uint256"
        },
        {
          "name": "_participant",
          "type": "address",
          "internalType": "address"
        }
      ],
      "outputs": [
        {
          "name": "",
          "type": "bool",
          "internalType": "bool"
        }
      ],
      "stateMutability": "view"
    },
    {
      "type": "function",
      "name": "hasCompletedTask",
      "inputs": [
        {
          "name": "_campaignId",
          "type": "uint256",
          "internalType": "uint256"
        },
        {
          "name": "_participant",
          "type": "address",
          "internalType": "address"
        },
        {
          "name": "_taskIndex",
          "type": "uint256",
          "internalType": "uint256"
        }
      ],
      "outputs": [
        {
          "name": "",
          "type": "bool",
          "internalType": "bool"
        }
      ],
      "stateMutability": "view"
    },
    {
      "type": "function",
      "name": "hasParticipated",
      "inputs": [
        {
          "name": "_campaignId",
          "type": "uint256",
          "internalType": "uint256"
        },
        {
          "name": "_participant",
          "type": "address",
          "internalType": "address"
        }
      ],
      "outputs": [
        {
          "name": "",
          "type": "bool",
          "internalType": "bool"
        }
      ],
      "stateMutability": "view"
    },
    {
      "type": "function",
      "name": "hasRole",
      "inputs": [
        {
          "name": "role",
          "type": "bytes32",
          "internalType": "bytes32"
        },
        {
          "name": "account",
          "type": "address",
          "internalType": "address"
        }
      ],
      "outputs": [
        {
          "name": "",
          "type": "bool",
          "internalType": "bool"
        }
      ],
      "stateMutability": "view"
    },
    {
      "type": "function",
      "name": "openCampaign",
      "inputs": [
        {
          "name": "_campaignId",
          "type": "uint256",
          "internalType": "uint256"
        }
      ],
      "outputs": [],
      "stateMutability": "nonpayable"
    },
    {
      "type": "function",
      "name": "paused",
      "inputs": [],
      "outputs": [
        {
          "name": "",
          "type": "bool",
          "internalType": "bool"
        }
      ],
      "stateMutability": "view"
    },
    {
      "type": "function",
      "name": "renounceRole",
      "inputs": [
        {
          "name": "role",
          "type": "bytes32",
          "internalType": "bytes32"
        },
        {
          "name": "callerConfirmation",
          "type": "address",
          "internalType": "address"
        }
      ],
      "outputs": [],
      "stateMutability": "nonpayable"
    },
    {
      "type": "function",
      "name": "revokeHostRole",
      "inputs": [
        {
          "name": "_account",
          "type": "address",
          "internalType": "address"
        }
      ],
      "outputs": [],
      "stateMutability": "nonpayable"
    },
    {
      "type": "function",
      "name": "revokeRole",
      "inputs": [
        {
          "name": "role",
          "type": "bytes32",
          "internalType": "bytes32"
        },
        {
          "name": "account",
          "type": "address",
          "internalType": "address"
        }
      ],
      "outputs": [],
      "stateMutability": "nonpayable"
    },
    {
      "type": "function",
      "name": "setCampaignReward",
      "inputs": [
        {
          "name": "_campaignId",
          "type": "uint256",
          "internalType": "uint256"
        },
        {
          "name": "_rewardType",
          "type": "uint8",
          "internalType": "enum CampaignStorage.RewardType"
        },
        {
          "name": "_tokenAddress",
          "type": "address",
          "internalType": "address"
        },
        {
          "name": "_amountOrTokenId",
          "type": "uint256",
          "internalType": "uint256"
        }
      ],
      "outputs": [],
      "stateMutability": "nonpayable"
    },
    {
      "type": "function",
      "name": "supportsInterface",
      "inputs": [
        {
          "name": "interfaceId",
          "type": "bytes4",
          "internalType": "bytes4"
        }
      ],
      "outputs": [
        {
          "name": "",
          "type": "bool",
          "internalType": "bool"
        }
      ],
      "stateMutability": "view"
    },
    {
      "type": "function",
      "name": "verifyTaskCompletion",
      "inputs": [
        {
          "name": "_campaignId",
          "type": "uint256",
          "internalType": "uint256"
        },
        {
          "name": "_participant",
          "type": "address",
          "internalType": "address"
        },
        {
          "name": "_taskIndex",
          "type": "uint256",
          "internalType": "uint256"
        }
      ],
      "outputs": [],
      "stateMutability": "nonpayable"
    },
    {
      "type": "event",
      "name": "CampaignCreated",
      "inputs": [
        {
          "name": "campaignId",
          "type": "uint256",
          "indexed": true,
          "internalType": "uint256"
        },
        {
          "name": "host",
          "type": "address",
          "indexed": true,
          "internalType": "address"
        },
        {
          "name": "name",
          "type": "string",
          "indexed": false,
          "internalType": "string"
        },
        {
          "name": "startTime",
          "type": "uint256",
          "indexed": false,
          "internalType": "uint256"
        },
        {
          "name": "endTime",
          "type": "uint256",
          "indexed": false,
          "internalType": "uint256"
        }
      ],
      "anonymous": false
    },
    {
      "type": "event",
      "name": "CampaignStatusUpdated",
      "inputs": [
        {
          "name": "campaignId",
          "type": "uint256",
          "indexed": true,
          "internalType": "uint256"
        },
        {
          "name": "newStatus",
          "type": "uint8",
          "indexed": false,
          "internalType": "enum CampaignStorage.CampaignStatus"
        }
      ],
      "anonymous": false
    },
    {
      "type": "event",
      "name": "EmergencyPause",
      "inputs": [
        {
          "name": "admin",
          "type": "address",
          "indexed": true,
          "internalType": "address"
        },
        {
          "name": "timestamp",
          "type": "uint256",
          "indexed": false,
          "internalType": "uint256"
        }
      ],
      "anonymous": false
    },
    {
      "type": "event",
      "name": "EmergencyUnpause",
      "inputs": [
        {
          "name": "admin",
          "type": "address",
          "indexed": true,
          "internalType": "address"
        },
        {
          "name": "timestamp",
          "type": "uint256",
          "indexed": false,
          "internalType": "uint256"
        }
      ],
      "anonymous": false
    },
    {
      "type": "event",
      "name": "FundsReceived",
      "inputs": [
        {
          "name": "sender",
          "type": "address",
          "indexed": true,
          "internalType": "address"
        },
        {
          "name": "amount",
          "type": "uint256",
          "indexed": false,
          "internalType": "uint256"
        }
      ],
      "anonymous": false
    },
    {
      "type": "event",
      "name": "ParticipantTaskCompleted",
      "inputs": [
        {
          "name": "campaignId",
          "type": "uint256",
          "indexed": true,
          "internalType": "uint256"
        },
        {
          "name": "participant",
          "type": "address",
          "indexed": true,
          "internalType": "address"
        },
        {
          "name": "taskId",
          "type": "uint256",
          "indexed": true,
          "internalType": "uint256"
        }
      ],
      "anonymous": false
    },
    {
      "type": "event",
      "name": "Paused",
      "inputs": [
        {
          "name": "account",
          "type": "address",
          "indexed": false,
          "internalType": "address"
        }
      ],
      "anonymous": false
    },
    {
      "type": "event",
      "name": "RewardClaimed",
      "inputs": [
        {
          "name": "campaignId",
          "type": "uint256",
          "indexed": true,
          "internalType": "uint256"
        },
        {
          "name": "participant",
          "type": "address",
          "indexed": true,
          "internalType": "address"
        },
        {
          "name": "rewardType",
          "type": "uint8",
          "indexed": false,
          "internalType": "enum CampaignStorage.RewardType"
        },
        {
          "name": "tokenAddress",
          "type": "address",
          "indexed": false,
          "internalType": "address"
        },
        {
          "name": "amountOrTokenId",
          "type": "uint256",
          "indexed": false,
          "internalType": "uint256"
        }
      ],
      "anonymous": false
    },
    {
      "type": "event",
      "name": "RewardSet",
      "inputs": [
        {
          "name": "campaignId",
          "type": "uint256",
          "indexed": true,
          "internalType": "uint256"
        },
        {
          "name": "rewardType",
          "type": "uint8",
          "indexed": false,
          "internalType": "enum CampaignStorage.RewardType"
        },
        {
          "name": "tokenAddress",
          "type": "address",
          "indexed": false,
          "internalType": "address"
        },
        {
          "name": "amountOrTokenId",
          "type": "uint256",
          "indexed": false,
          "internalType": "uint256"
        }
      ],
      "anonymous": false
    },
    {
      "type": "event",
      "name": "RoleAdminChanged",
      "inputs": [
        {
          "name": "role",
          "type": "bytes32",
          "indexed": true,
          "internalType": "bytes32"
        },
        {
          "name": "previousAdminRole",
          "type": "bytes32",
          "indexed": true,
          "internalType": "bytes32"
        },
        {
          "name": "newAdminRole",
          "type": "bytes32",
          "indexed": true,
          "internalType": "bytes32"
        }
      ],
      "anonymous": false
    },
    {
      "type": "event",
      "name": "RoleGranted",
      "inputs": [
        {
          "name": "role",
          "type": "bytes32",
          "indexed": true,
          "internalType": "bytes32"
        },
        {
          "name": "account",
          "type": "address",
          "indexed": true,
          "internalType": "address"
        },
        {
          "name": "sender",
          "type": "address",
          "indexed": true,
          "internalType": "address"
        }
      ],
      "anonymous": false
    },
    {
      "type": "event",
      "name": "RoleRevoked",
      "inputs": [
        {
          "name": "role",
          "type": "bytes32",
          "indexed": true,
          "internalType": "bytes32"
        },
        {
          "name": "account",
          "type": "address",
          "indexed": true,
          "internalType": "address"
        },
        {
          "name": "sender",
          "type": "address",
          "indexed": true,
          "internalType": "address"
        }
      ],
      "anonymous": false
    },
    {
      "type": "event",
      "name": "SecurityViolationDetected",
      "inputs": [
        {
          "name": "user",
          "type": "address",
          "indexed": true,
          "internalType": "address"
        },
        {
          "name": "reason",
          "type": "string",
          "indexed": false,
          "internalType": "string"
        }
      ],
      "anonymous": false
    },
    {
      "type": "event",
      "name": "SuspiciousActivity",
      "inputs": [
        {
          "name": "user",
          "type": "address",
          "indexed": true,
          "internalType": "address"
        },
        {
          "name": "activity",
          "type": "string",
          "indexed": false,
          "internalType": "string"
        }
      ],
      "anonymous": false
    },
    {
      "type": "event",
      "name": "TaskAddedToCampaign",
      "inputs": [
        {
          "name": "campaignId",
          "type": "uint256",
          "indexed": true,
          "internalType": "uint256"
        },
        {
          "name": "taskId",
          "type": "uint256",
          "indexed": true,
          "internalType": "uint256"
        },
        {
          "name": "taskType",
          "type": "uint8",
          "indexed": false,
          "internalType": "enum CampaignStorage.TaskType"
        },
        {
          "name": "description",
          "type": "string",
          "indexed": false,
          "internalType": "string"
        }
      ],
      "anonymous": false
    },
    {
      "type": "event",
      "name": "Unpaused",
      "inputs": [
        {
          "name": "account",
          "type": "address",
          "indexed": false,
          "internalType": "address"
        }
      ],
      "anonymous": false
    },
    {
      "type": "error",
      "name": "AccessControlBadConfirmation",
      "inputs": []
    },
    {
      "type": "error",
      "name": "AccessControlUnauthorizedAccount",
      "inputs": [
        {
          "name": "account",
          "type": "address",
          "internalType": "address"
        },
        {
          "name": "neededRole",
          "type": "bytes32",
          "internalType": "bytes32"
        }
      ]
    },
    {
      "type": "error",
      "name": "EnforcedPause",
      "inputs": []
    },
    {
      "type": "error",
      "name": "ExpectedPause",
      "inputs": []
    },
    {
      "type": "error",
      "name": "ReentrancyGuardReentrantCall",
      "inputs": []
    },
    {
      "type": "error",
      "name": "Web3Campaigns__AllTasksNotCompleted",
      "inputs": []
    },
    {
      "type": "error",
      "name": "Web3Campaigns__AlreadyClaimed",
      "inputs": []
    },
    {
      "type": "error",
      "name": "Web3Campaigns__CallerIsNotHost",
      "inputs": []
    },
    {
      "type": "error",
      "name": "Web3Campaigns__CampaignAlreadyEnded",
      "inputs": []
    },
    {
      "type": "error",
      "name": "Web3Campaigns__CampaignAlreadyStarted",
      "inputs": []
    },
    {
      "type": "error",
      "name": "Web3Campaigns__CampaignEnded",
      "inputs": []
    },
    {
      "type": "error",
      "name": "Web3Campaigns__CampaignNotFound",
      "inputs": []
    },
    {
      "type": "error",
      "name": "Web3Campaigns__CampaignNotOpen",
      "inputs": []
    },
    {
      "type": "error",
      "name": "Web3Campaigns__CampaignNotYetEnded",
      "inputs": []
    },
    {
      "type": "error",
      "name": "Web3Campaigns__CampaignStartTimeNotYetStrated",
      "inputs": []
    },
    {
      "type": "error",
      "name": "Web3Campaigns__ERC20TransferFailed",
      "inputs": []
    },
    {
      "type": "error",
      "name": "Web3Campaigns__ERC721TransferFailed",
      "inputs": []
    },
    {
      "type": "error",
      "name": "Web3Campaigns__InsufficientERC20Allowance",
      "inputs": []
    },
    {
      "type": "error",
      "name": "Web3Campaigns__InsufficientERC20Balance",
      "inputs": []
    },
    {
      "type": "error",
      "name": "Web3Campaigns__InvalidCampaignDuration",
      "inputs": []
    },
    {
      "type": "error",
      "name": "Web3Campaigns__InvalidRewardAmount",
      "inputs": []
    },
    {
      "type": "error",
      "name": "Web3Campaigns__InvalidRewardType",
      "inputs": []
    },
    {
      "type": "error",
      "name": "Web3Campaigns__InvalidTaskType",
      "inputs": []
    },
    {
      "type": "error",
      "name": "Web3Campaigns__InvalidVerificationData",
      "inputs": []
    },
    {
      "type": "error",
      "name": "Web3Campaigns__NoRewardSet",
      "inputs": []
    },
    {
      "type": "error",
      "name": "Web3Campaigns__NotHoldingSpecificERC721",
      "inputs": []
    },
    {
      "type": "error",
      "name": "Web3Campaigns__PosterCannotAcceptOwnTask",
      "inputs": []
    },
    {
      "type": "error",
      "name": "Web3Campaigns__RewardAlreadySet",
      "inputs": []
    },
    {
      "type": "error",
      "name": "Web3Campaigns__TaskAlreadyCompleted",
      "inputs": []
    },
    {
      "type": "error",
      "name": "Web3Campaigns__TaskNotFound",
      "inputs": []
    },
    {
      "type": "error",
      "name": "Web3Campaigns__TaskNotVerifiableByHost",
      "inputs": []
    },
    {
      "type": "error",
      "name": "Web3Campaigns__TransferFailed",
      "inputs": []
    }
  ],
  "bytecode": {
    "object": "0x60806040523461003b576100123361003f565b5061001c336100b5565b506001600b5561002b33610148565b50604051613ae190816101dc8239f35b5f80fd5b6001600160a01b0381165f9081525f516020613d1d5f395f51905f52602052604090205460ff166100b0576001600160a01b03165f8181525f516020613d1d5f395f51905f5260205260408120805460ff191660011790553391905f516020613cbd5f395f51905f528180a4600190565b505f90565b6001600160a01b0381165f9081525f516020613cdd5f395f51905f52602052604090205460ff166100b0576001600160a01b03165f8181525f516020613cdd5f395f51905f5260205260408120805460ff191660011790553391907fffea912cee438c2ace68bb665a205db5afc1aaf31713688b377348fe4bfc04f5905f516020613cbd5f395f51905f529080a4600190565b6001600160a01b0381165f9081525f516020613cfd5f395f51905f52602052604090205460ff166100b0576001600160a01b03165f8181525f516020613cfd5f395f51905f5260205260408120805460ff191660011790553391907f5c91514091af31f62f596a314af7d5be40146b2f2355969392f055e12e0982fb905f516020613cbd5f395f51905f529080a460019056fe6101008060405260043610156100e7575b5036156100645761001f613678565b60405162461bcd60e51b815260206004820152601760248201527f46756e6374696f6e20646f6573206e6f742065786973740000000000000000006044820152606490fd5b61006c613678565b610074613693565b34156100ad576040513481527f8e47b87b0ef542cdfa1659c551d88bad38aa7f452d2bbb349ab7530dfec8be8f60203392a26001600b55005b60405162461bcd60e51b8152602060048201526012602482015271125b9d985b1a590811551208185b5bdd5b9d60721b6044820152606490fd5b5f905f3560e01c90816301ffc9a714612fc6575080630a839b4c14612fab5780630ec9ea1714612ef45780630f717b0814612e40578063108c8ae4146129df578063248a9ca3146129ad5780632f2ff15d146129705780633020580b1461246457806336568abe14612420578063375a23c7146124045780633c3566cd146121e15780634a4e3bd51461214f57806351858e27146120ca5780635598f8cc14611df45780635c975abb14611dd257806368e978b114611dab5780636caa921814611d8e5780636d57449114611d1d5780636efa024a14611c965780638aea3dc914611c7a5780638c7bc83814611c5c57806391d1485414611c1457806393a807af1461102b578063a217fddf14611011578063a34398a214610fc8578063a3a0ef1c14610fad578063ae169a5014610b62578063afbce5fd14610892578063b0e1c1e1146107c4578063c8b727a11461077b578063cafa436b146104fd578063cfebabe6146104b8578063d547741f14610475578063d6585ecf1461043a578063dd0408ae14610324578063f20cb1a9146102fe578063f3baf070146102e05763ffa1ad740361001057346102dd57806003193601126102dd57506102d96040516102b36040826130ad565b60058152640c0b8c0b8d60da1b6020820152604051918291602083526020830190613131565b0390f35b80fd5b50346102dd57806003193601126102dd576020604051620186a08152f35b50346102dd5760203660031901126102dd5761032061031b613019565b6137e9565b5080f35b50346102dd5760203660031901126102dd57600435610341613678565b61035060ff600c5416156134a9565b808252600260205260408220541561042b57808252600260208190526040832001546001600160a01b0316330361041c57808252600260205260408220600581019060ff8254166004811015610408576001036103f9576004015442106103ea57600260ff198254161790557f1289cf89aaaed53d6590c1b7996ba434edb31dcbd322d0b88ff0c02f64bbdeef602060405160028152a280f35b632c9bee3160e21b8352600483fd5b6363b4791760e01b8452600484fd5b634e487b7160e01b85526021600452602485fd5b63275260e560e11b8252600482fd5b630f5611a960e01b8252600482fd5b50346102dd57806003193601126102dd5760206040517f5c91514091af31f62f596a314af7d5be40146b2f2355969392f055e12e0982fb8152f35b50346102dd5760403660031901126102dd5761032060043561049561302f565b906104b36104ae825f525f602052600160405f20015490565b6137b1565b61399a565b50346102dd5760ff60406020926104ce366131e7565b6001600160a01b0390911683526003865283832091835290855282822090825284522054604051911615158152f35b50346102dd5761050c366131e7565b9161051c60ff600c5416156134a9565b808452600260205260408420541561076c57808452600260208190526040852001546001600160a01b0316330361075d578084526002602052604084209160ff60058401541660048110156106e65760018114159081610751575b50610742576006830180548510156107335760ff61059586836135fb565b505416600b81101561071f5760048691149182156106fa575b82156106c2575b50506106b35760018060a01b0316918285526003602052604085208286526020526040852084865260205260ff6040862054166106a4578285526003602052604085208286526020526040852084865260205260408520600160ff1982541617905582855260066020526040852082865260205260ff6040862054161561065f575b507f67cf8439b7b4e38eb8bbfb33a19e4f9b9b8b3fae5c79a1c4780c12e649e64b288480a480f35b600a01610671620186a0825410613621565b82855260066020526040852082865260205260408520600160ff1982541617905561069c8154613211565b90555f610637565b6353d366db60e11b8552600485fd5b63fdf4f64f60e01b8552600485fd5b60ff9250906106d0916135fb565b505416600b8110156106e657600a14845f6105b5565b634e487b7160e01b86526021600452602486fd5b915061070860ff91836135fb565b505416600b81101561071f576009869114916105ae565b634e487b7160e01b87526021600452602487fd5b631d1ac06360e01b8652600486fd5b6363b4791760e01b8552600485fd5b6002915014155f610577565b63275260e560e11b8452600484fd5b630f5611a960e01b8452600484fd5b50346102dd5760403660031901126102dd5760209060ff906040906001600160a01b036107a661302f565b16815260048452818120600435825284522054166040519015158152f35b50346102dd5760203660031901126102dd576004356107e1613678565b6107f060ff600c5416156134a9565b808252600260205260408220541561042b57808252600260208190526040832001546001600160a01b0316330361041c5780825260026020526005604083200160ff815416600481101561087e576002036103ea57600360ff198254161790557f1289cf89aaaed53d6590c1b7996ba434edb31dcbd322d0b88ff0c02f64bbdeef602060405160038152a280f35b634e487b7160e01b84526021600452602484fd5b50346102dd5760a03660031901126102dd57602435600435600b821015610b5e576044356001600160401b038111610b5a576108d2903690600401613113565b916064356001600160401b038111610b565736602382011215610b56576109039036906024816004013591016130ce565b60843590811515809203610b525761092060ff600c5416156134a9565b8386526002602052604086205415610b4357838652600260208190526040872001546001600160a01b03163303610b345784518015159081610b27575b5015610ae25783865260026020526040862060ff6005820154166004811015610ace57610abf57600601918254906014821015610a7a57604051926109a184613092565b6109ab8685613591565b87602085015260408401526060830152600160401b811015610a66578060016109d792018455836135fb565b610a5257906109e5916132fa565b545f19810193908411610a3e577fd0664854493294a8d5634b201e2a478d08fe951d2b27278a66f49026bf2ba3b491610a38610a279260405193848094613155565b604060208401526040830190613131565b0390a380f35b634e487b7160e01b85526011600452602485fd5b634e487b7160e01b87526004879052602487fd5b634e487b7160e01b87526041600452602487fd5b60405162461bcd60e51b815260206004820152601b60248201527f546f6f206d616e79207461736b73207065722063616d706169676e00000000006044820152606490fd5b6306dd745b60e41b8752600487fd5b634e487b7160e01b88526021600452602488fd5b60405162461bcd60e51b815260206004820152601a60248201527f496e76616c6964206465736372697074696f6e206c656e6774680000000000006044820152606490fd5b6103e8915011155f61095d565b63275260e560e11b8652600486fd5b630f5611a960e01b8652600486fd5b8580fd5b8480fd5b8380fd5b8280fd5b5034610dc0576020366003190112610dc057600435610b7f613678565b610b87613693565b805f52600260205260405f2090815415610f9e5760ff6005830154166004811015610efe57600203610f8f57335f52600460205260405f20815f5260205260ff60405f205416610f80576007820160ff8154166005811015610efe57600214610f71575f600684018054915b828110610f1257505050335f52600460205260405f20825f5260205260405f20600160ff19825416179055805460ff81166005811015610efe5780610dd757505080546002840154604051636eb1769f60e11b81526001600160a01b0391821660048201819052306024830152909260081c90911690602083604481855afa928315610dcc578793610d94575b506008860154809310610d85576040516323b872dd60e01b81526001600160a01b0391909116600482015233602482015260448101929092526020908290606490829089905af1908115610d7a578591610d3f575b5015610d3057610d2560087f189a1a0a528ab8a05000b87f489363b7178a4575aeccf52c3c0f7f6339a4585f925b54940154604051918291339660ff60018060a01b038260081c169116846134ea565b0390a36001600b5580f35b6356cab7ef60e01b8452600484fd5b90506020813d602011610d72575b81610d5a602093836130ad565b81010312610b5657518015158103610b56575f610cd5565b3d9150610d4d565b6040513d87823e3d90fd5b63bade60ed60e01b8752600487fd5b9092506020813d602011610dc4575b81610db0602093836130ad565b81010312610dc05751915f610c80565b5f80fd5b3d9150610da3565b6040513d89823e3d90fd5b600114610e0c575b50610d2560087f189a1a0a528ab8a05000b87f489363b7178a4575aeccf52c3c0f7f6339a4585f92610d03565b6008848101546040516331a9108f60e11b815260048101829052909290911c6001600160a01b031690602081602481855afa908115610eb5575f91610ecf575b50306001600160a01b0390911603610ec057803b15610dc0576040516323b872dd60e01b815230600482015233602482015260448101929092525f908290606490829084905af18015610eb55715610ddf57610eab9194505f906130ad565b5f92610d25610ddf565b6040513d5f823e3d90fd5b634b35787760e11b5f5260045ffd5b610ef1915060203d602011610ef7575b610ee981836130ad565b8101906136da565b5f610e4c565b503d610edf565b634e487b7160e01b5f52602160045260245ffd5b60ff6003610f2083856135fb565b500154161580610f46575b610f3757600101610bf3565b634ca90fc760e11b5f5260045ffd5b50335f52600360205260405f20855f5260205260405f20815f5260205260ff60405f20541615610f2b565b63290d665760e01b5f5260045ffd5b631ddf0bf160e31b5f5260045ffd5b632c9bee3160e21b5f5260045ffd5b630f5611a960e01b5f5260045ffd5b34610dc0575f366003190112610dc057602060405160648152f35b34610dc0576040366003190112610dc0576001600160a01b03610fe961302f565b165f52600660205260405f206004355f52602052602060ff60405f2054166040519015158152f35b34610dc0575f366003190112610dc05760206040515f8152f35b34610dc057610140366003190112610dc0576004356001600160401b038111610dc05761105c903690600401613113565b6064356001600160401b038111610dc05761107b9036906004016131b7565b6084356001600160401b038111610dc05761109a9036906004016131b7565b906080529260a4356001600160401b038111610dc0576110be9036906004016131b7565b9160c4356001600160401b038111610dc0576110de9036906004016131b7565b949091600560e4351015610dc0576101043560a08190526001600160a01b0381169003610dc05761110d613678565b611115613693565b878214801590611c0a575b8015611c00575b611bc357611133613768565b80518015159081611bb7575b5015611b7c57335f52600760205261012c61115e60405f205442613614565b10611b3757335f5260076020524260405f2055426024351115611b28576024356044351115611b1957610e10611198602435604435613614565b10611b19576301e133806111b0602435604435613614565b11611b19576111c0600154613211565b60c0819052600155602060e0819052604051906111dd90826130ad565b5f8152604051906111ed8261305b565b600282525f60e0518301525f60408301526040519061120b82613076565b60c051825260e051820192848452604083013381526060840160243581526080850191604435835260a08601935f855260c0870195865260e087015260018060e01b0342166101008701525f61012087015260c0515f52600260e0515260405f2096865188556001880190518051906001600160401b0382116118b95761129c82611296855461324f565b8561329d565b60e05190601f8311600114611ab3576112cc92915f9183611aa8575b50508160011b915f199060031b1c19161790565b90555b600287019060018060a01b039051166bffffffffffffffffffffffff60a01b825416179055516003860155516004850155516004811015610efe5761131790600585016132e2565b51805190600160401b82116118b9576006840154826006860155808310611999575b5060e05101600684015f5260e0515f205f915b83831061197a57505050506007820160e08201519182516005811015610efe57600a9361012093604092815460ff610100600160a81b0360e05186015160081b169216906001600160581b0360a81b1617179055015160088501556009840160018060e01b036101008301511663ffffffff60e01b8254161790550151910155335f52600560e0515260405f20805490600160401b8210156118b95760018201808255821015611966575f5260c0519060e0515f200155335f52600860e0515260405f2061141a8154613211565b905561143160405191606083526060830190613131565b60243560e05183015260443560408301527fdc26653af5b99b2da33e2ad69ee6600d9aeccc82b034501db4338309615ca23833928060c051930390a35f5b8181106116eb5761148560ff600c5416156134a9565b60c0515f52600260e0515260405f205415610f9e5760c0515f52600260e051523360018060a01b03600260405f20015416036116dc5760c0515f52600260e0515260405f2060ff6005820154166004811015610efe576116cd576007810180549060ff82166005811015610efe576002036116be575f60e4351580156116b0575b81811561169e575b50611605575b610efe57600260e43514806115f9575b6115ea57604051906115358261305b565b61154160e43583613243565b60e05160a0516001600160a01b03169083019081526101243560408401908152925190936005821015610efe5760ff600895610100600160a81b039051871b169216906001600160581b0360a81b1617179055519101556040517fc07a9b3aaa057840b17ed5326fe739d11c2a7ffc46914aee58495f51fc76371a60c05191806115d46101243560a05160e435846134ea565b0390a26001600b5560405160c051815260e05190f35b63203cde7560e01b5f5260045ffd5b50610124351515611524565b60a0516001600160a01b0316156116605760a0513b6115145760405162461bcd60e51b815260e05160048201526019602482015278546f6b656e206164647265737320686173206e6f20636f646560381b6044820152606490fd5b60405162461bcd60e51b815260e05160048201526015602482015274496e76616c696420746f6b656e206164647265737360581b6044820152606490fd5b9050610efe57600360e435148161150e565b50505f600160e43514611506565b63790f062760e01b5f5260045ffd5b6306dd745b60e41b5f5260045ffd5b63275260e560e11b5f5260045ffd5b6116f6818389613a1a565b3590600b821015610dc05761170e818a608051613a2a565b611719838989613a2a565b9290611726858c8a613a1a565b35928315158403610dc057611748926117409136916130ce565b9336916130ce565b9061175860ff600c5416156134a9565b60c0515f52600260e0515260405f205415610f9e5760c0515f52600260e051523360018060a01b03600260405f20015416036116dc5782518015159081611959575b50156119135760c0515f52600260e0515260405f209060ff6005830154166004811015610efe576116cd5760068201549060148210156118cd57604051936117e185613092565b6117eb8886613591565b8560e051860152604085015215156060840152600160401b8110156118b95780600161182092016006840155600683016135fb565b6118a657600692611830916132fa565b01545f19810191908211611892577fd0664854493294a8d5634b201e2a478d08fe951d2b27278a66f49026bf2ba3b460019461186f6040518092613155565b604060e0518201528061188960c051946040830190613131565b0390a30161146f565b634e487b7160e01b5f52601160045260245ffd5b634e487b7160e01b5f525f60045260245ffd5b634e487b7160e01b5f52604160045260245ffd5b60405162461bcd60e51b815260e0516004820152601b60248201527f546f6f206d616e79207461736b73207065722063616d706169676e00000000006044820152606490fd5b60405162461bcd60e51b815260e0516004820152601a60248201527f496e76616c6964206465736372697074696f6e206c656e6774680000000000006044820152606490fd5b6103e8915011158d61179a565b634e487b7160e01b5f52603260045260245ffd5b60048161198a60019351856132fa565b60e0510192019201919061134c565b6001600160fe1b0381168103611892576001600160fe1b038316830361189257600685015f5260e0515f208360021b81015b8260021b820181106119de575050611339565b805f60049255600181016119f2815461324f565b9081611a63575b505060028101611a09815461324f565b9081611a1e575b50505f6003820155016119cb565b81601f5f9311600114611a355750555b5f80611a10565b81835260e0518320611a5291601f0160051c810190600101613287565b8082528160e0518120915555611a2e565b81601f5f9311600114611a7a5750555b5f806119f9565b81835260e0518320611a9791601f0160051c810190600101613287565b8082528160e0518120915555611a73565b015190505f806112b8565b90601f19831691845f5260e0515f20925f5b818110611b005750908460019594939210611ae8575b505050811b0190556112cf565b01515f1960f88460031b161c191690555f8080611adb565b82840151855560e0516001909501949384019301611ac5565b6323223fc360e01b5f5260045ffd5b63a1c02e1f60e01b5f5260045ffd5b60405162461bcd60e51b815260206004820152601c60248201527f52617465206c696d69743a20746f6f206d616e7920616374696f6e73000000006044820152606490fd5b60405162461bcd60e51b8152602060048201526013602482015272092dcecc2d8d2c840dcc2daca40d8cadccee8d606b1b6044820152606490fd5b60c8915011158961113f565b60405162461bcd60e51b8152602060048201526015602482015274082e4e4c2f240d8cadccee8d040dad2e6dac2e8c6d605b1b6044820152606490fd5b5085821415611127565b5084821415611120565b34610dc0576040366003190112610dc057611c2d61302f565b6004355f525f60205260405f209060018060a01b03165f52602052602060ff60405f2054166040519015158152f35b34610dc0575f366003190112610dc05760206040516301e133808152f35b34610dc0575f366003190112610dc0576020604051610e108152f35b34610dc057611ca436613045565b611cac61321f565b50815f52600260205260405f205415610f9e57815f526002602052600660405f200154811015611d0e57611cf4611cfa916102d9935f526002602052600660405f20016135fb565b5061359d565b604051918291602083526020830190613162565b631d1ac06360e01b5f5260045ffd5b34610dc0576020366003190112610dc057611d36613019565b335f9081527fad3228b676f7d3cd4284a5443f17f1962b36e491b30a40b2405849e597ba5fb5602052604090205460ff1615611d7757611d7590613909565b005b63e2517d3f60e01b5f52336004525f60245260445ffd5b34610dc0575f366003190112610dc0576020600154604051908152f35b34610dc0575f366003190112610dc05760206040515f516020613a6c5f395f51905f528152f35b34610dc0575f366003190112610dc057602060ff600c54166040519015158152f35b34610dc0576020366003190112610dc0576004355f610120604051611e1881613076565b828152606060208201528260408201528260608201528260808201528260a0820152606060c0820152604051611e4d8161305b565b83815283602082015283604082015260e0820152826101008201520152805f52600260205260405f205415610f9e575f52600260205260405f20604051611e9381613076565b81548152604051611eb281611eab8160018701613510565b03826130ad565b6020820190815260018060a01b0360028401541690604083019182526003840154936060840194855260048101546080850190815260ff60058301541660a08601906004811015610efe578152600683019182546001600160401b0381116118b95760208160051b0193611f2960405195866130ad565b81855260208501905f5260205f205f915b8383106120ac575050505060c0870192835260405197611f598961305b565b6007850154611f6b60ff82168b613243565b60018060a01b039060081c1660208a0152600885015460408a015260e08801988952611fd5600a60018060e01b03600988015416966101008b019788520154966101208a019788526040519960208b525160208b01525161018060408b01526101a08a0190613131565b96516001600160a01b031660608901525160808801525160a0870152516004811015610efe5760c08601525192601f198582030160e0860152835180825260208201916020808360051b8301019601925f915b83831061207f5750505050506040849551612048610100870182516131aa565b60208101516001600160a01b03166101208701520151610140850152516001600160e01b0316610160840152516101808301520390f35b909192939660208061209d600193601f198682030187528b51613162565b99019301930191939290612028565b600460206001926120bc8561359d565b815201920192019190611f3a565b34610dc0575f366003190112610dc0576120e26136f9565b6120ea613678565b600160ff19600c541617600c557f62e78cea01bee320cd4e420270b5ea74000d11b0c9f74754ebdbfc544b05a2586020604051338152a16040514281527f6eae7d8f48015fddc9502717696ac737bec3d20c703c3958a689f8f48574718360203392a2005b34610dc0575f366003190112610dc0576121676136f9565b600c5460ff8116156121d25760ff1916600c557f5db9ee0a495bf2e6ff9c91a7834c1ba4fdd244a5e8aa4e537bd38aeae4b073aa6020604051338152a16040514281527f3fc6beefa3f4115babe1a3d46940222e37b39b9ef03dc7b79f832dbcc3da6abf60203392a2005b638dfc202b60e01b5f5260045ffd5b34610dc0576080366003190112610dc0576004356024356005811015610dc0576044356001600160a01b03811691828203610dc0576064359261222960ff600c5416156134a9565b845f52600260205260405f205415610f9e575f85815260026020819052604090912001546001600160a01b031633036116dc57845f52600260205260405f209360ff6005860154166004811015610efe576116cd57600785019485549260ff84166005811015610efe576002036116be575f851580156123f8575b8181156123e8575b5061235e575b610efe576002851480612355575b6115ea576040516122d08161305b565b6122da8682613243565b60208101918252604081019084825251976005891015610efe577fc07a9b3aaa057840b17ed5326fe739d11c2a7ffc46914aee58495f51fc76371a986123509660ff600895610100600160a81b039051871b169216906001600160581b0360a81b161717905551910155604051938493846134ea565b0390a2005b508215156122c0565b81156123ab57863b6122b25760405162461bcd60e51b8152602060048201526019602482015278546f6b656e206164647265737320686173206e6f20636f646560381b6044820152606490fd5b60405162461bcd60e51b8152602060048201526015602482015274496e76616c696420746f6b656e206164647265737360581b6044820152606490fd5b9050610efe5760038614816122ac565b50505f600186146122a4565b34610dc0575f366003190112610dc057602060405161012c8152f35b34610dc0576040366003190112610dc05761243961302f565b336001600160a01b0382160361245557611d759060043561399a565b63334bd91960e11b5f5260045ffd5b34610dc0576060366003190112610dc0576004356001600160401b038111610dc057612494903690600401613113565b61249c613768565b80518015159081612964575b5015611b7c57335f52600760205261012c6124c760405f205442613614565b10611b3757335f5260076020524260405f2055426024351115611b28576024356044351115611b1957610e10612501602435604435613614565b10611b19576301e13380612519602435604435613614565b11611b1957612529600154613211565b8060015560209160405161253d84826130ad565b5f81526040519061254d8261305b565b600282525f858301525f60408301526040519061256982613076565b84825285820192848452604083013381526060840160243581526080850191604435835260a08601935f855260c0870195865260e087015260018060e01b0342166101008701525f610120870152885f5260028a5260405f2096865188555180516001600160401b0381116118b9576125f2816125e960018c015461324f565b60018c0161329d565b8b8c601f83116001146128f957508190612620935f926128ee5750508160011b915f199060031b1c19161790565b60018801555b600287019060018060a01b039051166bffffffffffffffffffffffff60a01b825416179055516003860155516004850155516004811015610efe5761266e90600585016132e2565b518051906006840190600160401b83116118b957879082548484558085106127d7575b5001905f52865f20875f925b8484106127b85750505050506007820160e08201519182516005811015610efe57600a9361012093604092815460ff610100600160a81b038d86015160081b169216906001600160581b0360a81b1617179055015160088501556009840160018060e01b036101008301511663ffffffff60e01b8254161790550151910155335f526005835260405f208054600160401b8110156118b957600181018083558110156119665783915f52845f200155335f526008835260405f206127618154613211565b9055817fdc26653af5b99b2da33e2ad69ee6600d9aeccc82b034501db4338309615ca23861279a60405193606085526060850190613131565b926024358682015260443560408201528033940390a3604051908152f35b600191816127c960049351866132fa565b01920192019190889061269d565b9091506001600160fe1b0381168103611892576001600160fe1b038416840361189257908891835f52825f209060021b8101908560021b015b81811061281d5750612691565b6004919293505f815560018101612834815461324f565b908c826128ab575b5050506002810161284d815461324f565b908c82612868575b5050505f60038201550190899291612810565b82601f5f9411600114612881575050555b8b808c612855565b6001601f61289c938587528620920160051c82019101613287565b808252818d8120915555612879565b82601f5f94116001146128c4575050555b8b808c61283c565b6001601f6128df938587528620920160051c82019101613287565b808252818d81209155556128bc565b015190508d806112b8565b9192601f19841660018c015f52835f20935f905b82821061294c575050908460019594939210612934575b505050811b016001880155612626565b01515f1960f88460031b161c191690558c8080612924565b8060018697829497870151815501960194019061290d565b60c891501115826124a8565b34610dc0576040366003190112610dc057611d7560043561298f61302f565b906129a86104ae825f525f602052600160405f20015490565b613881565b34610dc0576020366003190112610dc05760206129d76004355f525f602052600160405f20015490565b604051908152f35b34610dc0576129ed36613045565b906129f6613678565b6129fe613693565b805f52600260205260405f2060038101544210159081612e31575b5015612dec57805f52600260205260405f20805415610f9e5760ff6005820154166004811015610efe57600103612ddd57600681018054841015611d0e57335f52600360205260405f20835f5260205260405f20845f5260205260ff60405f205416612dce57335f526009602052606460405f20541015612d7957335f526007602052601e612aac60405f205442613614565b10612d3b5783612abb916135fb565b5060ff815416600b811015610efe5760098103612c6b57506002016034612ae2825461324f565b03612c5c576024612b0f611eab612b0160209460405192838092613510565b8380825183010191016136b3565b6040516370a0823160e01b815233600482015290939092909183919082906001600160a01b03165afa908115610eb5575f91612c2a575b5010612c1b575b335f52600360205260405f20825f5260205260405f20835f5260205260405f20600160ff19825416179055335f52600660205260405f20825f5260205260ff60405f20541615612bd6575b5033907f67cf8439b7b4e38eb8bbfb33a19e4f9b9b8b3fae5c79a1c4780c12e649e64b285f80a4335f5260076020524260405f20556001600b555f80f35b600a01612be8620186a0825410613621565b335f52600660205260405f20825f5260205260405f20600160ff19825416179055612c138154613211565b905582612b98565b638b1e418760e01b5f5260045ffd5b90506020813d602011612c54575b81612c45602093836130ad565b81010312610dc0575185612b46565b3d9150612c38565b6373074c4b60e11b5f5260045ffd5b600a8103612d2357506002016034612c83825461324f565b03612c5c57612cae611eab612ca060209360405192838092613510565b8280825183010191016136b3565b6040516331a9108f60e11b815260048101919091529190829060249082906001600160a01b03165afa908115610eb5575f91612d04575b506001600160a01b03163314612b4d57633d28cf7360e01b5f5260045ffd5b612d1d915060203d602011610ef757610ee981836130ad565b84612ce5565b6004915003612b4d57631e3072cd60e31b5f5260045ffd5b60405162461bcd60e51b8152602060048201526016602482015275546f6f206d616e7920726170696420616374696f6e7360501b6044820152606490fd5b60405162461bcd60e51b815260206004820152602760248201527f4163636f756e7420666c616767656420666f7220737573706963696f757320616044820152666374697669747960c81b6064820152608490fd5b6353d366db60e11b5f5260045ffd5b6363b4791760e01b5f5260045ffd5b60405162461bcd60e51b815260206004820152601d60248201527f43616d706169676e206e6f7420696e2061637469766520706572696f640000006044820152606490fd5b60049150015442111583612a19565b34610dc0576020366003190112610dc0576001600160a01b03612e61613019565b165f52600560205260405f20604051806020835491828152019081935f5260205f20905f5b818110612ede5750505081612e9c9103826130ad565b604051918291602083019060208452518091526040830191905f5b818110612ec5575050500390f35b8251845285945060209384019390920191600101612eb7565b8254845260209093019260019283019201612e86565b34610dc0576020366003190112610dc057600435612f10613678565b612f1f60ff600c5416156134a9565b805f52600260205260405f205415610f9e575f81815260026020819052604090912001546001600160a01b031633036116dc57805f526002602052600560405f200160ff8154166004811015610efe576116cd57600160ff198254161790557f1289cf89aaaed53d6590c1b7996ba434edb31dcbd322d0b88ff0c02f64bbdeef602060405160018152a2005b34610dc0575f366003190112610dc0576020604051603c8152f35b34610dc0576020366003190112610dc0576004359063ffffffff60e01b8216809203610dc057602091637965db0b60e01b8114908115613008575b5015158152f35b6301ffc9a760e01b14905083613001565b600435906001600160a01b0382168203610dc057565b602435906001600160a01b0382168203610dc057565b6040906003190112610dc0576004359060243590565b606081019081106001600160401b038211176118b957604052565b61014081019081106001600160401b038211176118b957604052565b608081019081106001600160401b038211176118b957604052565b90601f801991011681019081106001600160401b038211176118b957604052565b9291926001600160401b0382116118b957604051916130f7601f8201601f1916602001846130ad565b829481845281830111610dc0578281602093845f960137010152565b9080601f83011215610dc05781602061312e933591016130ce565b90565b805180835260209291819084018484015e5f828201840152601f01601f1916010190565b90600b821015610efe5752565b9061316e818351613155565b60608061319f61318d6020860151608060208701526080860190613131565b60408601518582036040870152613131565b930151151591015290565b906005821015610efe5752565b9181601f84011215610dc0578235916001600160401b038311610dc0576020808501948460051b010111610dc057565b6060906003190112610dc057600435906024356001600160a01b0381168103610dc0579060443590565b5f1981146118925760010190565b6040519061322c82613092565b5f6060838281528160208201528160408201520152565b6005821015610efe5752565b90600182811c9216801561327d575b602083101461326957565b634e487b7160e01b5f52602260045260245ffd5b91607f169161325e565b818110613292575050565b5f8155600101613287565b9190601f81116132ac57505050565b6132d6925f5260205f20906020601f840160051c830193106132d8575b601f0160051c0190613287565b565b90915081906132c9565b906004811015610efe5760ff80198354169116179055565b8151600b811015610efe5760ff801983541691161781556001810160208301518051906001600160401b0382116118b95761333982611296855461324f565b602090601f83116001146134465761336792915f9183611aa85750508160011b915f199060031b1c19161790565b90555b6002810160408301518051906001600160401b0382116118b95761339282611296855461324f565b602090601f83116001146133de578260609593600395936133c7935f92611aa85750508160011b915f199060031b1c19161790565b90555b01910151151560ff80198354169116179055565b90601f19831691845f52815f20925f5b81811061342e5750926001928592606098966003989610613417575b505050811b0190556133ca565b01515f1983881b60f8161c191690555f808061340a565b929360206001819287860151815501950193016133ee565b90601f19831691845f52815f20925f5b8181106134915750908460019594939210613479575b505050811b01905561336a565b01515f1960f88460031b161c191690555f808061346c565b92936020600181928786015181550195019301613456565b156134b057565b60405162461bcd60e51b815260206004820152601260248201527110dbdb9d1c9858dd081a5cc81c185d5cd95960721b6044820152606490fd5b6040919493926134fe8260608101976131aa565b6001600160a01b031660208201520152565b5f929181549161351f8361324f565b8083529260018116908115613574575060011461353b57505050565b5f9081526020812093945091925b83831061355a575060209250010190565b600181602092949394548385870101520191019190613549565b915050602093945060ff929192191683830152151560051b010190565b600b821015610efe5752565b906040516135aa81613092565b606060ff600383956135bf8382541686613591565b6040516135d381611eab8160018601613510565b60208601526040516135ec81611eab8160028601613510565b60408601520154161515910152565b8054821015611966575f5260205f209060021b01905f90565b9190820391821161189257565b1561362857565b60405162461bcd60e51b815260206004820152602260248201527f43616d706169676e207061727469636970616e74206c696d6974207265616368604482015261195960f21b6064820152608490fd5b60ff600c541661368457565b63d93c066560e01b5f5260045ffd5b6002600b54146136a4576002600b55565b633ee5aeb560e01b5f5260045ffd5b9190826040910312610dc05781516001600160a01b0381168103610dc05760209092015190565b90816020910312610dc057516001600160a01b0381168103610dc05790565b335f9081527fac55d60145c2b1e72232130507b090ddd2cd26daa31eeab1e3e64b89140e668d602052604090205460ff161561373157565b63e2517d3f60e01b5f52336004527f5c91514091af31f62f596a314af7d5be40146b2f2355969392f055e12e0982fb60245260445ffd5b335f9081525f516020613a8c5f395f51905f52602052604090205460ff161561378d57565b63e2517d3f60e01b5f52336004525f516020613a6c5f395f51905f5260245260445ffd5b5f8181526020818152604080832033845290915290205460ff16156137d35750565b63e2517d3f60e01b5f523360045260245260445ffd5b6001600160a01b0381165f9081525f516020613a8c5f395f51905f52602052604090205460ff1661387c576001600160a01b03165f8181525f516020613a8c5f395f51905f5260205260408120805460ff191660011790553391905f516020613a6c5f395f51905f52907f2f8788117e7eff1d82e926ec794901d17c78024a50270940304540a733656f0d9080a4600190565b505f90565b5f818152602081815260408083206001600160a01b038616845290915290205460ff16613903575f818152602081815260408083206001600160a01b0395909516808452949091528120805460ff19166001179055339291907f2f8788117e7eff1d82e926ec794901d17c78024a50270940304540a733656f0d9080a4600190565b50505f90565b6001600160a01b0381165f9081525f516020613a8c5f395f51905f52602052604090205460ff161561387c576001600160a01b03165f8181525f516020613a8c5f395f51905f5260205260408120805460ff191690553391905f516020613a6c5f395f51905f52907ff6391f5c32d9c69d2a47ea670b442974b53935d1edc7fd64eb21e047a839171b9080a4600190565b5f818152602081815260408083206001600160a01b038616845290915290205460ff1615613903575f818152602081815260408083206001600160a01b0395909516808452949091528120805460ff19169055339291907ff6391f5c32d9c69d2a47ea670b442974b53935d1edc7fd64eb21e047a839171b9080a4600190565b91908110156119665760051b0190565b91908110156119665760051b81013590601e1981360301821215610dc05701908135916001600160401b038311610dc0576020018236038113610dc057919056feffea912cee438c2ace68bb665a205db5afc1aaf31713688b377348fe4bfc04f505d0266d92a165c0409de8243ef44328a30b31530682f3bbbd3cd3f1cea0fb64a2646970667358221220d56ac5444e6e8a0533ab3acb038fd7d6509c8be20038411d190e38820b1fcdd264736f6c634300081f00332f8788117e7eff1d82e926ec794901d17c78024a50270940304540a733656f0d05d0266d92a165c0409de8243ef44328a30b31530682f3bbbd3cd3f1cea0fb64ac55d60145c2b1e72232130507b090ddd2cd26daa31eeab1e3e64b89140e668dad3228b676f7d3cd4284a5443f17f1962b36e491b30a40b2405849e597ba5fb5",
    "linkReferences": {}
  },
  "methodIdentifiers": {
    "DEFAULT_ADMIN_ROLE()": "a217fddf",
    "EMERGENCY_ADMIN()": "d6585ecf",
    "HOST_ROLE()": "68e978b1",
    "JOIN_COOLDOWN()": "0a839b4c",
    "MAX_CAMPAIGN_DURATION()": "8c7bc838",
    "MAX_PARTICIPANTS()": "f3baf070",
    "MAX_SUSPICIOUS_SCORE()": "a3a0ef1c",
    "MIN_CAMPAIGN_DURATION()": "8aea3dc9",
    "RATE_LIMIT_COOLDOWN()": "375a23c7",
    "VERSION()": "ffa1ad74",
    "addTaskToCampaign(uint256,uint8,string,bytes,bool)": "afbce5fd",
    "claimReward(uint256)": "ae169a50",
    "closeCampaign(uint256)": "b0e1c1e1",
    "completeTask(uint256,uint256)": "108c8ae4",
    "createCampaign(string,uint256,uint256)": "3020580b",
    "createCampaignWithTasksAndReward(string,uint256,uint256,uint8[],string[],bytes[],bool[],uint8,address,uint256)": "93a807af",
    "emergencyPause()": "51858e27",
    "emergencyUnpause()": "4a4e3bd5",
    "endCampaign(uint256)": "dd0408ae",
    "getCampaign(uint256)": "5598f8cc",
    "getCampaignCount()": "6caa9218",
    "getCampaignTask(uint256,uint256)": "6efa024a",
    "getCampaignsByHost(address)": "0f717b08",
    "getRoleAdmin(bytes32)": "248a9ca3",
    "grantHostRole(address)": "f20cb1a9",
    "grantRole(bytes32,address)": "2f2ff15d",
    "hasClaimedReward(uint256,address)": "c8b727a1",
    "hasCompletedTask(uint256,address,uint256)": "cfebabe6",
    "hasParticipated(uint256,address)": "a34398a2",
    "hasRole(bytes32,address)": "91d14854",
    "openCampaign(uint256)": "0ec9ea17",
    "paused()": "5c975abb",
    "renounceRole(bytes32,address)": "36568abe",
    "revokeHostRole(address)": "6d574491",
    "revokeRole(bytes32,address)": "d547741f",
    "setCampaignReward(uint256,uint8,address,uint256)": "3c3566cd",
    "supportsInterface(bytes4)": "01ffc9a7",
    "verifyTaskCompletion(uint256,address,uint256)": "cafa436b"
  },
  "id": 13
}