{"abi":[{"type":"constructor","inputs":[],"stateMutability":"nonpayable"},{"type":"fallback","stateMutability":"payable"},{"type":"receive","stateMutability":"payable"},{"type":"function","name":"DEFAULT_ADMIN_ROLE","inputs":[],"outputs":[{"name":"","type":"bytes32","internalType":"bytes32"}],"stateMutability":"view"},{"type":"function","name":"EMERGENCY_ADMIN","inputs":[],"outputs":[{"name":"","type":"bytes32","internalType":"bytes32"}],"stateMutability":"view"},{"type":"function","name":"HOST_ROLE","inputs":[],"outputs":[{"name":"","type":"bytes32","internalType":"bytes32"}],"stateMutability":"view"},{"type":"function","name":"JOIN_COOLDOWN","inputs":[],"outputs":[{"name":"","type":"uint256","internalType":"uint256"}],"stateMutability":"view"},{"type":"function","name":"MAX_CAMPAIGN_DURATION","inputs":[],"outputs":[{"name":"","type":"uint256","internalType":"uint256"}],"stateMutability":"view"},{"type":"function","name":"MAX_PARTICIPANTS_LIMIT","inputs":[],"outputs":[{"name":"","type":"uint256","internalType":"uint256"}],"stateMutability":"view"},{"type":"function","name":"MAX_SUSPICIOUS_SCORE","inputs":[],"outputs":[{"name":"","type":"uint256","internalType":"uint256"}],"stateMutability":"view"},{"type":"function","name":"MIN_CAMPAIGN_DURATION","inputs":[],"outputs":[{"name":"","type":"uint256","internalType":"uint256"}],"stateMutability":"view"},{"type":"function","name":"RATE_LIMIT_COOLDOWN","inputs":[],"outputs":[{"name":"","type":"uint256","internalType":"uint256"}],"stateMutability":"view"},{"type":"function","name":"VERSION","inputs":[],"outputs":[{"name":"","type":"string","internalType":"string"}],"stateMutability":"view"},{"type":"function","name":"addTaskToCampaign","inputs":[{"name":"_campaignId","type":"uint256","internalType":"uint256"},{"name":"_taskType","type":"uint8","internalType":"enum CampaignStorage.TaskType"},{"name":"_description","type":"string","internalType":"string"},{"name":"_verificationData","type":"bytes","internalType":"bytes"},{"name":"_isOptional","type":"bool","internalType":"bool"}],"outputs":[],"stateMutability":"nonpayable"},{"type":"function","name":"claimReward","inputs":[{"name":"_campaignId","type":"uint256","internalType":"uint256"}],"outputs":[],"stateMutability":"nonpayable"},{"type":"function","name":"closeCampaign","inputs":[{"name":"_campaignId","type":"uint256","internalType":"uint256"}],"outputs":[],"stateMutability":"nonpayable"},{"type":"function","name":"completeTask","inputs":[{"name":"_campaignId","type":"uint256","internalType":"uint256"},{"name":"_taskIndex","type":"uint256","internalType":"uint256"}],"outputs":[],"stateMutability":"nonpayable"},{"type":"function","name":"createCampaign","inputs":[{"name":"_name","type":"string","internalType":"string"},{"name":"_startTime","type":"uint256","internalType":"uint256"},{"name":"_endTime","type":"uint256","internalType":"uint256"}],"outputs":[{"name":"","type":"uint256","internalType":"uint256"}],"stateMutability":"nonpayable"},{"type":"function","name":"emergencyPause","inputs":[],"outputs":[],"stateMutability":"nonpayable"},{"type":"function","name":"emergencyUnpause","inputs":[],"outputs":[],"stateMutability":"nonpayable"},{"type":"function","name":"endCampaign","inputs":[{"name":"_campaignId","type":"uint256","internalType":"uint256"}],"outputs":[],"stateMutability":"nonpayable"},{"type":"function","name":"getCampaign","inputs":[{"name":"_campaignId","type":"uint256","internalType":"uint256"}],"outputs":[{"name":"","type":"tuple","internalType":"struct CampaignStorage.Campaign","components":[{"name":"id","type":"uint256","internalType":"uint256"},{"name":"name","type":"string","internalType":"string"},{"name":"host","type":"address","internalType":"address"},{"name":"startTime","type":"uint256","internalType":"uint256"},{"name":"endTime","type":"uint256","internalType":"uint256"},{"name":"status","type":"uint8","internalType":"enum CampaignStorage.CampaignStatus"},{"name":"tasks","type":"tuple[]","internalType":"struct CampaignStorage.CampaignTask[]","components":[{"name":"taskType","type":"uint8","internalType":"enum CampaignStorage.TaskType"},{"name":"description","type":"string","internalType":"string"},{"name":"verificationData","type":"bytes","internalType":"bytes"},{"name":"isOptional","type":"bool","internalType":"bool"}]},{"name":"reward","type":"tuple","internalType":"struct CampaignStorage.CampaignReward","components":[{"name":"rewardType","type":"uint8","internalType":"enum CampaignStorage.RewardType"},{"name":"tokenAddress","type":"address","internalType":"address"},{"name":"amountOrTokenId","type":"uint256","internalType":"uint256"}]},{"name":"createdAt","type":"uint224","internalType":"uint224"},{"name":"totalParticipants","type":"uint256","internalType":"uint256"}]}],"stateMutability":"view"},{"type":"function","name":"getCampaignCount","inputs":[],"outputs":[{"name":"","type":"uint256","internalType":"uint256"}],"stateMutability":"view"},{"type":"function","name":"getCampaignTask","inputs":[{"name":"_campaignId","type":"uint256","internalType":"uint256"},{"name":"_taskIndex","type":"uint256","internalType":"uint256"}],"outputs":[{"name":"","type":"tuple","internalType":"struct CampaignStorage.CampaignTask","components":[{"name":"taskType","type":"uint8","internalType":"enum CampaignStorage.TaskType"},{"name":"description","type":"string","internalType":"string"},{"name":"verificationData","type":"bytes","internalType":"bytes"},{"name":"isOptional","type":"bool","internalType":"bool"}]}],"stateMutability":"view"},{"type":"function","name":"getCampaignsByHost","inputs":[{"name":"_host","type":"address","internalType":"address"}],"outputs":[{"name":"","type":"uint256[]","internalType":"uint256[]"}],"stateMutability":"view"},{"type":"function","name":"getRoleAdmin","inputs":[{"name":"role","type":"bytes32","internalType":"bytes32"}],"outputs":[{"name":"","type":"bytes32","internalType":"bytes32"}],"stateMutability":"view"},{"type":"function","name":"grantHostRole","inputs":[{"name":"_account","type":"address","internalType":"address"}],"outputs":[],"stateMutability":"nonpayable"},{"type":"function","name":"grantRole","inputs":[{"name":"role","type":"bytes32","internalType":"bytes32"},{"name":"account","type":"address","internalType":"address"}],"outputs":[],"stateMutability":"nonpayable"},{"type":"function","name":"hasClaimedReward","inputs":[{"name":"_campaignId","type":"uint256","internalType":"uint256"},{"name":"_participant","type":"address","internalType":"address"}],"outputs":[{"name":"","type":"bool","internalType":"bool"}],"stateMutability":"view"},{"type":"function","name":"hasCompletedTask","inputs":[{"name":"_campaignId","type":"uint256","internalType":"uint256"},{"name":"_participant","type":"address","internalType":"address"},{"name":"_taskIndex","type":"uint256","internalType":"uint256"}],"outputs":[{"name":"","type":"bool","internalType":"bool"}],"stateMutability":"view"},{"type":"function","name":"hasParticipated","inputs":[{"name":"_campaignId","type":"uint256","internalType":"uint256"},{"name":"_participant","type":"address","internalType":"address"}],"outputs":[{"name":"","type":"bool","internalType":"bool"}],"stateMutability":"view"},{"type":"function","name":"hasRole","inputs":[{"name":"role","type":"bytes32","internalType":"bytes32"},{"name":"account","type":"address","internalType":"address"}],"outputs":[{"name":"","type":"bool","internalType":"bool"}],"stateMutability":"view"},{"type":"function","name":"openCampaign","inputs":[{"name":"_campaignId","type":"uint256","internalType":"uint256"}],"outputs":[],"stateMutability":"nonpayable"},{"type":"function","name":"paused","inputs":[],"outputs":[{"name":"","type":"bool","internalType":"bool"}],"stateMutability":"view"},{"type":"function","name":"renounceRole","inputs":[{"name":"role","type":"bytes32","internalType":"bytes32"},{"name":"callerConfirmation","type":"address","internalType":"address"}],"outputs":[],"stateMutability":"nonpayable"},{"type":"function","name":"revokeHostRole","inputs":[{"name":"_account","type":"address","internalType":"address"}],"outputs":[],"stateMutability":"nonpayable"},{"type":"function","name":"revokeRole","inputs":[{"name":"role","type":"bytes32","internalType":"bytes32"},{"name":"account","type":"address","internalType":"address"}],"outputs":[],"stateMutability":"nonpayable"},{"type":"function","name":"setCampaignReward","inputs":[{"name":"_campaignId","type":"uint256","internalType":"uint256"},{"name":"_rewardType","type":"uint8","internalType":"enum CampaignStorage.RewardType"},{"name":"_tokenAddress","type":"address","internalType":"address"},{"name":"_amountOrTokenId","type":"uint256","internalType":"uint256"}],"outputs":[],"stateMutability":"nonpayable"},{"type":"function","name":"supportsInterface","inputs":[{"name":"interfaceId","type":"bytes4","internalType":"bytes4"}],"outputs":[{"name":"","type":"bool","internalType":"bool"}],"stateMutability":"view"},{"type":"function","name":"verifyTaskCompletion","inputs":[{"name":"_campaignId","type":"uint256","internalType":"uint256"},{"name":"_participant","type":"address","internalType":"address"},{"name":"_taskIndex","type":"uint256","internalType":"uint256"}],"outputs":[],"stateMutability":"nonpayable"},{"type":"event","name":"CampaignCreated","inputs":[{"name":"campaignId","type":"uint256","indexed":true,"internalType":"uint256"},{"name":"host","type":"address","indexed":true,"internalType":"address"},{"name":"name","type":"string","indexed":false,"internalType":"string"},{"name":"startTime","type":"uint256","indexed":false,"internalType":"uint256"},{"name":"endTime","type":"uint256","indexed":false,"internalType":"uint256"}],"anonymous":false},{"type":"event","name":"CampaignStatusUpdated","inputs":[{"name":"campaignId","type":"uint256","indexed":true,"internalType":"uint256"},{"name":"newStatus","type":"uint8","indexed":false,"internalType":"enum CampaignStorage.CampaignStatus"}],"anonymous":false},{"type":"event","name":"EmergencyPause","inputs":[{"name":"admin","type":"address","indexed":true,"internalType":"address"},{"name":"timestamp","type":"uint256","indexed":false,"internalType":"uint256"}],"anonymous":false},{"type":"event","name":"EmergencyUnpause","inputs":[{"name":"admin","type":"address","indexed":true,"internalType":"address"},{"name":"timestamp","type":"uint256","indexed":false,"internalType":"uint256"}],"anonymous":false},{"type":"event","name":"FundsReceived","inputs":[{"name":"sender","type":"address","indexed":true,"internalType":"address"},{"name":"amount","type":"uint256","indexed":false,"internalType":"uint256"}],"anonymous":false},{"type":"event","name":"ParticipantTaskCompleted","inputs":[{"name":"campaignId","type":"uint256","indexed":true,"internalType":"uint256"},{"name":"participant","type":"address","indexed":true,"internalType":"address"},{"name":"taskId","type":"uint256","indexed":true,"internalType":"uint256"}],"anonymous":false},{"type":"event","name":"Paused","inputs":[{"name":"account","type":"address","indexed":false,"internalType":"address"}],"anonymous":false},{"type":"event","name":"RewardClaimed","inputs":[{"name":"campaignId","type":"uint256","indexed":true,"internalType":"uint256"},{"name":"participant","type":"address","indexed":true,"internalType":"address"},{"name":"rewardType","type":"uint8","indexed":false,"internalType":"enum CampaignStorage.RewardType"},{"name":"tokenAddress","type":"address","indexed":false,"internalType":"address"},{"name":"amountOrTokenId","type":"uint256","indexed":false,"internalType":"uint256"}],"anonymous":false},{"type":"event","name":"RewardSet","inputs":[{"name":"campaignId","type":"uint256","indexed":true,"internalType":"uint256"},{"name":"rewardType","type":"uint8","indexed":false,"internalType":"enum CampaignStorage.RewardType"},{"name":"tokenAddress","type":"address","indexed":false,"internalType":"address"},{"name":"amountOrTokenId","type":"uint256","indexed":false,"internalType":"uint256"}],"anonymous":false},{"type":"event","name":"RoleAdminChanged","inputs":[{"name":"role","type":"bytes32","indexed":true,"internalType":"bytes32"},{"name":"previousAdminRole","type":"bytes32","indexed":true,"internalType":"bytes32"},{"name":"newAdminRole","type":"bytes32","indexed":true,"internalType":"bytes32"}],"anonymous":false},{"type":"event","name":"RoleGranted","inputs":[{"name":"role","type":"bytes32","indexed":true,"internalType":"bytes32"},{"name":"account","type":"address","indexed":true,"internalType":"address"},{"name":"sender","type":"address","indexed":true,"internalType":"address"}],"anonymous":false},{"type":"event","name":"RoleRevoked","inputs":[{"name":"role","type":"bytes32","indexed":true,"internalType":"bytes32"},{"name":"account","type":"address","indexed":true,"internalType":"address"},{"name":"sender","type":"address","indexed":true,"internalType":"address"}],"anonymous":false},{"type":"event","name":"SecurityViolationDetected","inputs":[{"name":"user","type":"address","indexed":true,"internalType":"address"},{"name":"reason","type":"string","indexed":false,"internalType":"string"}],"anonymous":false},{"type":"event","name":"SuspiciousActivity","inputs":[{"name":"user","type":"address","indexed":true,"internalType":"address"},{"name":"activity","type":"string","indexed":false,"internalType":"string"}],"anonymous":false},{"type":"event","name":"TaskAddedToCampaign","inputs":[{"name":"campaignId","type":"uint256","indexed":true,"internalType":"uint256"},{"name":"taskId","type":"uint256","indexed":true,"internalType":"uint256"},{"name":"taskType","type":"uint8","indexed":false,"internalType":"enum CampaignStorage.TaskType"},{"name":"description","type":"string","indexed":false,"internalType":"string"}],"anonymous":false},{"type":"event","name":"Unpaused","inputs":[{"name":"account","type":"address","indexed":false,"internalType":"address"}],"anonymous":false},{"type":"error","name":"AccessControlBadConfirmation","inputs":[]},{"type":"error","name":"AccessControlUnauthorizedAccount","inputs":[{"name":"account","type":"address","internalType":"address"},{"name":"neededRole","type":"bytes32","internalType":"bytes32"}]},{"type":"error","name":"EnforcedPause","inputs":[]},{"type":"error","name":"ExpectedPause","inputs":[]},{"type":"error","name":"ReentrancyGuardReentrantCall","inputs":[]},{"type":"error","name":"Web3Campaigns__AllTasksNotCompleted","inputs":[]},{"type":"error","name":"Web3Campaigns__AlreadyClaimed","inputs":[]},{"type":"error","name":"Web3Campaigns__CallerIsNotHost","inputs":[]},{"type":"error","name":"Web3Campaigns__CampaignAlreadyEnded","inputs":[]},{"type":"error","name":"Web3Campaigns__CampaignAlreadyStarted","inputs":[]},{"type":"error","name":"Web3Campaigns__CampaignEnded","inputs":[]},{"type":"error","name":"Web3Campaigns__CampaignNotFound","inputs":[]},{"type":"error","name":"Web3Campaigns__CampaignNotOpen","inputs":[]},{"type":"error","name":"Web3Campaigns__CampaignNotYetEnded","inputs":[]},{"type":"error","name":"Web3Campaigns__CampaignStartTimeNotYetStrated","inputs":[]},{"type":"error","name":"Web3Campaigns__ERC20TransferFailed","inputs":[]},{"type":"error","name":"Web3Campaigns__ERC721TransferFailed","inputs":[]},{"type":"error","name":"Web3Campaigns__InsufficientERC20Allowance","inputs":[]},{"type":"error","name":"Web3Campaigns__InsufficientERC20Balance","inputs":[]},{"type":"error","name":"Web3Campaigns__InvalidCampaignDuration","inputs":[]},{"type":"error","name":"Web3Campaigns__InvalidRewardAmount","inputs":[]},{"type":"error","name":"Web3Campaigns__InvalidRewardType","inputs":[]},{"type":"error","name":"Web3Campaigns__InvalidTaskType","inputs":[]},{"type":"error","name":"Web3Campaigns__InvalidVerificationData","inputs":[]},{"type":"error","name":"Web3Campaigns__NoRewardSet","inputs":[]},{"type":"error","name":"Web3Campaigns__NotHoldingSpecificERC721","inputs":[]},{"type":"error","name":"Web3Campaigns__PosterCannotAcceptOwnTask","inputs":[]},{"type":"error","name":"Web3Campaigns__RewardAlreadySet","inputs":[]},{"type":"error","name":"Web3Campaigns__TaskAlreadyCompleted","inputs":[]},{"type":"error","name":"Web3Campaigns__TaskNotFound","inputs":[]},{"type":"error","name":"Web3Campaigns__TaskNotVerifiableByHost","inputs":[]},{"type":"error","name":"Web3Campaigns__TransferFailed","inputs":[]}],"bytecode":{"object":"0x6080604052346100275761001161005a565b61001961002c565b615f5e6103938239615f5e90f35b610032565b60405190565b5f80fd5b7f5c91514091af31f62f596a314af7d5be40146b2f2355969392f055e12e0982fb90565b610062610077565b61007461006d610036565b3390610281565b50565b61007f61010d565b565b90565b90565b90565b61009e6100996100a392610081565b610087565b610084565b90565b6100b0600161008a565b90565b5f1b90565b906100c45f19916100b3565b9181191691161790565b6100e26100dd6100e792610084565b610087565b610084565b90565b90565b906101026100fd610109926100ce565b6100ea565b82546100b8565b9055565b610115610129565b6101276101206100a6565b600b6100ed565b565b610131610133565b565b61013b61018f565b565b90565b90565b61015761015261015c9261013d565b6100b3565b610140565b90565b6101685f610143565b90565b7fffea912cee438c2ace68bb665a205db5afc1aaf31713688b377348fe4bfc04f590565b6101a161019a61015f565b3390610281565b506101b46101ad61016b565b3390610281565b50565b5f90565b151590565b6101c990610140565b90565b906101d6906101c0565b5f5260205260405f2090565b60018060a01b031690565b6102016101fc610206926101e2565b610087565b6101e2565b90565b610212906101ed565b90565b61021e90610209565b90565b9061022b90610215565b5f5260205260405f2090565b9061024360ff916100b3565b9181191691161790565b610256906101bb565b90565b90565b9061027161026c6102789261024d565b610259565b8254610237565b9055565b5f0190565b6102896101b7565b5061029e610298828490610358565b156101bb565b5f14610326576102c560016102c05f6102b88186906101cc565b018590610221565b61025c565b906102ce610385565b9061030b6103056102ff7f2f8788117e7eff1d82e926ec794901d17c78024a50270940304540a733656f0d956101c0565b92610215565b92610215565b9261031461002c565b8061031e8161027c565b0390a4600190565b50505f90565b5f1c90565b60ff1690565b6103436103489161032c565b610331565b90565b6103559054610337565b90565b61037e915f6103736103799361036c6101b7565b50826101cc565b01610221565b61034b565b90565b5f90565b61038d610381565b50339056fe6080604052600436101561001d575b366145055761001b614473565b005b6100275f35610276565b806301ffc9a7146102715780630a839b4c1461026c5780630ec9ea17146102675780630f717b0814610262578063108c8ae41461025d578063248a9ca3146102585780632f2ff15d146102535780633020580b1461024e57806336568abe14610249578063375a23c7146102445780633c3566cd1461023f5780634a4e3bd51461023a57806351858e27146102355780635598f8cc146102305780635c975abb1461022b57806368e978b1146102265780636caa9218146102215780636d5744911461021c5780636efa024a146102175780638aea3dc9146102125780638c7bc8381461020d57806391d1485414610208578063a217fddf14610203578063a34398a2146101fe578063a3a0ef1c146101f9578063ae169a50146101f4578063afbce5fd146101ef578063b0e1c1e1146101ea578063c8b727a1146101e5578063cafa436b146101e0578063cf3f8d6c146101db578063cfebabe6146101d6578063d547741f146101d1578063d6585ecf146101cc578063dd0408ae146101c7578063f20cb1a9146101c25763ffa1ad740361000e57611667565b61156a565b611537565b611502565b61149f565b611469565b611434565b6113c7565b611357565b611324565b6112ed565b611177565b611142565b6110d5565b611073565b611002565b610fcd565b610f5e565b610ef0565b610e51565b610e1c565b610de7565b610d83565b610d4e565b6109bd565b61098a565b610953565b6108bb565b61084f565b610819565b6106a8565b610646565b6105ac565b61054a565b610420565b6103a5565b610302565b60e01c90565b60405190565b5f80fd5b5f80fd5b5f80fd5b63ffffffff60e01b1690565b6102a38161028e565b036102aa57565b5f80fd5b905035906102bb8261029a565b565b906020828203126102d6576102d3915f016102ae565b90565b610286565b151590565b6102e9906102db565b9052565b9190610300905f602085019401906102e0565b565b346103325761032e61031d6103183660046102bd565b6116a0565b61032561027c565b918291826102ed565b0390f35b610282565b5f91031261034157565b610286565b90565b90565b90565b61036361035e61036892610346565b61034c565b610349565b90565b610375603c61034f565b90565b61038061036b565b90565b61038c90610349565b9052565b91906103a3905f60208501940190610383565b565b346103d5576103b5366004610337565b6103d16103c0610378565b6103c861027c565b91829182610390565b0390f35b610282565b6103e381610349565b036103ea57565b5f80fd5b905035906103fb826103da565b565b9060208282031261041657610413915f016103ee565b90565b610286565b5f0190565b3461044e576104386104333660046103fd565b6116fe565b61044061027c565b8061044a8161041b565b0390f35b610282565b60018060a01b031690565b61046790610453565b90565b6104738161045e565b0361047a57565b5f80fd5b9050359061048b8261046a565b565b906020828203126104a6576104a3915f0161047e565b90565b610286565b5190565b60209181520190565b60200190565b6104c790610349565b9052565b906104d8816020936104be565b0190565b60200190565b906104ff6104f96104f2846104ab565b80936104af565b926104b8565b905f5b81811061050f5750505090565b90919261052861052260019286516104cb565b946104dc565b9101919091610502565b6105479160208201915f8184039101526104e2565b90565b3461057a5761057661056561056036600461048d565b61182f565b61056d61027c565b91829182610532565b0390f35b610282565b91906040838203126105a7578061059b6105a4925f86016103ee565b936020016103ee565b90565b610286565b346105db576105c56105bf36600461057f565b9061188a565b6105cd61027c565b806105d78161041b565b0390f35b610282565b90565b6105ec816105e0565b036105f357565b5f80fd5b90503590610604826105e3565b565b9060208282031261061f5761061c915f016105f7565b90565b610286565b61062d906105e0565b9052565b9190610644905f60208501940190610624565b565b346106765761067261066161065c366004610606565b6118e0565b61066961027c565b91829182610631565b0390f35b610282565b91906040838203126106a357806106976106a0925f86016105f7565b9360200161047e565b90565b610286565b346106d7576106c16106bb36600461067b565b9061192b565b6106c961027c565b806106d38161041b565b0390f35b610282565b5f80fd5b5f80fd5b601f801991011690565b634e487b7160e01b5f52604160045260245ffd5b9061070c906106e4565b810190811067ffffffffffffffff82111761072657604052565b6106ee565b9061073e61073761027c565b9283610702565b565b67ffffffffffffffff811161075e5761075a6020916106e4565b0190565b6106ee565b90825f939282370152565b9092919261078361077e82610740565b61072b565b9381855260208501908284011161079f5761079d92610763565b565b6106e0565b9080601f830112156107c2578160206107bf9335910161076e565b90565b6106dc565b9091606082840312610814575f82013567ffffffffffffffff811161080f576107f58461080c9285016107a4565b9361080381602086016103ee565b936040016103ee565b90565b61028a565b610286565b3461084a5761084661083561082f3660046107c7565b91612c57565b61083d61027c565b91829182610390565b0390f35b610282565b3461087e5761086861086236600461067b565b90612c6d565b61087061027c565b8061087a8161041b565b0390f35b610282565b90565b61089a61089561089f92610883565b61034c565b610349565b90565b6108ad61012c610886565b90565b6108b86108a2565b90565b346108eb576108cb366004610337565b6108e76108d66108b0565b6108de61027c565b91829182610390565b0390f35b610282565b600411156108fa57565b5f80fd5b9050359061090b826108f0565b565b60808183031261094e57610923825f83016103ee565b9261094b61093484602085016108fe565b93610942816040860161047e565b936060016103ee565b90565b610286565b346109855761096f61096636600461090d565b92919091613126565b61097761027c565b806109818161041b565b0390f35b610282565b346109b85761099a366004610337565b6109a261319d565b6109aa61027c565b806109b48161041b565b0390f35b610282565b346109eb576109cd366004610337565b6109d5613210565b6109dd61027c565b806109e78161041b565b0390f35b610282565b5190565b60209181520190565b90825f9392825e0152565b610a27610a30602093610a3593610a1e816109f0565b938480936109f4565b958691016109fd565b6106e4565b0190565b610a429061045e565b9052565b634e487b7160e01b5f52602160045260245ffd5b60041115610a6457565b610a46565b90610a7382610a5a565b565b610a7e90610a69565b90565b610a8a90610a75565b9052565b5190565b60209181520190565b60200190565b60091115610aab57565b610a46565b90610aba82610aa1565b565b610ac590610ab0565b90565b610ad190610abc565b9052565b5190565b60209181520190565b610b01610b0a602093610b0f93610af881610ad5565b93848093610ad9565b958691016109fd565b6106e4565b0190565b610b1c906102db565b9052565b90610b7190606080610b66610b5460808501610b425f8901515f880190610ac8565b60208801518682036020880152610a08565b60408701518582036040870152610ae2565b940151910190610b13565b90565b90610b7e91610b20565b90565b60200190565b90610b9b610b9483610a8e565b8092610a92565b9081610bac60208302840194610a9b565b925f915b838310610bbf57505050505090565b90919293946020610be1610bdb83856001950387528951610b74565b97610b81565b9301930191939290610bb0565b60041115610bf857565b610a46565b90610c0782610bee565b565b610c1290610bfd565b90565b610c1e90610c09565b9052565b90604080610c5693610c3a5f8201515f860190610c15565b610c4c60208201516020860190610a39565b01519101906104be565b565b60018060e01b031690565b610c6c90610c58565b9052565b90610d3390610160610120610d02610ca86101808501610c965f8901515f8801906104be565b60208801518682036020880152610a08565b610cba60408801516040870190610a39565b610ccc606088015160608701906104be565b610cde608088015160808701906104be565b610cf060a088015160a0870190610a81565b60c087015185820360c0870152610b87565b94610d1560e082015160e0860190610c22565b610d29610100820151610140860190610c63565b01519101906104be565b90565b610d4b9160208201915f818403910152610c70565b90565b34610d7e57610d7a610d69610d643660046103fd565b61376d565b610d7161027c565b91829182610d36565b0390f35b610282565b34610db357610d93366004610337565b610daf610d9e6137d5565b610da661027c565b918291826102ed565b0390f35b610282565b7fffea912cee438c2ace68bb665a205db5afc1aaf31713688b377348fe4bfc04f590565b610de4610db8565b90565b34610e1757610df7366004610337565b610e13610e02610ddc565b610e0a61027c565b91829182610631565b0390f35b610282565b34610e4c57610e2c366004610337565b610e48610e376137eb565b610e3f61027c565b91829182610390565b0390f35b610282565b34610e7f57610e69610e6436600461048d565b613830565b610e7161027c565b80610e7b8161041b565b0390f35b610282565b90610ed590606080610eca610eb860808501610ea65f8901515f880190610ac8565b60208801518682036020880152610a08565b60408701518582036040870152610ae2565b940151910190610b13565b90565b610eed9160208201915f818403910152610e84565b90565b34610f2157610f1d610f0c610f0636600461057f565b9061386e565b610f1461027c565b91829182610ed8565b0390f35b610282565b90565b610f3d610f38610f4292610f26565b61034c565b610349565b90565b610f50610e10610f29565b90565b610f5b610f45565b90565b34610f8e57610f6e366004610337565b610f8a610f79610f53565b610f8161027c565b91829182610390565b0390f35b610282565b90565b610faa610fa5610faf92610f93565b61034c565b610349565b90565b610fbf6301e13380610f96565b90565b610fca610fb2565b90565b34610ffd57610fdd366004610337565b610ff9610fe8610fc2565b610ff061027c565b91829182610390565b0390f35b610282565b346110335761102f61101e61101836600461067b565b90613944565b61102661027c565b918291826102ed565b0390f35b610282565b90565b5f1b90565b61105461104f61105992611038565b61103b565b6105e0565b90565b6110655f611040565b90565b61107061105c565b90565b346110a357611083366004610337565b61109f61108e611068565b61109661027c565b91829182610631565b0390f35b610282565b91906040838203126110d057806110c46110cd925f86016103ee565b9360200161047e565b90565b610286565b34611106576111026110f16110eb3660046110a8565b90613999565b6110f961027c565b918291826102ed565b0390f35b610282565b90565b61112261111d6111279261110b565b61034c565b610349565b90565b611134606461110e565b90565b61113f61112a565b90565b3461117257611152366004610337565b61116e61115d611137565b61116561027c565b91829182610390565b0390f35b610282565b346111a55761118f61118a3660046103fd565b6139fa565b61119761027c565b806111a18161041b565b0390f35b610282565b600911156111b457565b5f80fd5b905035906111c5826111aa565b565b67ffffffffffffffff81116111e5576111e16020916106e4565b0190565b6106ee565b909291926111ff6111fa826111c7565b61072b565b9381855260208501908284011161121b5761121992610763565b565b6106e0565b9080601f8301121561123e5781602061123b933591016111ea565b90565b6106dc565b61124c816102db565b0361125357565b5f80fd5b9050359061126482611243565b565b919060a0838203126112e85761127e815f85016103ee565b9261128c82602083016111b8565b92604082013567ffffffffffffffff81116112e357836112ad9184016107a4565b9260608301359067ffffffffffffffff82116112de576112d2816112db938601611220565b93608001611257565b90565b61028a565b61028a565b610286565b3461131f57611309611300366004611266565b93929092613eaf565b61131161027c565b8061131b8161041b565b0390f35b610282565b346113525761133c6113373660046103fd565b613edc565b61134461027c565b8061134e8161041b565b0390f35b610282565b346113885761138461137361136d3660046110a8565b90613ee7565b61137b61027c565b918291826102ed565b0390f35b610282565b90916060828403126113c2576113bf6113a8845f85016103ee565b936113b6816020860161047e565b936040016103ee565b90565b610286565b346113f6576113e06113da36600461138d565b916142b1565b6113e861027c565b806113f28161041b565b0390f35b610282565b90565b61141261140d611417926113fb565b61034c565b610349565b90565b611426620186a06113fe565b90565b61143161141a565b90565b3461146457611444366004610337565b61146061144f611429565b61145761027c565b91829182610390565b0390f35b610282565b3461149a5761149661148561147f36600461138d565b916142be565b61148d61027c565b918291826102ed565b0390f35b610282565b346114ce576114b86114b236600461067b565b90614319565b6114c061027c565b806114ca8161041b565b0390f35b610282565b7f5c91514091af31f62f596a314af7d5be40146b2f2355969392f055e12e0982fb90565b6114ff6114d3565b90565b3461153257611512366004610337565b61152e61151d6114f7565b61152561027c565b91829182610631565b0390f35b610282565b346115655761154f61154a3660046103fd565b614343565b61155761027c565b806115618161041b565b0390f35b610282565b346115985761158261157d36600461048d565b61434e565b61158a61027c565b806115948161041b565b0390f35b610282565b906115af6115aa83610740565b61072b565b918252565b5f7f302e302e33000000000000000000000000000000000000000000000000000000910152565b6115e5600561159d565b906115f2602083016115b4565b565b6115fc6115db565b90565b6116076115f4565b90565b6116126115ff565b90565b60209181520190565b61163d61164660209361164b93611634816109f0565b93848093611615565b958691016109fd565b6106e4565b0190565b6116649160208201915f81840391015261161e565b90565b3461169757611677366004610337565b61169361168261160a565b61168a61027c565b9182918261164f565b0390f35b610282565b5f90565b6116a861169c565b50806116c36116bd637965db0b60e01b61028e565b9161028e565b149081156116d0575b5090565b6116da915061450a565b5f6116cc565b6116f1906116ec614530565b6116f3565b565b6116fc90614759565b565b611707906116e0565b565b606090565b61172261171d61172792610453565b61034c565b610453565b90565b6117339061170e565b90565b61173f9061172a565b90565b9061174c90611736565b5f5260205260405f2090565b5490565b60209181520190565b5f5260205f2090565b5f1c90565b90565b6117826117879161176e565b611773565b90565b6117949054611776565b90565b60010190565b906117ba6117b46117ad84611758565b809361175c565b92611765565b905f5b8181106117ca5750505090565b9091926117ea6117e46001926117df8761178a565b6104cb565b94611797565b91019190916117bd565b906117fe9161179d565b90565b9061182161181a9261181161027c565b938480926117f4565b0383610702565b565b61182c90611801565b90565b61184661184b9161183e611709565b506005611742565b611823565b90565b906118609161185b614530565b611862565b565b906118749161186f614790565b61187e565b61187c6147f5565b565b90611888916150c8565b565b906118949161184e565b565b5f90565b6118a3906105e0565b90565b906118b09061189a565b5f5260205260405f2090565b90565b6118cb6118d09161176e565b6118bc565b90565b6118dd90546118bf565b90565b60016118f86118fe926118f1611896565b505f6118a6565b016118d3565b90565b9061191c91611917611912826118e0565b6150d4565b61191e565b565b90611928916150e8565b50565b9061193591611901565b565b5f90565b9061195793929161195261194d610db8565b6150d4565b612952565b90565b90565b61197161196c61197692611038565b61034c565b610349565b90565b90565b61199061198b61199592611979565b61034c565b610349565b90565b5f7f496e76616c6964206e616d65206c656e67746800000000000000000000000000910152565b6119cc6013602092611615565b6119d581611998565b0190565b6119ee9060208101905f8183039101526119bf565b90565b156119f857565b611a0061027c565b62461bcd60e51b815280611a16600482016119d9565b0390fd5b611a249054611776565b90565b634e487b7160e01b5f52601160045260245ffd5b611a4490610349565b5f198114611a525760010190565b611a27565b90611a635f199161103b565b9181191691161790565b611a81611a7c611a8692610349565b61034c565b610349565b90565b90565b90611aa1611a9c611aa892611a6d565b611a89565b8254611a57565b9055565b67ffffffffffffffff8111611ac45760208091020190565b6106ee565b90611adb611ad683611aac565b61072b565b918252565b611aea608061072b565b90565b5f90565b606090565b606090565b5f90565b611b07611ae0565b90602080808085611b16611aed565b815201611b21611af1565b815201611b2c611af6565b815201611b37611afb565b81525050565b611b45611aff565b90565b5f5b828110611b5657505050565b602090611b61611b3d565b8184015201611b4a565b90611b90611b7883611ac9565b92602080611b868693611aac565b9201910390611b48565b565b611ba6611ba1611bab92611038565b61034c565b610453565b90565b611bb790611b92565b90565b611bc4606061072b565b90565b90611bd190610bfd565b9052565b90611bdf9061045e565b9052565b90611bed90610349565b9052565b611c05611c00611c0a92610349565b61034c565b610c58565b90565b611c1861014061072b565b90565b52565b90611c2890610a69565b9052565b52565b52565b90611c3c90610c58565b9052565b90611c4a90611a6d565b5f5260205260405f2090565b634e487b7160e01b5f525f60045260245ffd5b611c739051610349565b90565b5190565b634e487b7160e01b5f52602260045260245ffd5b9060016002830492168015611cae575b6020831014611ca957565b611c7a565b91607f1691611c9e565b5f5260205f2090565b601f602091010490565b1b90565b91906008611cea910291611ce45f1984611ccb565b92611ccb565b9181191691161790565b9190611d0a611d05611d1293611a6d565b611a89565b908354611ccf565b9055565b611d2891611d22611937565b91611cf4565b565b5b818110611d36575050565b80611d435f600193611d16565b01611d2b565b9190601f8111611d59575b505050565b611d65611d8a93611cb8565b906020611d7184611cc1565b83019310611d92575b611d8390611cc1565b0190611d2a565b5f8080611d54565b9150611d8381929050611d7a565b1c90565b90611db4905f1990600802611da0565b191690565b81611dc391611da4565b906002021790565b90611dd5816109f0565b9067ffffffffffffffff8211611e9557611df982611df38554611c8e565b85611d49565b602090601f8311600114611e2d57918091611e1c935f92611e21575b5050611db9565b90555b565b90915001515f80611e15565b601f19831691611e3c85611cb8565b925f5b818110611e7d57509160029391856001969410611e63575b50505002019055611e1f565b611e73910151601f841690611da4565b90555f8080611e57565b91936020600181928787015181550195019201611e3f565b6106ee565b90611ea491611dcb565b565b611eb0905161045e565b90565b90611ec460018060a01b039161103b565b9181191691161790565b90565b90611ee6611ee1611eed92611736565b611ece565b8254611eb3565b9055565b611efb9051610a69565b90565b90611f0a60ff9161103b565b9181191691161790565b611f1d90610a69565b90565b90565b90611f38611f33611f3f92611f14565b611f20565b8254611efe565b9055565b5190565b5490565b611f5a611f6091939293610349565b92610349565b91611f6c838202610349565b928184041490151715611f7b57565b611a27565b611f8b906004611f4b565b90565b5f5260205f2090565b90611faa905f1990602003600802611da0565b8154169055565b905f91611fc8611fc082611cb8565b928354611db9565b905555565b919290602082105f1461202657601f8411600114611ff657611ff0929350611db9565b90555b5b565b509061201c61202193600161201361200d85611cb8565b92611cc1565b82019101611d2a565b611fb1565b611ff3565b5061205d8293612037600194611cb8565b61205661204385611cc1565b820192601f861680612068575b50611cc1565b0190611d2a565b600202179055611ff4565b61207490888603611f97565b5f612050565b9290916801000000000000000082116120da576020115f146120cb57602081105f146120af576120a991611db9565b90555b5b565b60019160ff19166120bf84611cb8565b556002020190556120ac565b600191506002020190556120ad565b6106ee565b9081546120eb81611c8e565b90818311612114575b818310612102575b50505050565b61210b93611fcd565b5f8080806120fc565b6121208383838761207a565b6120f4565b5f61212f916120df565b565b905f036121435761214190612125565b565b611c56565b5f5260205f2090565b905f9161216861216082612148565b928354611db9565b905555565b919290602082105f146121c657601f841160011461219657612190929350611db9565b90555b5b565b50906121bc6121c19360016121b36121ad85612148565b92611cc1565b82019101611d2a565b612151565b612193565b506121fd82936121d7600194612148565b6121f66121e385611cc1565b820192601f861680612208575b50611cc1565b0190611d2a565b600202179055612194565b61221490888603611f97565b5f6121f0565b92909168010000000000000000821161227a576020115f1461226b57602081105f1461224f5761224991611db9565b90555b5b565b60019160ff191661225f84612148565b5560020201905561224c565b6001915060020201905561224d565b6106ee565b90815461228b81611c8e565b908183116122b4575b8183106122a2575b50505050565b6122ab9361216d565b5f80808061229c565b6122c08383838761221a565b612294565b5f6122cf9161227f565b565b905f036122e3576122e1906122c5565b565b611c56565b60035f9182808201556122fe8360018301612131565b61230b83600283016122d1565b0155565b905f036123215761231f906122e8565b565b611c56565b5b818110612332575050565b8061233f5f60049361230f565b01612327565b9091828110612354575b505050565b61237261236c61236661237d95611f80565b92611f80565b92611f8e565b918201910190612326565b5f808061234f565b906801000000000000000081116123ae57816123a36123ac93611f47565b90828155612345565b565b6106ee565b5190565b6123c19051610ab0565b90565b6123cd90610ab0565b90565b90565b906123e86123e36123ef926123c4565b6123d0565b8254611efe565b9055565b5190565b9190601f8111612407575b505050565b61241361243893612148565b90602061241f84611cc1565b83019310612440575b61243190611cc1565b0190611d2a565b5f8080612402565b915061243181929050612428565b9061245881610ad5565b9067ffffffffffffffff82116125185761247c826124768554611c8e565b856123f7565b602090601f83116001146124b05791809161249f935f926124a4575b5050611db9565b90555b565b90915001515f80612498565b601f198316916124bf85612148565b925f5b818110612500575091600293918560019694106124e6575b505050020190556124a2565b6124f6910151601f841690611da4565b90555f80806124da565b919360206001819287870151815501950192016124c2565b6106ee565b906125279161244e565b565b61253390516102db565b90565b61253f906102db565b90565b90565b9061255a61255561256192612536565b612542565b8254611efe565b9055565b906125c2606060036125c8946125885f82016125825f88016123b7565b906123d3565b6125a16001820161259b60208801611c76565b90611e9a565b6125ba600282016125b4604088016123f3565b9061251d565b019201612529565b90612545565b565b906125d491612565565b565b6125fb6125f56125e584610a8e565b936125f08585612385565b610a9b565b91611f8e565b5f915b83831061260b5750505050565b600460208261262461261e6001956123b3565b866125ca565b019201920191906125fe565b9061263a916125d6565b565b5190565b61264a9051610bfd565b90565b61265690610bfd565b90565b90565b9061267161266c6126789261264d565b612659565b8254611efe565b9055565b60081b90565b90612695610100600160a81b039161267c565b9181191691161790565b906126b46126af6126bb92611736565b611ece565b8254612682565b9055565b9061270260406001612708946126e25f82016126dc5f8801612640565b9061265c565b6126fa5f82016126f460208801611ea6565b9061269f565b019201611c69565b90611a8c565b565b90612714916126bf565b565b6127209051610c58565b90565b9061273460018060e01b039161103b565b9181191691161790565b61275261274d61275792610c58565b61034c565b610c58565b90565b90565b9061277261276d6127799261273e565b61275a565b8254612723565b9055565b90612872610120600a612878946127a15f820161279b5f8801611c69565b90611a8c565b6127ba600182016127b460208801611c76565b90611e9a565b6127d3600282016127cd60408801611ea6565b90611ed1565b6127ec600382016127e660608801611c69565b90611a8c565b612805600482016127ff60808801611c69565b90611a8c565b61281e6005820161281860a08801611ef1565b90611f23565b6128376006820161283160c08801611f43565b90612630565b6128506007820161284a60e0880161263c565b9061270a565b61286a600982016128646101008801612716565b9061275d565b019201611c69565b90611a8c565b565b906128849161277d565b565b90565b5f5260205f2090565b634e487b7160e01b5f52603260045260245ffd5b5490565b6128b3816128a6565b8210156128cd576128c5600191612889565b910201905f90565b612892565b908154916801000000000000000083101561290257826128fa916001612900950181556128aa565b90611cf4565b565b6106ee565b9061291190611736565b5f5260205260405f2090565b60409061294961293e6129509597969460608401908482035f86015261161e565b966020830190610383565b0190610383565b565b5061296461295f8261195a565b610ad5565b6129766129705f61195d565b91610349565b1180612c26575b612986906119f1565b61298f33615215565b61299a82849061526d565b6129b56129af6129a8610db8565b3390613944565b156102db565b612c0e575b816129cd6129c742610349565b91610349565b1115612bf257826129e66129e084610349565b91610349565b1115612bd6576129f66001611a1a565b6129ff90611a3b565b612a0a906001611a8c565b612a146001611a1a565b9283823385845f5f612a259061195d565b612a2e90611b6b565b915f935f612a3b90611bae565b5f90612a45611bba565b965f880190612a5391611bc7565b6020870190612a6191611bd5565b612a6a9061195d565b6040860190612a7891611be3565b42612a8290611bf1565b955f97612a8d611c0d565b995f8b0190612a9b91611be3565b60208a0190612aa991611c1b565b6040890190612ab791611bd5565b6060880190612ac591611be3565b6080870190612ad391611be3565b60a0860190612ae191611c1e565b60c0850190612aef91611c2c565b60e0840190612afd91611c2f565b610100830190612b0c91611c32565b612b159061195d565b610120820190612b2491611be3565b600285612b3091611c40565b90612b3a9161287a565b600533612b4691611742565b612b4f90612886565b84612b59916128d2565b600833612b6591612907565b612b6e81611a1a565b612b7790611a3b565b612b8091611a8c565b83903392937fdc26653af5b99b2da33e2ad69ee6600d9aeccc82b034501db4338309615ca23892612bb090611a6d565b93612bba90611736565b94612bc361027c565b928392612bd0928461291d565b0390a390565b5f6323223fc360e01b815280612bee6004820161041b565b0390fd5b5f63a1c02e1f60e01b815280612c0a6004820161041b565b0390fd5b612c20612c19610db8565b33906150e8565b506129ba565b50612986612c3b612c368361195a565b610ad5565b612c4e612c4860c861197c565b91610349565b1115905061297d565b90612c6a9291612c65611937565b61193b565b90565b9080612c88612c82612c7d615365565b61045e565b9161045e565b03612c9957612c9691615372565b50565b5f63334bd91960e11b815280612cb16004820161041b565b0390fd5b5f7f436f6e7472616374206973207061757365640000000000000000000000000000910152565b612ce96012602092611615565b612cf281612cb5565b0190565b612d0b9060208101905f818303910152612cdc565b90565b15612d1557565b612d1d61027c565b62461bcd60e51b815280612d3360048201612cf6565b0390fd5b60018060a01b031690565b612d4e612d539161176e565b612d37565b90565b612d609054612d42565b90565b92919083612d80612d7b612d756137d5565b156102db565b612d0e565b612d965f612d9060028490611c40565b01611a1a565b612da8612da25f61195d565b91610349565b14612e00576002612dbc612dc29282611c40565b01612d56565b612dd4612dce3361045e565b9161045e565b03612de457612de293612ea1565b565b5f63275260e560e11b815280612dfc6004820161041b565b0390fd5b5f630f5611a960e01b815280612e186004820161041b565b0390fd5b90565b5f7f43616d706169676e206e6f7420696e2061637469766520706572696f64000000910152565b612e53601d602092611615565b612e5c81612e1f565b0190565b612e759060208101905f818303910152612e46565b90565b15612e7f57565b612e8761027c565b62461bcd60e51b815280612e9d60048201612e60565b0390fd5b90612ef0939291612eeb612ebe612eb9836002611c40565b612e1c565b42612edc612ed6612ed160038501611a1a565b610349565b91610349565b10159081612ef2575b50612e78565b612fb4565b565b9050612f12612f0c612f076004429401611a1a565b610349565b91610349565b11155f612ee5565b60ff1690565b612f2c612f319161176e565b612f1a565b90565b612f3e9054612f20565b90565b60ff1690565b612f53612f589161176e565b612f41565b90565b612f659054612f47565b90565b612f7190610c09565b9052565b612f7e9061045e565b9052565b604090612fab612fb29496959396612fa160608401985f850190612f68565b6020830190612f75565b0190610383565b565b92909192612fcc612fc760028390611c40565b612e1c565b612fd860058201612f34565b612fea612fe45f610a69565b91610a69565b0361310a57612ffd5f6007830101612f5b565b61300f6130095f610bfd565b91610bfd565b036130ee57836130276130215f610bfd565b91610bfd565b14806130d3575b6130b75761306f906007859161306988613060889161305761304e611bba565b975f8901611bc7565b60208701611bd5565b60408501611be3565b0161270a565b919290926130b26130a07fc07a9b3aaa057840b17ed5326fe739d11c2a7ffc46914aee58495f51fc76371a94611a6d565b946130a961027c565b93849384612f82565b0390a2565b5f63203cde7560e01b8152806130cf6004820161041b565b0390fd5b50826130e76130e15f61195d565b91610349565b141561302e565b5f63790f062760e01b8152806131066004820161041b565b0390fd5b5f6306dd745b60e41b8152806131226004820161041b565b0390fd5b90613132939291612d63565b565b61314461313f6114d3565b6150d4565b61314c61314e565b565b613156615473565b3342906131986131867f3fc6beefa3f4115babe1a3d46940222e37b39b9ef03dc7b79f832dbcc3da6abf92611736565b9261318f61027c565b91829182610390565b0390a2565b6131a5613134565b565b6131b76131b26114d3565b6150d4565b6131bf6131c1565b565b6131c96154de565b33429061320b6131f97f6eae7d8f48015fddc9502717696ac737bec3d20c703c3958a689f8f48574718392611736565b9261320261027c565b91829182610390565b0390a2565b6132186131a7565b565b61322561014061072b565b90565b5f90565b5f90565b5f90565b606090565b613243606061072b565b90565b5f90565b613252613239565b906020808084613260613246565b81520161326b61322c565b815201613276613228565b81525050565b61328461324a565b90565b5f90565b61329361321a565b9060208080808080808080808b6132a8613228565b8152016132b3611af1565b8152016132be61322c565b8152016132c9613228565b8152016132d4613228565b8152016132df613230565b8152016132ea613234565b8152016132f561327c565b815201613300613287565b81520161330b613228565b81525050565b61331961328b565b90565b905f929180549061333661332f83611c8e565b80946109f4565b916001811690815f1461338d5750600114613351575b505050565b61335e9192939450611cb8565b915f925b81841061337557505001905f808061334c565b60018160209295939554848601520191019290613362565b92949550505060ff19168252151560200201905f808061334c565b906133b29161331c565b90565b906133d56133ce926133c561027c565b938480926133a8565b0383610702565b565b60ff1690565b6133e96133ee9161176e565b6133d7565b90565b6133fb90546133dd565b90565b9061340890610ab0565b9052565b905f929180549061342661341f83611c8e565b8094610ad9565b916001811690815f1461347d5750600114613441575b505050565b61344e9192939450612148565b915f925b81841061346557505001905f808061343c565b60018160209295939554848601520191019290613452565b92949550505060ff19168252151560200201905f808061343c565b906134a29161340c565b90565b906134c56134be926134b561027c565b93848092613498565b0383610702565b565b52565b60ff1690565b6134dc6134e19161176e565b6134ca565b90565b6134ee90546134d0565b90565b906134fb906102db565b9052565b9061356661355d6003613510611ae0565b9461352761351f5f83016133f1565b5f88016133fe565b61353f613536600183016133b5565b60208801611c1b565b61355761354e600283016134a5565b604088016134c7565b016134e4565b606084016134f1565b565b613571906134ff565b90565b9061357e82611f47565b61358781611ac9565b926135956020850191611f8e565b5f915b8383106135a55750505050565b600460206001926135b585613568565b815201920192019190613598565b60081c90565b6135d56135da916135c3565b612d37565b90565b6135e790546135c9565b90565b9061363861362f60016135fb613239565b9461361261360a5f8301612f5b565b5f8801611bc7565b6136296136205f83016135dd565b60208801611bd5565b01611a1a565b60408401611be3565b565b60018060e01b031690565b6136516136569161176e565b61363a565b90565b6136639054613645565b90565b9061375f613755600a61367761321a565b9461368e6136865f8301611a1a565b5f8801611be3565b6136a661369d600183016133b5565b60208801611c1b565b6136be6136b560028301612d56565b60408801611bd5565b6136d66136cd60038301611a1a565b60608801611be3565b6136ee6136e560048301611a1a565b60808801611be3565b6137066136fd60058301612f34565b60a08801611c1e565b61371e61371560068301613574565b60c08801611c2c565b61373661372d600783016135ea565b60e08801611c2f565b61374f61374560098301613659565b6101008801611c32565b01611a1a565b6101208401611be3565b565b61376a90613666565b90565b613775613311565b5061378c5f61378660028490611c40565b01611a1a565b61379e6137985f61195d565b91610349565b146137b9576137b16137b6916002611c40565b613761565b90565b5f630f5611a960e01b8152806137d16004820161041b565b0390fd5b6137dd61169c565b506137e8600c6134e4565b90565b6137f3611937565b506137fe6001611a1a565b90565b61381a9061381561381061105c565b6150d4565b61381c565b565b61382d90613828610db8565b615372565b50565b61383990613801565b565b613843611aff565b90565b61384f81611f47565b82101561386957613861600491611f8e565b910201905f90565b612892565b61387661383b565b5061388d5f61388760028490611c40565b01611a1a565b61389f6138995f61195d565b91610349565b1461391257816138cd6138c76138c260066138bc60028790611c40565b01611f47565b610349565b91610349565b10156138f6576138f39160066138e76138ed936002611c40565b01613846565b50613568565b90565b5f631d1ac06360e01b81528061390e6004820161041b565b0390fd5b5f630f5611a960e01b81528061392a6004820161041b565b0390fd5b9061393890611736565b5f5260205260405f2090565b61396a915f61395f6139659361395861169c565b50826118a6565b0161392e565b6134e4565b90565b9061397790611736565b5f5260205260405f2090565b9061398d90611a6d565b5f5260205260405f2090565b6139b9906139b46139be936139ac61169c565b50600661396d565b613983565b6134e4565b90565b6139d2906139cd614530565b6139d4565b565b6139e5906139e0614790565b6139ef565b6139ed6147f5565b565b6139f890615594565b565b613a03906139c1565b565b9392919084613a23613a1e613a186137d5565b156102db565b612d0e565b613a395f613a3360028490611c40565b01611a1a565b613a4b613a455f61195d565b91610349565b14613aa3576002613a5f613a659282611c40565b01612d56565b613a77613a713361045e565b9161045e565b03613a8757613a8594613d08565b565b5f63275260e560e11b815280613a9f6004820161041b565b0390fd5b5f630f5611a960e01b815280613abb6004820161041b565b0390fd5b90565b613ad6613ad1613adb92613abf565b61034c565b610349565b90565b5f7f496e76616c6964206465736372697074696f6e206c656e677468000000000000910152565b613b12601a602092611615565b613b1b81613ade565b0190565b613b349060208101905f818303910152613b05565b90565b15613b3e57565b613b4661027c565b62461bcd60e51b815280613b5c60048201613b1f565b0390fd5b90565b613b77613b72613b7c92613b60565b61034c565b610349565b90565b5f7f546f6f206d616e79207461736b73207065722063616d706169676e0000000000910152565b613bb3601b602092611615565b613bbc81613b7f565b0190565b613bd59060208101905f818303910152613ba6565b90565b15613bdf57565b613be761027c565b62461bcd60e51b815280613bfd60048201613bc0565b0390fd5b90565b613c0e608061072b565b90565b5f5260205f2090565b5490565b613c2781613c1a565b821015613c4157613c39600491613c11565b910201905f90565b612892565b9190613c5757613c5591612565565b565b611c56565b9081549168010000000000000000831015613c8c5782613c84916001613c8a95018155613c1e565b90613c46565b565b6106ee565b90565b613ca8613ca3613cad92613c91565b61034c565b610349565b90565b613cbf613cc591939293610349565b92610349565b8203918211613cd057565b611a27565b613cde90610abc565b9052565b91613d0592613cf860408201935f830190613cd5565b602081840391015261161e565b90565b90929193613d1d613d188661195a565b610ad5565b613d2f613d295f61195d565b91610349565b1180613e7d575b613d3f90613b37565b613d53613d4e60028490611c40565b612e1c565b92613d6060058501612f34565b613d72613d6c5f610a69565b91610a69565b03613e6157613e1292613dfb87613e0294613df6600695613db0613d97888c01611f47565b613daa613da46014613b63565b91610349565b10613bd8565b613ded613dbe888c01613c01565b93613de48d96939193613ddb613dd2613c04565b985f8a016133fe565b60208801611c1b565b604086016134c7565b606084016134f1565b613c5c565b9301611f47565b613e0c6001613c94565b90613cb0565b9192613e47613e417fd0664854493294a8d5634b201e2a478d08fe951d2b27278a66f49026bf2ba3b493611a6d565b93611a6d565b93613e5c613e5361027c565b92839283613ce2565b0390a3565b5f6306dd745b60e41b815280613e796004820161041b565b0390fd5b50613d3f613e92613e8d8761195a565b610ad5565b613ea6613ea06103e8613ac2565b91610349565b11159050613d36565b90613ebc94939291613a05565b565b613ecf90613eca614530565b613ed1565b565b613eda90615ce2565b565b613ee590613ebe565b565b613f0790613f02613f0c93613efa61169c565b50600461396d565b613983565b6134e4565b90565b919082613f2b613f26613f206137d5565b156102db565b612d0e565b613f415f613f3b60028490611c40565b01611a1a565b613f53613f4d5f61195d565b91610349565b14613fab576002613f67613f6d9282611c40565b01612d56565b613f7f613f793361045e565b9161045e565b03613f8f57613f8d92613ff3565b565b5f63275260e560e11b815280613fa76004820161041b565b0390fd5b5f630f5611a960e01b815280613fc36004820161041b565b0390fd5b90613fd190611736565b5f5260205260405f2090565b90613fe790611a6d565b5f5260205260405f2090565b91909161400a61400560028390611c40565b612e1c565b61401660058201612f34565b6140296140236001610a69565b91610a69565b14158061428a575b61426e578261405361404d61404860068501611f47565b610349565b91610349565b1015614252576140725f61406b600684018690613846565b50016133f1565b61408561407f6006610ab0565b91610ab0565b14801561421f575b80156141ec575b6141d0576140c06140bb6140b46140ad60038890613fc7565b8590613fdd565b8590613983565b6134e4565b6141b4576140ee60016140e96140e26140db60038990613fc7565b8690613fdd565b8690613983565b612545565b61411561410f61410a6141036006889061396d565b8590613983565b6134e4565b156102db565b614170575b509161415861415261414c7f67cf8439b7b4e38eb8bbfb33a19e4f9b9b8b3fae5c79a1c4780c12e649e64b2895611a6d565b92611736565b92611a6d565b9261416161027c565b8061416b8161041b565b0390a4565b600a6141ae91614196600161419161418a60068a9061396d565b8790613983565b612545565b016141a86141a382611a1a565b611a3b565b90611a8c565b5f61411a565b5f6353d366db60e11b8152806141cc6004820161041b565b0390fd5b5f63fdf4f64f60e01b8152806141e86004820161041b565b0390fd5b506142065f6141ff600684018690613846565b50016133f1565b6142196142136008610ab0565b91610ab0565b14614094565b506142395f614232600684018690613846565b50016133f1565b61424c6142466007610ab0565b91610ab0565b1461408d565b5f631d1ac06360e01b81528061426a6004820161041b565b0390fd5b5f6363b4791760e01b8152806142866004820161041b565b0390fd5b5061429760058201612f34565b6142aa6142a46002610a69565b91610a69565b1415614031565b906142bc9291613f0f565b565b916142e26142ec936142dd6142e7946142d561169c565b506003613fc7565b613fdd565b613983565b6134e4565b90565b9061430a91614305614300826118e0565b6150d4565b61430c565b565b9061431691615372565b50565b90614323916142ef565b565b61433690614331614530565b614338565b565b61434190615e8c565b565b61434c90614325565b565b61435f9061435a610db8565b6150e8565b50565b61436a614530565b614372614374565b565b61437c614790565b614384614410565b61438c6147f5565b565b5f7f496e76616c69642045544820616d6f756e740000000000000000000000000000910152565b6143c26012602092611615565b6143cb8161438e565b0190565b6143e49060208101905f8183039101526143b5565b90565b156143ee57565b6143f661027c565b62461bcd60e51b81528061440c600482016143cf565b0390fd5b61442c346144266144205f61195d565b91610349565b116143e7565b33349061446e61445c7f8e47b87b0ef542cdfa1659c551d88bad38aa7f452d2bbb349ab7530dfec8be8f92611736565b9261446561027c565b91829182610390565b0390a2565b61447b614362565b565b614485614530565b6144e3565b5f7f46756e6374696f6e20646f6573206e6f74206578697374000000000000000000910152565b6144be6017602092611615565b6144c78161448a565b0190565b6144e09060208101905f8183039101526144b1565b90565b6144eb61027c565b62461bcd60e51b815280614501600482016144cb565b0390fd5b61447d565b61451261169c565b5061452c6145266301ffc9a760e01b61028e565b9161028e565b1490565b6145386137d5565b61453e57565b5f63d93c066560e01b8152806145566004820161041b565b0390fd5b8061457461456f6145696137d5565b156102db565b612d0e565b61458a5f61458460028490611c40565b01611a1a565b61459c6145965f61195d565b91610349565b146145f45760026145b06145b69282611c40565b01612d56565b6145c86145c23361045e565b9161045e565b036145d8576145d690614632565b565b5f63275260e560e11b8152806145f06004820161041b565b0390fd5b5f630f5611a960e01b81528061460c6004820161041b565b0390fd5b61461990610a75565b9052565b9190614630905f60208501940190614610565b565b61464661464160028390611c40565b612e1c565b61465260028201612d56565b61466461465e3361045e565b9161045e565b0361473d5761467560058201612f34565b6146876146815f610a69565b91610a69565b0361472157426146aa6146a461469f60038501611a1a565b610349565b91610349565b10614705576146be90600560019101611f23565b6001906147006146ee7f1289cf89aaaed53d6590c1b7996ba434edb31dcbd322d0b88ff0c02f64bbdeef92611a6d565b926146f761027c565b9182918261461d565b0390a2565b5f63a1c02e1f60e01b81528061471d6004820161041b565b0390fd5b5f6306dd745b60e41b8152806147396004820161041b565b0390fd5b5f63275260e560e11b8152806147556004820161041b565b0390fd5b6147629061455a565b565b90565b61477b61477661478092614764565b61034c565b610349565b90565b61478d6002614767565b90565b61479a600b611a1a565b6147b36147ad6147a8614783565b610349565b91610349565b146147cc576147ca6147c3614783565b600b611a8c565b565b5f633ee5aeb560e01b8152806147e46004820161041b565b0390fd5b6147f26001613c94565b90565b6148076148006147e8565b600b611a8c565b565b906148569161485161482461481f836002611c40565b612e1c565b4261484261483c61483760038501611a1a565b610349565b91610349565b10159081614858575b50612e78565b614b3d565b565b905061487861487261486d6004429401611a1a565b610349565b91610349565b11155f61484b565b60207f6374697669747900000000000000000000000000000000000000000000000000917f4163636f756e7420666c616767656420666f7220737573706963696f757320615f8201520152565b6148da6027604092611615565b6148e381614880565b0190565b6148fc9060208101905f8183039101526148cd565b90565b1561490657565b61490e61027c565b62461bcd60e51b815280614924600482016148e7565b0390fd5b90565b61493f61493a61494492614928565b61034c565b610349565b90565b5f7f546f6f206d616e7920726170696420616374696f6e7300000000000000000000910152565b61497b6016602092611615565b61498481614947565b0190565b61499d9060208101905f81830391015261496e565b90565b156149a757565b6149af61027c565b62461bcd60e51b8152806149c560048201614988565b0390fd5b90565b6149d69054611c8e565b90565b90565b6149f06149eb6149f5926149d9565b61034c565b610349565b90565b614a01906134a5565b90565b614a0d90610453565b90565b614a1981614a04565b03614a2057565b5f80fd5b90505190614a3182614a10565b565b90505190614a40826103da565b565b9190604083820312614a6a5780614a5e614a67925f8601614a24565b93602001614a33565b90565b610286565b614a789061172a565b90565b614a849061170e565b90565b614a9090614a7b565b90565b614a9c9061172a565b90565b5f80fd5b60e01b90565b90505190614ab68261046a565b565b90602082820312614ad157614ace915f01614aa9565b90565b610286565b614ade61027c565b3d5f823e3d90fd5b614aef9061170e565b90565b614afb90614ae6565b90565b614b079061172a565b90565b90602082820312614b2357614b20915f01614a33565b90565b610286565b9190614b3b905f60208501940190612f75565b565b614b51614b4c60028390611c40565b612e1c565b614b5c5f8201611a1a565b614b6e614b685f61195d565b91610349565b146150ac57614b7f60058201612f34565b614b92614b8c6001610a69565b91610a69565b036150905782614bb5614baf614baa60068501611f47565b610349565b91610349565b101561507457614be3614bde614bd7614bd060033390613fc7565b8590613fdd565b8590613983565b6134e4565b61505857614c1d614bfe614bf960093390612907565b611a1a565b614c17614c11614c0c61112a565b610349565b91610349565b106148ff565b614c58614c3e42614c38614c3360073390612907565b611a1a565b90613cb0565b614c51614c4b601e61492b565b91610349565b10156149a0565b614c6f614c69600683018590613846565b506149c9565b614c7a5f82016133f1565b614c8d614c876007610ab0565b91610ab0565b145f14614ecb57614ca0600282016149cc565b614cb3614cad60346149dc565b91610349565b03614eaf57614cf16020614cfb614cf6614cea614cd56002614d2597016149f8565b84614cdf82610ad5565b818301019101614a42565b9490614a6f565b614af2565b614afe565b6370a0823190614d1a3392614d0e61027c565b96879485938493614aa3565b835260048301614b28565b03915afa918215614eaa575f92614e72575b50614d44614d4a91610349565b91610349565b10614e56575b614d7a6001614d75614d6e614d6760033390613fc7565b8690613fdd565b8690613983565b612545565b614da1614d9b614d96614d8f6006339061396d565b8590613983565b6134e4565b156102db565b614e12575b509033614de5614ddf614dd97f67cf8439b7b4e38eb8bbfb33a19e4f9b9b8b3fae5c79a1c4780c12e649e64b2895611a6d565b92611736565b92611a6d565b92614dee61027c565b80614df88161041b565b0390a4614e1042614e0b60073390612907565b611a8c565b565b600a614e5091614e386001614e33614e2c6006339061396d565b8790613983565b612545565b01614e4a614e4582611a1a565b611a3b565b90611a8c565b5f614da6565b5f638b1e418760e01b815280614e6e6004820161041b565b0390fd5b614d4a919250614e9b614d449160203d8111614ea3575b614e938183610702565b810190614b0a565b929150614d37565b503d614e89565b614ad6565b5f6373074c4b60e11b815280614ec76004820161041b565b0390fd5b614ed65f82016133f1565b614ee9614ee36008610ab0565b91610ab0565b145f1461501957614efc600282016149cc565b614f0f614f0960346149dc565b91610349565b03614ffd576020614f4d614f57614f52614f46614f316002614f7e97016149f8565b85614f3b82610ad5565b818301019101614a42565b9390614a6f565b614a87565b614a93565b614f73636352211e614f6761027c565b95869485938493614aa3565b835260048301610390565b03915afa908115614ff8575f91614fca575b50614fa3614f9d3361045e565b9161045e565b03614fae575b614d50565b5f633d28cf7360e01b815280614fc66004820161041b565b0390fd5b614feb915060203d8111614ff1575b614fe38183610702565b810190614ab8565b5f614f90565b503d614fd9565b614ad6565b5f6373074c4b60e11b8152806150156004820161041b565b0390fd5b5f61502491016133f1565b6150376150316006610ab0565b91610ab0565b03614fa9575f631e3072cd60e31b8152806150546004820161041b565b0390fd5b5f6353d366db60e11b8152806150706004820161041b565b0390fd5b5f631d1ac06360e01b81528061508c6004820161041b565b0390fd5b5f6363b4791760e01b8152806150a86004820161041b565b0390fd5b5f630f5611a960e01b8152806150c46004820161041b565b0390fd5b906150d291614809565b565b6150e6906150e0615365565b90615eba565b565b6150f061169c565b506151056150ff828490613944565b156102db565b5f1461518d5761512c60016151275f61511f8186906118a6565b01859061392e565b612545565b90615135615365565b9061517261516c6151667f2f8788117e7eff1d82e926ec794901d17c78024a50270940304540a733656f0d9561189a565b92611736565b92611736565b9261517b61027c565b806151858161041b565b0390a4600190565b50505f90565b5f7f52617465206c696d69743a20746f6f206d616e7920616374696f6e7300000000910152565b6151c7601c602092611615565b6151d081615193565b0190565b6151e99060208101905f8183039101526151ba565b90565b156151f357565b6151fb61027c565b62461bcd60e51b815280615211600482016151d4565b0390fd5b61526b9061525a61523a4261523461522f60078690612907565b611a1a565b90613cb0565b61525361524d6152486108a2565b610349565b91610349565b10156151ec565b61526642916007612907565b611a8c565b565b8061528061527a42610349565b91610349565b1115615345578161529961529383610349565b91610349565b1115615329576152aa828290613cb0565b6152c36152bd6152b8610f45565b610349565b91610349565b1061530d576152d191613cb0565b6152ea6152e46152df610fb2565b610349565b91610349565b116152f157565b5f6323223fc360e01b8152806153096004820161041b565b0390fd5b5f6323223fc360e01b8152806153256004820161041b565b0390fd5b5f6323223fc360e01b8152806153416004820161041b565b0390fd5b5f63a1c02e1f60e01b81528061535d6004820161041b565b0390fd5b5f90565b61536d615361565b503390565b61537a61169c565b50615386818390613944565b5f1461540d576153ac5f6153a75f61539f8186906118a6565b01859061392e565b612545565b906153b5615365565b906153f26153ec6153e67ff6391f5c32d9c69d2a47ea670b442974b53935d1edc7fd64eb21e047a839171b9561189a565b92611736565b92611736565b926153fb61027c565b806154058161041b565b0390a4600190565b50505f90565b61541b615ef5565b615423615425565b565b6154305f600c612545565b615438615365565b61546e7f5db9ee0a495bf2e6ff9c91a7834c1ba4fdd244a5e8aa4e537bd38aeae4b073aa9161546561027c565b91829182614b28565b0390a1565b61547b615413565b565b615485614530565b61548d61548f565b565b61549b6001600c612545565b6154a3615365565b6154d97f62e78cea01bee320cd4e420270b5ea74000d11b0c9f74754ebdbfc544b05a258916154d061027c565b91829182614b28565b0390a1565b6154e661547d565b565b60016154f49101610349565b90565b6155009061172a565b90565b5f91031261550d57565b610286565b60409061553b615542949695939661553160608401985f850190612f75565b6020830190612f75565b0190610383565b565b91602061556592949361555e60408201965f830190612f75565b0190612f75565b565b9050519061557482611243565b565b9060208282031261558f5761558c915f01615567565b90565b610286565b6155a86155a360028390611c40565b612e1c565b6155b35f8201611a1a565b6155c56155bf5f61195d565b91610349565b14615b66576155d660058201612f34565b6155e96155e36002610a69565b91610a69565b03615b4a5761560c6156076156006004339061396d565b8490613983565b6134e4565b615b2e5761561e5f6007830101612f5b565b61563061562a5f610bfd565b91610bfd565b14615b125761563e5f61195d565b5b8061565d61565761565260068601611f47565b610349565b91610349565b10156156f1576156866156806003615679600686018590613846565b50016134e4565b156102db565b806156ba575b61569e57615699906154e8565b61563f565b5f634ca90fc760e11b8152806156b66004820161041b565b0390fd5b506156ec6156e66156e16156da6156d360033390613fc7565b8790613fdd565b8490613983565b6134e4565b156102db565b61568c565b5090615713600161570e6157076004339061396d565b8490613983565b612545565b6157215f6007840101612f5b565b61573461572e6001610bfd565b91610bfd565b145f146159655761575161574c5f60078501016135dd565b614af2565b61575a81614afe565b602063dd62ed3e9161576e60028701612d56565b9061579361577b306154f7565b9461579e61578761027c565b96879586948594614aa3565b845260048401615544565b03915afa908115615960575f91615932575b506157d16157cb6157c660016007880101611a1a565b610349565b91610349565b10615916576157df90614afe565b60206323b872dd916157f360028601612d56565b906158205f339561582b61580c600160078c0101611a1a565b61581461027c565b98899788968795614aa3565b855260048501615512565b03925af1801561591157615847915f916158e3575b50156102db565b6158c7575b339061585c5f6007850101612f5b565b92615879600160076158715f828601016135dd565b930101611a1a565b936158c26158b06158aa7f189a1a0a528ab8a05000b87f489363b7178a4575aeccf52c3c0f7f6339a4585f95611a6d565b95611736565b956158b961027c565b93849384612f82565b0390a3565b5f6356cab7ef60e01b8152806158df6004820161041b565b0390fd5b615904915060203d811161590a575b6158fc8183610702565b810190615576565b5f615840565b503d6158f2565b614ad6565b5f63bade60ed60e01b81528061592e6004820161041b565b0390fd5b615953915060203d8111615959575b61594b8183610702565b810190614b0a565b5f6157b0565b503d615941565b614ad6565b6159735f6007840101612f5b565b6159866159806002610bfd565b91610bfd565b14615991575b61584c565b6159a76159a25f60078501016135dd565b614a87565b6159ed60206159b583614a93565b636352211e906159e26159cd600160078a0101611a1a565b926159d661027c565b95869485938493614aa3565b835260048301610390565b03915afa908115615b0d575f91615adf575b50615a1a615a14615a0f306154f7565b61045e565b9161045e565b03615ac357615a2890614a93565b6323b872dd615a36306154f7565b3392615a4760016007880101611a1a565b92813b15615abe575f615a6d91615a788296615a6161027c565b98899788968795614aa3565b855260048501615512565b03925af18015615ab957615a8d575b5061598c565b615aac905f3d8111615ab2575b615aa48183610702565b810190615503565b5f615a87565b503d615a9a565b614ad6565b614a9f565b5f634b35787760e11b815280615adb6004820161041b565b0390fd5b615b00915060203d8111615b06575b615af88183610702565b810190614ab8565b5f6159ff565b503d615aee565b614ad6565b5f63290d665760e01b815280615b2a6004820161041b565b0390fd5b5f631ddf0bf160e31b815280615b466004820161041b565b0390fd5b5f632c9bee3160e21b815280615b626004820161041b565b0390fd5b5f630f5611a960e01b815280615b7e6004820161041b565b0390fd5b80615b9c615b97615b916137d5565b156102db565b612d0e565b615bb25f615bac60028490611c40565b01611a1a565b615bc4615bbe5f61195d565b91610349565b14615c1c576002615bd8615bde9282611c40565b01612d56565b615bf0615bea3361045e565b9161045e565b03615c0057615bfe90615c38565b565b5f63275260e560e11b815280615c186004820161041b565b0390fd5b5f630f5611a960e01b815280615c346004820161041b565b0390fd5b615c4c615c4760028390611c40565b612e1c565b615c5860058201612f34565b615c6b615c656002610a69565b91610a69565b03615cc657615c7f90600560039101611f23565b600390615cc1615caf7f1289cf89aaaed53d6590c1b7996ba434edb31dcbd322d0b88ff0c02f64bbdeef92611a6d565b92615cb861027c565b9182918261461d565b0390a2565b5f632c9bee3160e21b815280615cde6004820161041b565b0390fd5b615ceb90615b82565b565b80615d07615d02615cfc6137d5565b156102db565b612d0e565b615d1d5f615d1760028490611c40565b01611a1a565b615d2f615d295f61195d565b91610349565b14615d87576002615d43615d499282611c40565b01612d56565b615d5b615d553361045e565b9161045e565b03615d6b57615d6990615da3565b565b5f63275260e560e11b815280615d836004820161041b565b0390fd5b5f630f5611a960e01b815280615d9f6004820161041b565b0390fd5b615db7615db260028390611c40565b612e1c565b615dc360058201612f34565b615dd6615dd06001610a69565b91610a69565b03615e705742615df9615df3615dee60048501611a1a565b610349565b91610349565b10615e5457615e0d90600560029101611f23565b600290615e4f615e3d7f1289cf89aaaed53d6590c1b7996ba434edb31dcbd322d0b88ff0c02f64bbdeef92611a6d565b92615e4661027c565b9182918261461d565b0390a2565b5f632c9bee3160e21b815280615e6c6004820161041b565b0390fd5b5f6363b4791760e01b815280615e886004820161041b565b0390fd5b615e9590615ced565b565b916020615eb8929493615eb160408201965f830190612f75565b0190610624565b565b90615ecf615ec9838390613944565b156102db565b615ed7575050565b615ef15f92839263e2517d3f60e01b845260048401615e97565b0390fd5b615f06615f006137d5565b156102db565b615f0c57565b5f638dfc202b60e01b815280615f246004820161041b565b0390fdfea26469706673582212208ad0d27236fb2eb6bebd1bdc2f69575f56e8d2c7453c4eea6170cbd0fa1feee964736f6c634300081d0033","linkReferences":{}},"methodIdentifiers":{"DEFAULT_ADMIN_ROLE()":"a217fddf","EMERGENCY_ADMIN()":"d6585ecf","HOST_ROLE()":"68e978b1","JOIN_COOLDOWN()":"0a839b4c","MAX_CAMPAIGN_DURATION()":"8c7bc838","MAX_PARTICIPANTS_LIMIT()":"cf3f8d6c","MAX_SUSPICIOUS_SCORE()":"a3a0ef1c","MIN_CAMPAIGN_DURATION()":"8aea3dc9","RATE_LIMIT_COOLDOWN()":"375a23c7","VERSION()":"ffa1ad74","addTaskToCampaign(uint256,uint8,string,bytes,bool)":"afbce5fd","claimReward(uint256)":"ae169a50","closeCampaign(uint256)":"b0e1c1e1","completeTask(uint256,uint256)":"108c8ae4","createCampaign(string,uint256,uint256)":"3020580b","emergencyPause()":"51858e27","emergencyUnpause()":"4a4e3bd5","endCampaign(uint256)":"dd0408ae","getCampaign(uint256)":"5598f8cc","getCampaignCount()":"6caa9218","getCampaignTask(uint256,uint256)":"6efa024a","getCampaignsByHost(address)":"0f717b08","getRoleAdmin(bytes32)":"248a9ca3","grantHostRole(address)":"f20cb1a9","grantRole(bytes32,address)":"2f2ff15d","hasClaimedReward(uint256,address)":"c8b727a1","hasCompletedTask(uint256,address,uint256)":"cfebabe6","hasParticipated(uint256,address)":"a34398a2","hasRole(bytes32,address)":"91d14854","openCampaign(uint256)":"0ec9ea17","paused()":"5c975abb","renounceRole(bytes32,address)":"36568abe","revokeHostRole(address)":"6d574491","revokeRole(bytes32,address)":"d547741f","setCampaignReward(uint256,uint8,address,uint256)":"3c3566cd","supportsInterface(bytes4)":"01ffc9a7","verifyTaskCompletion(uint256,address,uint256)":"cafa436b"},"id":13}